{
  "contractName": "DreamToken",
  "abi": [
    {
      "inputs": [],
      "stateMutability": "nonpayable",
      "type": "constructor"
    },
    {
      "anonymous": false,
      "inputs": [
        {
          "indexed": true,
          "internalType": "address",
          "name": "owner",
          "type": "address"
        },
        {
          "indexed": true,
          "internalType": "address",
          "name": "spender",
          "type": "address"
        },
        {
          "indexed": false,
          "internalType": "uint256",
          "name": "value",
          "type": "uint256"
        }
      ],
      "name": "Approval",
      "type": "event"
    },
    {
      "anonymous": false,
      "inputs": [
        {
          "indexed": false,
          "internalType": "address",
          "name": "target",
          "type": "address"
        }
      ],
      "name": "Frozen",
      "type": "event"
    },
    {
      "anonymous": false,
      "inputs": [
        {
          "indexed": true,
          "internalType": "address",
          "name": "previousOwner",
          "type": "address"
        },
        {
          "indexed": true,
          "internalType": "address",
          "name": "newOwner",
          "type": "address"
        }
      ],
      "name": "OwnershipTransferred",
      "type": "event"
    },
    {
      "anonymous": false,
      "inputs": [
        {
          "indexed": false,
          "internalType": "address",
          "name": "account",
          "type": "address"
        }
      ],
      "name": "Paused",
      "type": "event"
    },
    {
      "anonymous": false,
      "inputs": [
        {
          "indexed": true,
          "internalType": "address",
          "name": "from",
          "type": "address"
        },
        {
          "indexed": true,
          "internalType": "address",
          "name": "to",
          "type": "address"
        },
        {
          "indexed": false,
          "internalType": "uint256",
          "name": "value",
          "type": "uint256"
        }
      ],
      "name": "Transfer",
      "type": "event"
    },
    {
      "anonymous": false,
      "inputs": [
        {
          "indexed": false,
          "internalType": "address",
          "name": "target",
          "type": "address"
        }
      ],
      "name": "Unfrozen",
      "type": "event"
    },
    {
      "anonymous": false,
      "inputs": [
        {
          "indexed": false,
          "internalType": "address",
          "name": "account",
          "type": "address"
        }
      ],
      "name": "Unpaused",
      "type": "event"
    },
    {
      "inputs": [
        {
          "internalType": "address",
          "name": "owner",
          "type": "address"
        },
        {
          "internalType": "address",
          "name": "spender",
          "type": "address"
        }
      ],
      "name": "allowance",
      "outputs": [
        {
          "internalType": "uint256",
          "name": "",
          "type": "uint256"
        }
      ],
      "stateMutability": "view",
      "type": "function",
      "constant": true
    },
    {
      "inputs": [
        {
          "internalType": "address",
          "name": "spender",
          "type": "address"
        },
        {
          "internalType": "uint256",
          "name": "amount",
          "type": "uint256"
        }
      ],
      "name": "approve",
      "outputs": [
        {
          "internalType": "bool",
          "name": "",
          "type": "bool"
        }
      ],
      "stateMutability": "nonpayable",
      "type": "function"
    },
    {
      "inputs": [
        {
          "internalType": "address",
          "name": "account",
          "type": "address"
        }
      ],
      "name": "balanceOf",
      "outputs": [
        {
          "internalType": "uint256",
          "name": "",
          "type": "uint256"
        }
      ],
      "stateMutability": "view",
      "type": "function",
      "constant": true
    },
    {
      "inputs": [],
      "name": "decimals",
      "outputs": [
        {
          "internalType": "uint8",
          "name": "",
          "type": "uint8"
        }
      ],
      "stateMutability": "view",
      "type": "function",
      "constant": true
    },
    {
      "inputs": [
        {
          "internalType": "address",
          "name": "spender",
          "type": "address"
        },
        {
          "internalType": "uint256",
          "name": "subtractedValue",
          "type": "uint256"
        }
      ],
      "name": "decreaseAllowance",
      "outputs": [
        {
          "internalType": "bool",
          "name": "",
          "type": "bool"
        }
      ],
      "stateMutability": "nonpayable",
      "type": "function"
    },
    {
      "inputs": [
        {
          "internalType": "address",
          "name": "spender",
          "type": "address"
        },
        {
          "internalType": "uint256",
          "name": "addedValue",
          "type": "uint256"
        }
      ],
      "name": "increaseAllowance",
      "outputs": [
        {
          "internalType": "bool",
          "name": "",
          "type": "bool"
        }
      ],
      "stateMutability": "nonpayable",
      "type": "function"
    },
    {
      "inputs": [],
      "name": "name",
      "outputs": [
        {
          "internalType": "string",
          "name": "",
          "type": "string"
        }
      ],
      "stateMutability": "view",
      "type": "function",
      "constant": true
    },
    {
      "inputs": [],
      "name": "owner",
      "outputs": [
        {
          "internalType": "address",
          "name": "",
          "type": "address"
        }
      ],
      "stateMutability": "view",
      "type": "function",
      "constant": true
    },
    {
      "inputs": [],
      "name": "paused",
      "outputs": [
        {
          "internalType": "bool",
          "name": "",
          "type": "bool"
        }
      ],
      "stateMutability": "view",
      "type": "function",
      "constant": true
    },
    {
      "inputs": [],
      "name": "renounceOwnership",
      "outputs": [],
      "stateMutability": "nonpayable",
      "type": "function"
    },
    {
      "inputs": [],
      "name": "symbol",
      "outputs": [
        {
          "internalType": "string",
          "name": "",
          "type": "string"
        }
      ],
      "stateMutability": "view",
      "type": "function",
      "constant": true
    },
    {
      "inputs": [],
      "name": "totalSupply",
      "outputs": [
        {
          "internalType": "uint256",
          "name": "",
          "type": "uint256"
        }
      ],
      "stateMutability": "view",
      "type": "function",
      "constant": true
    },
    {
      "inputs": [
        {
          "internalType": "address",
          "name": "newOwner",
          "type": "address"
        }
      ],
      "name": "transferOwnership",
      "outputs": [],
      "stateMutability": "nonpayable",
      "type": "function"
    },
    {
      "inputs": [],
      "name": "getMsgSender",
      "outputs": [
        {
          "internalType": "address",
          "name": "",
          "type": "address"
        }
      ],
      "stateMutability": "view",
      "type": "function",
      "constant": true
    },
    {
      "inputs": [
        {
          "internalType": "address",
          "name": "_to",
          "type": "address"
        },
        {
          "internalType": "uint256",
          "name": "_value",
          "type": "uint256"
        }
      ],
      "name": "mint",
      "outputs": [
        {
          "internalType": "bool",
          "name": "",
          "type": "bool"
        }
      ],
      "stateMutability": "nonpayable",
      "type": "function"
    },
    {
      "inputs": [
        {
          "internalType": "address",
          "name": "_address",
          "type": "address"
        },
        {
          "internalType": "uint256",
          "name": "_value",
          "type": "uint256"
        }
      ],
      "name": "burn",
      "outputs": [],
      "stateMutability": "nonpayable",
      "type": "function"
    },
    {
      "inputs": [],
      "name": "pause",
      "outputs": [],
      "stateMutability": "nonpayable",
      "type": "function"
    },
    {
      "inputs": [],
      "name": "unpause",
      "outputs": [],
      "stateMutability": "nonpayable",
      "type": "function"
    },
    {
      "inputs": [],
      "name": "currentTime",
      "outputs": [
        {
          "internalType": "uint256",
          "name": "",
          "type": "uint256"
        }
      ],
      "stateMutability": "view",
      "type": "function",
      "constant": true
    },
    {
      "inputs": [
        {
          "internalType": "uint256",
          "name": "_value",
          "type": "uint256"
        }
      ],
      "name": "afterTime",
      "outputs": [
        {
          "internalType": "uint256",
          "name": "",
          "type": "uint256"
        }
      ],
      "stateMutability": "view",
      "type": "function",
      "constant": true
    },
    {
      "inputs": [
        {
          "internalType": "address",
          "name": "to",
          "type": "address"
        },
        {
          "internalType": "uint256",
          "name": "amount",
          "type": "uint256"
        }
      ],
      "name": "transfer",
      "outputs": [
        {
          "internalType": "bool",
          "name": "",
          "type": "bool"
        }
      ],
      "stateMutability": "nonpayable",
      "type": "function"
    },
    {
      "inputs": [
        {
          "internalType": "address",
          "name": "from",
          "type": "address"
        },
        {
          "internalType": "address",
          "name": "to",
          "type": "address"
        },
        {
          "internalType": "uint256",
          "name": "amount",
          "type": "uint256"
        }
      ],
      "name": "transferFrom",
      "outputs": [
        {
          "internalType": "bool",
          "name": "",
          "type": "bool"
        }
      ],
      "stateMutability": "nonpayable",
      "type": "function"
    },
    {
      "inputs": [
        {
          "internalType": "address",
          "name": "_address",
          "type": "address"
        }
      ],
      "name": "freeze",
      "outputs": [],
      "stateMutability": "nonpayable",
      "type": "function"
    },
    {
      "inputs": [
        {
          "internalType": "address",
          "name": "_address",
          "type": "address"
        }
      ],
      "name": "unfreeze",
      "outputs": [],
      "stateMutability": "nonpayable",
      "type": "function"
    },
    {
      "inputs": [
        {
          "internalType": "address",
          "name": "_address",
          "type": "address"
        }
      ],
      "name": "isFrozen",
      "outputs": [
        {
          "internalType": "bool",
          "name": "",
          "type": "bool"
        }
      ],
      "stateMutability": "view",
      "type": "function",
      "constant": true
    }
  ],
  "bytecode": "0x60a0604052620000146200016260201b60201c565b60ff16600a6200002591906200053d565b633b9aca006200003691906200058e565b6007553480156200004657600080fd5b506040518060400160405280600a81526020017f447265616d546f6b656e000000000000000000000000000000000000000000008152506040518060400160405280600381526020017f44544b00000000000000000000000000000000000000000000000000000000008152508160039081620000c4919062000849565b508060049081620000d6919062000849565b505050620000f9620000ed6200016b60201b60201c565b6200017360201b60201c565b6000600560146101000a81548160ff0219169083151502179055503373ffffffffffffffffffffffffffffffffffffffff1660808173ffffffffffffffffffffffffffffffffffffffff16815250506200015c336007546200023960201b60201c565b62000a1c565b60006012905090565b600033905090565b6000600560009054906101000a900473ffffffffffffffffffffffffffffffffffffffff16905081600560006101000a81548173ffffffffffffffffffffffffffffffffffffffff021916908373ffffffffffffffffffffffffffffffffffffffff1602179055508173ffffffffffffffffffffffffffffffffffffffff168173ffffffffffffffffffffffffffffffffffffffff167f8be0079c531659141344cd1fd0a4f28419497f9722a3daafe3b4186f6b6457e060405160405180910390a35050565b600073ffffffffffffffffffffffffffffffffffffffff168273ffffffffffffffffffffffffffffffffffffffff1603620002ab576040517f08c379a0000000000000000000000000000000000000000000000000000000008152600401620002a29062000991565b60405180910390fd5b620002bf60008383620003a660201b60201c565b8060026000828254620002d39190620009b3565b92505081905550806000808473ffffffffffffffffffffffffffffffffffffffff1673ffffffffffffffffffffffffffffffffffffffff168152602001908152602001600020600082825401925050819055508173ffffffffffffffffffffffffffffffffffffffff16600073ffffffffffffffffffffffffffffffffffffffff167fddf252ad1be2c89b69c2b068fc378daa952ba7f163c4a11628f55a4df523b3ef83604051620003869190620009ff565b60405180910390a3620003a260008383620003ab60201b60201c565b5050565b505050565b505050565b7f4e487b7100000000000000000000000000000000000000000000000000000000600052601160045260246000fd5b60008160011c9050919050565b6000808291508390505b60018511156200043e57808604811115620004165762000415620003b0565b5b6001851615620004265780820291505b80810290506200043685620003df565b9450620003f6565b94509492505050565b6000826200045957600190506200052c565b816200046957600090506200052c565b81600181146200048257600281146200048d57620004c3565b60019150506200052c565b60ff841115620004a257620004a1620003b0565b5b8360020a915084821115620004bc57620004bb620003b0565b5b506200052c565b5060208310610133831016604e8410600b8410161715620004fd5782820a905083811115620004f757620004f6620003b0565b5b6200052c565b6200050c8484846001620003ec565b92509050818404811115620005265762000525620003b0565b5b81810290505b9392505050565b6000819050919050565b60006200054a8262000533565b9150620005578362000533565b9250620005867fffffffffffffffffffffffffffffffffffffffffffffffffffffffffffffffff848462000447565b905092915050565b60006200059b8262000533565b9150620005a88362000533565b9250828202620005b88162000533565b91508282048414831517620005d257620005d1620003b0565b5b5092915050565b600081519050919050565b7f4e487b7100000000000000000000000000000000000000000000000000000000600052604160045260246000fd5b7f4e487b7100000000000000000000000000000000000000000000000000000000600052602260045260246000fd5b600060028204905060018216806200065b57607f821691505b60208210810362000671576200067062000613565b5b50919050565b60008190508160005260206000209050919050565b60006020601f8301049050919050565b600082821b905092915050565b600060088302620006db7fffffffffffffffffffffffffffffffffffffffffffffffffffffffffffffffff826200069c565b620006e786836200069c565b95508019841693508086168417925050509392505050565b6000819050919050565b60006200072a620007246200071e8462000533565b620006ff565b62000533565b9050919050565b6000819050919050565b620007468362000709565b6200075e620007558262000731565b848454620006a9565b825550505050565b600090565b6200077562000766565b620007828184846200073b565b505050565b5b81811015620007aa576200079e6000826200076b565b60018101905062000788565b5050565b601f821115620007f957620007c38162000677565b620007ce846200068c565b81016020851015620007de578190505b620007f6620007ed856200068c565b83018262000787565b50505b505050565b600082821c905092915050565b60006200081e60001984600802620007fe565b1980831691505092915050565b60006200083983836200080b565b9150826002028217905092915050565b6200085482620005d9565b67ffffffffffffffff81111562000870576200086f620005e4565b5b6200087c825462000642565b62000889828285620007ae565b600060209050601f831160018114620008c15760008415620008ac578287015190505b620008b885826200082b565b86555062000928565b601f198416620008d18662000677565b60005b82811015620008fb57848901518255600182019150602085019450602081019050620008d4565b868310156200091b578489015162000917601f8916826200080b565b8355505b6001600288020188555050505b505050505050565b600082825260208201905092915050565b7f45524332303a206d696e7420746f20746865207a65726f206164647265737300600082015250565b600062000979601f8362000930565b9150620009868262000941565b602082019050919050565b60006020820190508181036000830152620009ac816200096a565b9050919050565b6000620009c08262000533565b9150620009cd8362000533565b9250828201905080821115620009e857620009e7620003b0565b5b92915050565b620009f98162000533565b82525050565b600060208201905062000a166000830184620009ee565b92915050565b60805161235162000a35600039600050506123516000f3fe608060405234801561001057600080fd5b50600436106101735760003560e01c8063715018a6116100de5780639dc29fac11610097578063d18e81b311610071578063d18e81b31461043c578063dd62ed3e1461045a578063e58398361461048a578063f2fde38b146104ba57610173565b80639dc29fac146103c0578063a457c2d7146103dc578063a9059cbb1461040c57610173565b8063715018a6146103365780637a6ce2e1146103405780638456cb591461035e5780638d1fdf2f146103685780638da5cb5b1461038457806395d89b41146103a257610173565b8063395093511161013057806339509351146102625780633f4ba83a1461029257806340c10f191461029c57806345c8b1a6146102cc5780635c975abb146102e857806370a082311461030657610173565b806304859ceb1461017857806306fdde03146101a8578063095ea7b3146101c657806318160ddd146101f657806323b872dd14610214578063313ce56714610244575b600080fd5b610192600480360381019061018d9190611744565b6104d6565b60405161019f9190611780565b60405180910390f35b6101b06104eb565b6040516101bd919061182b565b60405180910390f35b6101e060048036038101906101db91906118ab565b61057d565b6040516101ed9190611906565b60405180910390f35b6101fe6105a0565b60405161020b9190611780565b60405180910390f35b61022e60048036038101906102299190611921565b6105aa565b60405161023b9190611906565b60405180910390f35b61024c61066f565b6040516102599190611990565b60405180910390f35b61027c600480360381019061027791906118ab565b610678565b6040516102899190611906565b60405180910390f35b61029a6106af565b005b6102b660048036038101906102b191906118ab565b6106c9565b6040516102c39190611906565b60405180910390f35b6102e660048036038101906102e191906119ab565b6106e7565b005b6102f0610781565b6040516102fd9190611906565b60405180910390f35b610320600480360381019061031b91906119ab565b610798565b60405161032d9190611780565b60405180910390f35b61033e6107e0565b005b6103486107f4565b60405161035591906119e7565b60405180910390f35b610366610803565b005b610382600480360381019061037d91906119ab565b61081d565b005b61038c6108b7565b60405161039991906119e7565b60405180910390f35b6103aa6108e1565b6040516103b7919061182b565b60405180910390f35b6103da60048036038101906103d591906118ab565b610973565b005b6103f660048036038101906103f191906118ab565b6109d4565b6040516104039190611906565b60405180910390f35b610426600480360381019061042191906118ab565b610a4b565b6040516104339190611906565b60405180910390f35b610444610b04565b6040516104519190611780565b60405180910390f35b610474600480360381019061046f9190611a02565b610b0c565b6040516104819190611780565b60405180910390f35b6104a4600480360381019061049f91906119ab565b610b93565b6040516104b19190611906565b60405180910390f35b6104d460048036038101906104cf91906119ab565b610be9565b005b600081426104e49190611a71565b9050919050565b6060600380546104fa90611ad4565b80601f016020809104026020016040519081016040528092919081815260200182805461052690611ad4565b80156105735780601f1061054857610100808354040283529160200191610573565b820191906000526020600020905b81548152906001019060200180831161055657829003601f168201915b5050505050905090565b600080610588610c6c565b9050610595818585610c74565b600191505092915050565b6000600254905090565b60006105b4610e3d565b600860003373ffffffffffffffffffffffffffffffffffffffff1673ffffffffffffffffffffffffffffffffffffffff16815260200190815260200160002060009054906101000a900460ff1615610641576040517f08c379a000000000000000000000000000000000000000000000000000000000815260040161063890611b51565b60405180910390fd5b600061064b610c6c565b9050610658858285610e87565b610663858585610f13565b60019150509392505050565b60006012905090565b600080610683610c6c565b90506106a48185856106958589610b0c565b61069f9190611a71565b610c74565b600191505092915050565b6106b7611189565b6106bf611207565b6106c7611250565b565b60006106d3611189565b6106dd83836112b3565b6001905092915050565b6106ef611189565b6000600860008373ffffffffffffffffffffffffffffffffffffffff1673ffffffffffffffffffffffffffffffffffffffff16815260200190815260200160002060006101000a81548160ff0219169083151502179055507f4feb53e305297ab8fb8f3420c95ea04737addc254a7270d8fc4605d2b9c61dba8160405161077691906119e7565b60405180910390a150565b6000600560149054906101000a900460ff16905090565b60008060008373ffffffffffffffffffffffffffffffffffffffff1673ffffffffffffffffffffffffffffffffffffffff168152602001908152602001600020549050919050565b6107e8611189565b6107f26000611409565b565b60006107fe610c6c565b905090565b61080b611189565b610813610e3d565b61081b6114cf565b565b610825611189565b6001600860008373ffffffffffffffffffffffffffffffffffffffff1673ffffffffffffffffffffffffffffffffffffffff16815260200190815260200160002060006101000a81548160ff0219169083151502179055507f8a5c4736a33c7b7f29a2c34ea9ff9608afc5718d56f6fd6dcbd2d3711a1a4913816040516108ac91906119e7565b60405180910390a150565b6000600560009054906101000a900473ffffffffffffffffffffffffffffffffffffffff16905090565b6060600480546108f090611ad4565b80601f016020809104026020016040519081016040528092919081815260200182805461091c90611ad4565b80156109695780601f1061093e57610100808354040283529160200191610969565b820191906000526020600020905b81548152906001019060200180831161094c57829003601f168201915b5050505050905090565b61097b611189565b61098482610798565b8111156109c6576040517f08c379a00000000000000000000000000000000000000000000000000000000081526004016109bd90611bbd565b60405180910390fd5b6109d08282611532565b5050565b6000806109df610c6c565b905060006109ed8286610b0c565b905083811015610a32576040517f08c379a0000000000000000000000000000000000000000000000000000000008152600401610a2990611c4f565b60405180910390fd5b610a3f8286868403610c74565b60019250505092915050565b6000610a55610e3d565b600860003373ffffffffffffffffffffffffffffffffffffffff1673ffffffffffffffffffffffffffffffffffffffff16815260200190815260200160002060009054906101000a900460ff1615610ae2576040517f08c379a0000000000000000000000000000000000000000000000000000000008152600401610ad990611b51565b60405180910390fd5b6000610aec610c6c565b9050610af9818585610f13565b600191505092915050565b600042905090565b6000600160008473ffffffffffffffffffffffffffffffffffffffff1673ffffffffffffffffffffffffffffffffffffffff16815260200190815260200160002060008373ffffffffffffffffffffffffffffffffffffffff1673ffffffffffffffffffffffffffffffffffffffff16815260200190815260200160002054905092915050565b6000600860008373ffffffffffffffffffffffffffffffffffffffff1673ffffffffffffffffffffffffffffffffffffffff16815260200190815260200160002060009054906101000a900460ff169050919050565b610bf1611189565b600073ffffffffffffffffffffffffffffffffffffffff168173ffffffffffffffffffffffffffffffffffffffff1603610c60576040517f08c379a0000000000000000000000000000000000000000000000000000000008152600401610c5790611ce1565b60405180910390fd5b610c6981611409565b50565b600033905090565b600073ffffffffffffffffffffffffffffffffffffffff168373ffffffffffffffffffffffffffffffffffffffff1603610ce3576040517f08c379a0000000000000000000000000000000000000000000000000000000008152600401610cda90611d73565b60405180910390fd5b600073ffffffffffffffffffffffffffffffffffffffff168273ffffffffffffffffffffffffffffffffffffffff1603610d52576040517f08c379a0000000000000000000000000000000000000000000000000000000008152600401610d4990611e05565b60405180910390fd5b80600160008573ffffffffffffffffffffffffffffffffffffffff1673ffffffffffffffffffffffffffffffffffffffff16815260200190815260200160002060008473ffffffffffffffffffffffffffffffffffffffff1673ffffffffffffffffffffffffffffffffffffffff168152602001908152602001600020819055508173ffffffffffffffffffffffffffffffffffffffff168373ffffffffffffffffffffffffffffffffffffffff167f8c5be1e5ebec7d5bd14f71427d1e84f3dd0314c0f7b2291e5b200ac8c7c3b92583604051610e309190611780565b60405180910390a3505050565b610e45610781565b15610e85576040517f08c379a0000000000000000000000000000000000000000000000000000000008152600401610e7c90611e71565b60405180910390fd5b565b6000610e938484610b0c565b90507fffffffffffffffffffffffffffffffffffffffffffffffffffffffffffffffff8114610f0d5781811015610eff576040517f08c379a0000000000000000000000000000000000000000000000000000000008152600401610ef690611edd565b60405180910390fd5b610f0c8484848403610c74565b5b50505050565b600073ffffffffffffffffffffffffffffffffffffffff168373ffffffffffffffffffffffffffffffffffffffff1603610f82576040517f08c379a0000000000000000000000000000000000000000000000000000000008152600401610f7990611f6f565b60405180910390fd5b600073ffffffffffffffffffffffffffffffffffffffff168273ffffffffffffffffffffffffffffffffffffffff1603610ff1576040517f08c379a0000000000000000000000000000000000000000000000000000000008152600401610fe890612001565b60405180910390fd5b610ffc8383836116ff565b60008060008573ffffffffffffffffffffffffffffffffffffffff1673ffffffffffffffffffffffffffffffffffffffff16815260200190815260200160002054905081811015611082576040517f08c379a000000000000000000000000000000000000000000000000000000000815260040161107990612093565b60405180910390fd5b8181036000808673ffffffffffffffffffffffffffffffffffffffff1673ffffffffffffffffffffffffffffffffffffffff16815260200190815260200160002081905550816000808573ffffffffffffffffffffffffffffffffffffffff1673ffffffffffffffffffffffffffffffffffffffff168152602001908152602001600020600082825401925050819055508273ffffffffffffffffffffffffffffffffffffffff168473ffffffffffffffffffffffffffffffffffffffff167fddf252ad1be2c89b69c2b068fc378daa952ba7f163c4a11628f55a4df523b3ef846040516111709190611780565b60405180910390a3611183848484611704565b50505050565b611191610c6c565b73ffffffffffffffffffffffffffffffffffffffff166111af6108b7565b73ffffffffffffffffffffffffffffffffffffffff1614611205576040517f08c379a00000000000000000000000000000000000000000000000000000000081526004016111fc906120ff565b60405180910390fd5b565b61120f610781565b61124e576040517f08c379a00000000000000000000000000000000000000000000000000000000081526004016112459061216b565b60405180910390fd5b565b611258611207565b6000600560146101000a81548160ff0219169083151502179055507f5db9ee0a495bf2e6ff9c91a7834c1ba4fdd244a5e8aa4e537bd38aeae4b073aa61129c610c6c565b6040516112a991906119e7565b60405180910390a1565b600073ffffffffffffffffffffffffffffffffffffffff168273ffffffffffffffffffffffffffffffffffffffff1603611322576040517f08c379a0000000000000000000000000000000000000000000000000000000008152600401611319906121d7565b60405180910390fd5b61132e600083836116ff565b80600260008282546113409190611a71565b92505081905550806000808473ffffffffffffffffffffffffffffffffffffffff1673ffffffffffffffffffffffffffffffffffffffff168152602001908152602001600020600082825401925050819055508173ffffffffffffffffffffffffffffffffffffffff16600073ffffffffffffffffffffffffffffffffffffffff167fddf252ad1be2c89b69c2b068fc378daa952ba7f163c4a11628f55a4df523b3ef836040516113f19190611780565b60405180910390a361140560008383611704565b5050565b6000600560009054906101000a900473ffffffffffffffffffffffffffffffffffffffff16905081600560006101000a81548173ffffffffffffffffffffffffffffffffffffffff021916908373ffffffffffffffffffffffffffffffffffffffff1602179055508173ffffffffffffffffffffffffffffffffffffffff168173ffffffffffffffffffffffffffffffffffffffff167f8be0079c531659141344cd1fd0a4f28419497f9722a3daafe3b4186f6b6457e060405160405180910390a35050565b6114d7610e3d565b6001600560146101000a81548160ff0219169083151502179055507f62e78cea01bee320cd4e420270b5ea74000d11b0c9f74754ebdbfc544b05a25861151b610c6c565b60405161152891906119e7565b60405180910390a1565b600073ffffffffffffffffffffffffffffffffffffffff168273ffffffffffffffffffffffffffffffffffffffff16036115a1576040517f08c379a000000000000000000000000000000000000000000000000000000000815260040161159890612269565b60405180910390fd5b6115ad826000836116ff565b60008060008473ffffffffffffffffffffffffffffffffffffffff1673ffffffffffffffffffffffffffffffffffffffff16815260200190815260200160002054905081811015611633576040517f08c379a000000000000000000000000000000000000000000000000000000000815260040161162a906122fb565b60405180910390fd5b8181036000808573ffffffffffffffffffffffffffffffffffffffff1673ffffffffffffffffffffffffffffffffffffffff1681526020019081526020016000208190555081600260008282540392505081905550600073ffffffffffffffffffffffffffffffffffffffff168373ffffffffffffffffffffffffffffffffffffffff167fddf252ad1be2c89b69c2b068fc378daa952ba7f163c4a11628f55a4df523b3ef846040516116e69190611780565b60405180910390a36116fa83600084611704565b505050565b505050565b505050565b600080fd5b6000819050919050565b6117218161170e565b811461172c57600080fd5b50565b60008135905061173e81611718565b92915050565b60006020828403121561175a57611759611709565b5b60006117688482850161172f565b91505092915050565b61177a8161170e565b82525050565b60006020820190506117956000830184611771565b92915050565b600081519050919050565b600082825260208201905092915050565b60005b838110156117d55780820151818401526020810190506117ba565b60008484015250505050565b6000601f19601f8301169050919050565b60006117fd8261179b565b61180781856117a6565b93506118178185602086016117b7565b611820816117e1565b840191505092915050565b6000602082019050818103600083015261184581846117f2565b905092915050565b600073ffffffffffffffffffffffffffffffffffffffff82169050919050565b60006118788261184d565b9050919050565b6118888161186d565b811461189357600080fd5b50565b6000813590506118a58161187f565b92915050565b600080604083850312156118c2576118c1611709565b5b60006118d085828601611896565b92505060206118e18582860161172f565b9150509250929050565b60008115159050919050565b611900816118eb565b82525050565b600060208201905061191b60008301846118f7565b92915050565b60008060006060848603121561193a57611939611709565b5b600061194886828701611896565b935050602061195986828701611896565b925050604061196a8682870161172f565b9150509250925092565b600060ff82169050919050565b61198a81611974565b82525050565b60006020820190506119a56000830184611981565b92915050565b6000602082840312156119c1576119c0611709565b5b60006119cf84828501611896565b91505092915050565b6119e18161186d565b82525050565b60006020820190506119fc60008301846119d8565b92915050565b60008060408385031215611a1957611a18611709565b5b6000611a2785828601611896565b9250506020611a3885828601611896565b9150509250929050565b7f4e487b7100000000000000000000000000000000000000000000000000000000600052601160045260246000fd5b6000611a7c8261170e565b9150611a878361170e565b9250828201905080821115611a9f57611a9e611a42565b5b92915050565b7f4e487b7100000000000000000000000000000000000000000000000000000000600052602260045260246000fd5b60006002820490506001821680611aec57607f821691505b602082108103611aff57611afe611aa5565b5b50919050565b7f46726f6d204163636f756e74206973206c6f636b65642e000000000000000000600082015250565b6000611b3b6017836117a6565b9150611b4682611b05565b602082019050919050565b60006020820190508181036000830152611b6a81611b2e565b9050919050565b7f42616c616e636520697320746f6f20736d616c6c2e0000000000000000000000600082015250565b6000611ba76015836117a6565b9150611bb282611b71565b602082019050919050565b60006020820190508181036000830152611bd681611b9a565b9050919050565b7f45524332303a2064656372656173656420616c6c6f77616e63652062656c6f7760008201527f207a65726f000000000000000000000000000000000000000000000000000000602082015250565b6000611c396025836117a6565b9150611c4482611bdd565b604082019050919050565b60006020820190508181036000830152611c6881611c2c565b9050919050565b7f4f776e61626c653a206e6577206f776e657220697320746865207a65726f206160008201527f6464726573730000000000000000000000000000000000000000000000000000602082015250565b6000611ccb6026836117a6565b9150611cd682611c6f565b604082019050919050565b60006020820190508181036000830152611cfa81611cbe565b9050919050565b7f45524332303a20617070726f76652066726f6d20746865207a65726f2061646460008201527f7265737300000000000000000000000000000000000000000000000000000000602082015250565b6000611d5d6024836117a6565b9150611d6882611d01565b604082019050919050565b60006020820190508181036000830152611d8c81611d50565b9050919050565b7f45524332303a20617070726f766520746f20746865207a65726f20616464726560008201527f7373000000000000000000000000000000000000000000000000000000000000602082015250565b6000611def6022836117a6565b9150611dfa82611d93565b604082019050919050565b60006020820190508181036000830152611e1e81611de2565b9050919050565b7f5061757361626c653a2070617573656400000000000000000000000000000000600082015250565b6000611e5b6010836117a6565b9150611e6682611e25565b602082019050919050565b60006020820190508181036000830152611e8a81611e4e565b9050919050565b7f45524332303a20696e73756666696369656e7420616c6c6f77616e6365000000600082015250565b6000611ec7601d836117a6565b9150611ed282611e91565b602082019050919050565b60006020820190508181036000830152611ef681611eba565b9050919050565b7f45524332303a207472616e736665722066726f6d20746865207a65726f20616460008201527f6472657373000000000000000000000000000000000000000000000000000000602082015250565b6000611f596025836117a6565b9150611f6482611efd565b604082019050919050565b60006020820190508181036000830152611f8881611f4c565b9050919050565b7f45524332303a207472616e7366657220746f20746865207a65726f206164647260008201527f6573730000000000000000000000000000000000000000000000000000000000602082015250565b6000611feb6023836117a6565b9150611ff682611f8f565b604082019050919050565b6000602082019050818103600083015261201a81611fde565b9050919050565b7f45524332303a207472616e7366657220616d6f756e742065786365656473206260008201527f616c616e63650000000000000000000000000000000000000000000000000000602082015250565b600061207d6026836117a6565b915061208882612021565b604082019050919050565b600060208201905081810360008301526120ac81612070565b9050919050565b7f4f776e61626c653a2063616c6c6572206973206e6f7420746865206f776e6572600082015250565b60006120e96020836117a6565b91506120f4826120b3565b602082019050919050565b60006020820190508181036000830152612118816120dc565b9050919050565b7f5061757361626c653a206e6f7420706175736564000000000000000000000000600082015250565b60006121556014836117a6565b91506121608261211f565b602082019050919050565b6000602082019050818103600083015261218481612148565b9050919050565b7f45524332303a206d696e7420746f20746865207a65726f206164647265737300600082015250565b60006121c1601f836117a6565b91506121cc8261218b565b602082019050919050565b600060208201905081810360008301526121f0816121b4565b9050919050565b7f45524332303a206275726e2066726f6d20746865207a65726f2061646472657360008201527f7300000000000000000000000000000000000000000000000000000000000000602082015250565b60006122536021836117a6565b915061225e826121f7565b604082019050919050565b6000602082019050818103600083015261228281612246565b9050919050565b7f45524332303a206275726e20616d6f756e7420657863656564732062616c616e60008201527f6365000000000000000000000000000000000000000000000000000000000000602082015250565b60006122e56022836117a6565b91506122f082612289565b604082019050919050565b60006020820190508181036000830152612314816122d8565b905091905056fea264697066735822122049a474227604eb8ee925840dedfd003525c9c484c68e873616159e76bbd40eaf64736f6c63430008110033",
  "immutableReferences": {},
  "source": "// SPDX-License-Identifier: MIT\npragma solidity >=0.8.0 <0.9.0;\n\nimport \"@openzeppelin/contracts/utils/math/SafeMath.sol\";\nimport \"@openzeppelin/contracts/security/Pausable.sol\";\nimport \"@openzeppelin/contracts/token/ERC20/ERC20.sol\";\nimport \"@openzeppelin/contracts/access/Ownable.sol\";\n\ncontract DreamToken is ERC20, Ownable, Pausable {\n    using SafeMath for uint256;\n\n    uint256 private _totalSupply;\n    address private immutable _owner;\n    uint256 private initialSupply = 1000000000 * (10 ** uint256(decimals()));\n\n    constructor() ERC20(\"DreamToken\", \"DTK\") {\n        _owner = msg.sender;\n        _mint(msg.sender, initialSupply);\n    }\n\n    // freeze\n    event Frozen(address target);\n    event Unfrozen(address target);\n\n    mapping(address => bool) freezes;\n\n    modifier whenNotFrozen() {\n        require(!freezes[msg.sender], \"From Account is locked.\");\n        _;\n    }\n\n    function getMsgSender() public view returns (address) {\n        return _msgSender();\n    }\n\n    function mint(address _to, uint256 _value) public onlyOwner returns (bool) {\n        _mint(_to, _value);\n\n        return true;\n    }\n\n    function burn(address _address, uint256 _value) public onlyOwner {\n        require(_value <= balanceOf(_address), \"Balance is too small.\");\n\n        _burn(_address, _value);\n    }\n\n    function pause() public onlyOwner whenNotPaused {\n        _pause();\n    }\n\n    function unpause() public onlyOwner whenPaused {\n        _unpause();\n    }\n\n    function currentTime() public view returns (uint256) {\n        return block.timestamp;\n    }\n\n    function afterTime(uint256 _value) public view returns (uint256) {\n        return block.timestamp + _value;\n    }\n\n    function transfer(\n        address to,\n        uint256 amount\n    ) public override whenNotPaused whenNotFrozen returns (bool) {\n        address owner = _msgSender();\n        _transfer(owner, to, amount);\n        return true;\n    }\n\n    function transferFrom(\n        address from,\n        address to,\n        uint256 amount\n    ) public override whenNotPaused whenNotFrozen returns (bool) {\n        address spender = _msgSender();\n        _spendAllowance(from, spender, amount);\n        _transfer(from, to, amount);\n        return true;\n    }\n\n    function freeze(address _address) public onlyOwner {\n        freezes[_address] = true;\n        emit Frozen(_address);\n    }\n\n    function unfreeze(address _address) public onlyOwner {\n        freezes[_address] = false;\n        emit Unfrozen(_address);\n    }\n\n    function isFrozen(address _address) public view returns (bool) {\n        return freezes[_address];\n    }\n}\n",
  "sourcePath": "/Users/security/Desktop/klaytn/bccs/contracts/DreamToken.sol",
  "compiler": {
    "name": "solc",
    "version": "0.8.17+commit.8df45f5f.Emscripten.clang"
  },
  "schemaVersion": "3.4.10",
  "updatedAt": "2023-02-01T00:45:57.415Z",
  "networkType": "ethereum",
  "devdoc": {
    "kind": "dev",
    "methods": {
      "allowance(address,address)": {
        "details": "See {IERC20-allowance}."
      },
      "approve(address,uint256)": {
        "details": "See {IERC20-approve}. NOTE: If `amount` is the maximum `uint256`, the allowance is not updated on `transferFrom`. This is semantically equivalent to an infinite approval. Requirements: - `spender` cannot be the zero address."
      },
      "balanceOf(address)": {
        "details": "See {IERC20-balanceOf}."
      },
      "decimals()": {
        "details": "Returns the number of decimals used to get its user representation. For example, if `decimals` equals `2`, a balance of `505` tokens should be displayed to a user as `5.05` (`505 / 10 ** 2`). Tokens usually opt for a value of 18, imitating the relationship between Ether and Wei. This is the value {ERC20} uses, unless this function is overridden; NOTE: This information is only used for _display_ purposes: it in no way affects any of the arithmetic of the contract, including {IERC20-balanceOf} and {IERC20-transfer}."
      },
      "decreaseAllowance(address,uint256)": {
        "details": "Atomically decreases the allowance granted to `spender` by the caller. This is an alternative to {approve} that can be used as a mitigation for problems described in {IERC20-approve}. Emits an {Approval} event indicating the updated allowance. Requirements: - `spender` cannot be the zero address. - `spender` must have allowance for the caller of at least `subtractedValue`."
      },
      "increaseAllowance(address,uint256)": {
        "details": "Atomically increases the allowance granted to `spender` by the caller. This is an alternative to {approve} that can be used as a mitigation for problems described in {IERC20-approve}. Emits an {Approval} event indicating the updated allowance. Requirements: - `spender` cannot be the zero address."
      },
      "name()": {
        "details": "Returns the name of the token."
      },
      "owner()": {
        "details": "Returns the address of the current owner."
      },
      "paused()": {
        "details": "Returns true if the contract is paused, and false otherwise."
      },
      "renounceOwnership()": {
        "details": "Leaves the contract without owner. It will not be possible to call `onlyOwner` functions anymore. Can only be called by the current owner. NOTE: Renouncing ownership will leave the contract without an owner, thereby removing any functionality that is only available to the owner."
      },
      "symbol()": {
        "details": "Returns the symbol of the token, usually a shorter version of the name."
      },
      "totalSupply()": {
        "details": "See {IERC20-totalSupply}."
      },
      "transfer(address,uint256)": {
        "details": "See {IERC20-transfer}. Requirements: - `to` cannot be the zero address. - the caller must have a balance of at least `amount`."
      },
      "transferFrom(address,address,uint256)": {
        "details": "See {IERC20-transferFrom}. Emits an {Approval} event indicating the updated allowance. This is not required by the EIP. See the note at the beginning of {ERC20}. NOTE: Does not update the allowance if the current allowance is the maximum `uint256`. Requirements: - `from` and `to` cannot be the zero address. - `from` must have a balance of at least `amount`. - the caller must have allowance for ``from``'s tokens of at least `amount`."
      },
      "transferOwnership(address)": {
        "details": "Transfers ownership of the contract to a new account (`newOwner`). Can only be called by the current owner."
      }
    },
    "version": 1
  },
  "userdoc": {
    "kind": "user",
    "methods": {},
    "version": 1
  }
}