{
  "contractName": "NonFungibleToken",
  "abi": [
    {
      "inputs": [],
      "stateMutability": "nonpayable",
      "type": "constructor"
    },
    {
      "anonymous": false,
      "inputs": [
        {
          "indexed": true,
          "internalType": "address",
          "name": "owner",
          "type": "address"
        },
        {
          "indexed": true,
          "internalType": "address",
          "name": "approved",
          "type": "address"
        },
        {
          "indexed": true,
          "internalType": "uint256",
          "name": "tokenId",
          "type": "uint256"
        }
      ],
      "name": "Approval",
      "type": "event"
    },
    {
      "anonymous": false,
      "inputs": [
        {
          "indexed": true,
          "internalType": "address",
          "name": "owner",
          "type": "address"
        },
        {
          "indexed": true,
          "internalType": "address",
          "name": "operator",
          "type": "address"
        },
        {
          "indexed": false,
          "internalType": "bool",
          "name": "approved",
          "type": "bool"
        }
      ],
      "name": "ApprovalForAll",
      "type": "event"
    },
    {
      "anonymous": false,
      "inputs": [
        {
          "indexed": true,
          "internalType": "address",
          "name": "delegator",
          "type": "address"
        },
        {
          "indexed": true,
          "internalType": "address",
          "name": "fromDelegate",
          "type": "address"
        },
        {
          "indexed": true,
          "internalType": "address",
          "name": "toDelegate",
          "type": "address"
        }
      ],
      "name": "DelegateChanged",
      "type": "event"
    },
    {
      "anonymous": false,
      "inputs": [
        {
          "indexed": true,
          "internalType": "address",
          "name": "delegate",
          "type": "address"
        },
        {
          "indexed": false,
          "internalType": "uint256",
          "name": "previousBalance",
          "type": "uint256"
        },
        {
          "indexed": false,
          "internalType": "uint256",
          "name": "newBalance",
          "type": "uint256"
        }
      ],
      "name": "DelegateVotesChanged",
      "type": "event"
    },
    {
      "anonymous": false,
      "inputs": [
        {
          "indexed": true,
          "internalType": "address",
          "name": "previousOwner",
          "type": "address"
        },
        {
          "indexed": true,
          "internalType": "address",
          "name": "newOwner",
          "type": "address"
        }
      ],
      "name": "OwnershipTransferred",
      "type": "event"
    },
    {
      "anonymous": false,
      "inputs": [
        {
          "indexed": false,
          "internalType": "address",
          "name": "account",
          "type": "address"
        }
      ],
      "name": "Paused",
      "type": "event"
    },
    {
      "anonymous": false,
      "inputs": [
        {
          "indexed": true,
          "internalType": "address",
          "name": "from",
          "type": "address"
        },
        {
          "indexed": true,
          "internalType": "address",
          "name": "to",
          "type": "address"
        },
        {
          "indexed": true,
          "internalType": "uint256",
          "name": "tokenId",
          "type": "uint256"
        }
      ],
      "name": "Transfer",
      "type": "event"
    },
    {
      "anonymous": false,
      "inputs": [
        {
          "indexed": false,
          "internalType": "address",
          "name": "account",
          "type": "address"
        }
      ],
      "name": "Unpaused",
      "type": "event"
    },
    {
      "inputs": [],
      "name": "DOMAIN_SEPARATOR",
      "outputs": [
        {
          "internalType": "bytes32",
          "name": "",
          "type": "bytes32"
        }
      ],
      "stateMutability": "view",
      "type": "function",
      "constant": true
    },
    {
      "inputs": [
        {
          "internalType": "address",
          "name": "to",
          "type": "address"
        },
        {
          "internalType": "uint256",
          "name": "tokenId",
          "type": "uint256"
        }
      ],
      "name": "approve",
      "outputs": [],
      "stateMutability": "nonpayable",
      "type": "function"
    },
    {
      "inputs": [
        {
          "internalType": "address",
          "name": "owner",
          "type": "address"
        }
      ],
      "name": "balanceOf",
      "outputs": [
        {
          "internalType": "uint256",
          "name": "",
          "type": "uint256"
        }
      ],
      "stateMutability": "view",
      "type": "function",
      "constant": true
    },
    {
      "inputs": [
        {
          "internalType": "uint256",
          "name": "tokenId",
          "type": "uint256"
        }
      ],
      "name": "burn",
      "outputs": [],
      "stateMutability": "nonpayable",
      "type": "function"
    },
    {
      "inputs": [
        {
          "internalType": "address",
          "name": "delegatee",
          "type": "address"
        }
      ],
      "name": "delegate",
      "outputs": [],
      "stateMutability": "nonpayable",
      "type": "function"
    },
    {
      "inputs": [
        {
          "internalType": "address",
          "name": "delegatee",
          "type": "address"
        },
        {
          "internalType": "uint256",
          "name": "nonce",
          "type": "uint256"
        },
        {
          "internalType": "uint256",
          "name": "expiry",
          "type": "uint256"
        },
        {
          "internalType": "uint8",
          "name": "v",
          "type": "uint8"
        },
        {
          "internalType": "bytes32",
          "name": "r",
          "type": "bytes32"
        },
        {
          "internalType": "bytes32",
          "name": "s",
          "type": "bytes32"
        }
      ],
      "name": "delegateBySig",
      "outputs": [],
      "stateMutability": "nonpayable",
      "type": "function"
    },
    {
      "inputs": [
        {
          "internalType": "address",
          "name": "account",
          "type": "address"
        }
      ],
      "name": "delegates",
      "outputs": [
        {
          "internalType": "address",
          "name": "",
          "type": "address"
        }
      ],
      "stateMutability": "view",
      "type": "function",
      "constant": true
    },
    {
      "inputs": [
        {
          "internalType": "uint256",
          "name": "tokenId",
          "type": "uint256"
        }
      ],
      "name": "getApproved",
      "outputs": [
        {
          "internalType": "address",
          "name": "",
          "type": "address"
        }
      ],
      "stateMutability": "view",
      "type": "function",
      "constant": true
    },
    {
      "inputs": [
        {
          "internalType": "uint256",
          "name": "blockNumber",
          "type": "uint256"
        }
      ],
      "name": "getPastTotalSupply",
      "outputs": [
        {
          "internalType": "uint256",
          "name": "",
          "type": "uint256"
        }
      ],
      "stateMutability": "view",
      "type": "function",
      "constant": true
    },
    {
      "inputs": [
        {
          "internalType": "address",
          "name": "account",
          "type": "address"
        },
        {
          "internalType": "uint256",
          "name": "blockNumber",
          "type": "uint256"
        }
      ],
      "name": "getPastVotes",
      "outputs": [
        {
          "internalType": "uint256",
          "name": "",
          "type": "uint256"
        }
      ],
      "stateMutability": "view",
      "type": "function",
      "constant": true
    },
    {
      "inputs": [
        {
          "internalType": "address",
          "name": "account",
          "type": "address"
        }
      ],
      "name": "getVotes",
      "outputs": [
        {
          "internalType": "uint256",
          "name": "",
          "type": "uint256"
        }
      ],
      "stateMutability": "view",
      "type": "function",
      "constant": true
    },
    {
      "inputs": [
        {
          "internalType": "address",
          "name": "owner",
          "type": "address"
        },
        {
          "internalType": "address",
          "name": "operator",
          "type": "address"
        }
      ],
      "name": "isApprovedForAll",
      "outputs": [
        {
          "internalType": "bool",
          "name": "",
          "type": "bool"
        }
      ],
      "stateMutability": "view",
      "type": "function",
      "constant": true
    },
    {
      "inputs": [],
      "name": "name",
      "outputs": [
        {
          "internalType": "string",
          "name": "",
          "type": "string"
        }
      ],
      "stateMutability": "view",
      "type": "function",
      "constant": true
    },
    {
      "inputs": [
        {
          "internalType": "address",
          "name": "owner",
          "type": "address"
        }
      ],
      "name": "nonces",
      "outputs": [
        {
          "internalType": "uint256",
          "name": "",
          "type": "uint256"
        }
      ],
      "stateMutability": "view",
      "type": "function",
      "constant": true
    },
    {
      "inputs": [],
      "name": "owner",
      "outputs": [
        {
          "internalType": "address",
          "name": "",
          "type": "address"
        }
      ],
      "stateMutability": "view",
      "type": "function",
      "constant": true
    },
    {
      "inputs": [
        {
          "internalType": "uint256",
          "name": "tokenId",
          "type": "uint256"
        }
      ],
      "name": "ownerOf",
      "outputs": [
        {
          "internalType": "address",
          "name": "",
          "type": "address"
        }
      ],
      "stateMutability": "view",
      "type": "function",
      "constant": true
    },
    {
      "inputs": [],
      "name": "paused",
      "outputs": [
        {
          "internalType": "bool",
          "name": "",
          "type": "bool"
        }
      ],
      "stateMutability": "view",
      "type": "function",
      "constant": true
    },
    {
      "inputs": [],
      "name": "renounceOwnership",
      "outputs": [],
      "stateMutability": "nonpayable",
      "type": "function"
    },
    {
      "inputs": [
        {
          "internalType": "address",
          "name": "from",
          "type": "address"
        },
        {
          "internalType": "address",
          "name": "to",
          "type": "address"
        },
        {
          "internalType": "uint256",
          "name": "tokenId",
          "type": "uint256"
        }
      ],
      "name": "safeTransferFrom",
      "outputs": [],
      "stateMutability": "nonpayable",
      "type": "function"
    },
    {
      "inputs": [
        {
          "internalType": "address",
          "name": "from",
          "type": "address"
        },
        {
          "internalType": "address",
          "name": "to",
          "type": "address"
        },
        {
          "internalType": "uint256",
          "name": "tokenId",
          "type": "uint256"
        },
        {
          "internalType": "bytes",
          "name": "data",
          "type": "bytes"
        }
      ],
      "name": "safeTransferFrom",
      "outputs": [],
      "stateMutability": "nonpayable",
      "type": "function"
    },
    {
      "inputs": [
        {
          "internalType": "address",
          "name": "operator",
          "type": "address"
        },
        {
          "internalType": "bool",
          "name": "approved",
          "type": "bool"
        }
      ],
      "name": "setApprovalForAll",
      "outputs": [],
      "stateMutability": "nonpayable",
      "type": "function"
    },
    {
      "inputs": [],
      "name": "symbol",
      "outputs": [
        {
          "internalType": "string",
          "name": "",
          "type": "string"
        }
      ],
      "stateMutability": "view",
      "type": "function",
      "constant": true
    },
    {
      "inputs": [
        {
          "internalType": "uint256",
          "name": "index",
          "type": "uint256"
        }
      ],
      "name": "tokenByIndex",
      "outputs": [
        {
          "internalType": "uint256",
          "name": "",
          "type": "uint256"
        }
      ],
      "stateMutability": "view",
      "type": "function",
      "constant": true
    },
    {
      "inputs": [
        {
          "internalType": "address",
          "name": "owner",
          "type": "address"
        },
        {
          "internalType": "uint256",
          "name": "index",
          "type": "uint256"
        }
      ],
      "name": "tokenOfOwnerByIndex",
      "outputs": [
        {
          "internalType": "uint256",
          "name": "",
          "type": "uint256"
        }
      ],
      "stateMutability": "view",
      "type": "function",
      "constant": true
    },
    {
      "inputs": [],
      "name": "totalSupply",
      "outputs": [
        {
          "internalType": "uint256",
          "name": "",
          "type": "uint256"
        }
      ],
      "stateMutability": "view",
      "type": "function",
      "constant": true
    },
    {
      "inputs": [
        {
          "internalType": "address",
          "name": "from",
          "type": "address"
        },
        {
          "internalType": "address",
          "name": "to",
          "type": "address"
        },
        {
          "internalType": "uint256",
          "name": "tokenId",
          "type": "uint256"
        }
      ],
      "name": "transferFrom",
      "outputs": [],
      "stateMutability": "nonpayable",
      "type": "function"
    },
    {
      "inputs": [
        {
          "internalType": "address",
          "name": "newOwner",
          "type": "address"
        }
      ],
      "name": "transferOwnership",
      "outputs": [],
      "stateMutability": "nonpayable",
      "type": "function"
    },
    {
      "inputs": [],
      "name": "pause",
      "outputs": [],
      "stateMutability": "nonpayable",
      "type": "function"
    },
    {
      "inputs": [],
      "name": "unpause",
      "outputs": [],
      "stateMutability": "nonpayable",
      "type": "function"
    },
    {
      "inputs": [
        {
          "internalType": "address",
          "name": "to",
          "type": "address"
        },
        {
          "internalType": "string",
          "name": "uri",
          "type": "string"
        }
      ],
      "name": "safeMint",
      "outputs": [],
      "stateMutability": "nonpayable",
      "type": "function"
    },
    {
      "inputs": [
        {
          "internalType": "uint256",
          "name": "tokenId",
          "type": "uint256"
        }
      ],
      "name": "tokenURI",
      "outputs": [
        {
          "internalType": "string",
          "name": "",
          "type": "string"
        }
      ],
      "stateMutability": "view",
      "type": "function",
      "constant": true
    },
    {
      "inputs": [
        {
          "internalType": "bytes4",
          "name": "interfaceId",
          "type": "bytes4"
        }
      ],
      "name": "supportsInterface",
      "outputs": [
        {
          "internalType": "bool",
          "name": "",
          "type": "bool"
        }
      ],
      "stateMutability": "view",
      "type": "function",
      "constant": true
    }
  ],
  "bytecode": "0x6101406040523480156200001257600080fd5b506040518060400160405280601081526020017f4e6f6e46756e6769626c65546f6b656e000000000000000000000000000000008152506040518060400160405280600181526020017f31000000000000000000000000000000000000000000000000000000000000008152506040518060400160405280601081526020017f4e6f6e46756e6769626c65546f6b656e000000000000000000000000000000008152506040518060400160405280600381526020017f4e465400000000000000000000000000000000000000000000000000000000008152508160009081620000fc919062000588565b5080600190816200010e919062000588565b5050506000600b60006101000a81548160ff0219169083151502179055506200014c620001406200020460201b60201c565b6200020c60201b60201c565b60008280519060200120905060008280519060200120905060007f8b73c3c69bb8fe3d512ecc4cf759cc79239f7b179b0ffacaa9a75d522b39400f90508260e081815250508161010081815250504660a08181525050620001b5818484620002d260201b60201c565b608081815250503073ffffffffffffffffffffffffffffffffffffffff1660c08173ffffffffffffffffffffffffffffffffffffffff168152505080610120818152505050505050506200073d565b600033905090565b6000600b60019054906101000a900473ffffffffffffffffffffffffffffffffffffffff16905081600b60016101000a81548173ffffffffffffffffffffffffffffffffffffffff021916908373ffffffffffffffffffffffffffffffffffffffff1602179055508173ffffffffffffffffffffffffffffffffffffffff168173ffffffffffffffffffffffffffffffffffffffff167f8be0079c531659141344cd1fd0a4f28419497f9722a3daafe3b4186f6b6457e060405160405180910390a35050565b60008383834630604051602001620002ef959493929190620006e0565b6040516020818303038152906040528051906020012090509392505050565b600081519050919050565b7f4e487b7100000000000000000000000000000000000000000000000000000000600052604160045260246000fd5b7f4e487b7100000000000000000000000000000000000000000000000000000000600052602260045260246000fd5b600060028204905060018216806200039057607f821691505b602082108103620003a657620003a562000348565b5b50919050565b60008190508160005260206000209050919050565b60006020601f8301049050919050565b600082821b905092915050565b600060088302620004107fffffffffffffffffffffffffffffffffffffffffffffffffffffffffffffffff82620003d1565b6200041c8683620003d1565b95508019841693508086168417925050509392505050565b6000819050919050565b6000819050919050565b600062000469620004636200045d8462000434565b6200043e565b62000434565b9050919050565b6000819050919050565b620004858362000448565b6200049d620004948262000470565b848454620003de565b825550505050565b600090565b620004b4620004a5565b620004c18184846200047a565b505050565b5b81811015620004e957620004dd600082620004aa565b600181019050620004c7565b5050565b601f82111562000538576200050281620003ac565b6200050d84620003c1565b810160208510156200051d578190505b620005356200052c85620003c1565b830182620004c6565b50505b505050565b600082821c905092915050565b60006200055d600019846008026200053d565b1980831691505092915050565b60006200057883836200054a565b9150826002028217905092915050565b62000593826200030e565b67ffffffffffffffff811115620005af57620005ae62000319565b5b620005bb825462000377565b620005c8828285620004ed565b600060209050601f831160018114620006005760008415620005eb578287015190505b620005f785826200056a565b86555062000667565b601f1984166200061086620003ac565b60005b828110156200063a5784890151825560018201915060208501945060208101905062000613565b868310156200065a578489015162000656601f8916826200054a565b8355505b6001600288020188555050505b505050505050565b6000819050919050565b62000684816200066f565b82525050565b620006958162000434565b82525050565b600073ffffffffffffffffffffffffffffffffffffffff82169050919050565b6000620006c8826200069b565b9050919050565b620006da81620006bb565b82525050565b600060a082019050620006f7600083018862000679565b62000706602083018762000679565b62000715604083018662000679565b6200072460608301856200068a565b620007336080830184620006cf565b9695505050505050565b60805160a05160c05160e0516101005161012051615d326200078d6000396000611741015260006117830152600061176201526000611697015260006116ed015260006117160152615d326000f3fe608060405234801561001057600080fd5b50600436106101f05760003560e01c80636352211e1161010f5780639ab24eb0116100a2578063c87b56dd11610071578063c87b56dd146105b7578063d204c45e146105e7578063e985e9c514610603578063f2fde38b14610633576101f0565b80639ab24eb014610533578063a22cb46514610563578063b88d4fde1461057f578063c3cda5201461059b576101f0565b80638456cb59116100de5780638456cb59146104bd5780638da5cb5b146104c75780638e539e8c146104e557806395d89b4114610515576101f0565b80636352211e1461042357806370a0823114610453578063715018a6146104835780637ecebe001461048d576101f0565b80633a46b1a8116101875780634f6ccce7116101565780634f6ccce714610389578063587cde1e146103b95780635c19a95c146103e95780635c975abb14610405576101f0565b80633a46b1a8146103175780633f4ba83a1461034757806342842e0e1461035157806342966c681461036d576101f0565b806318160ddd116101c357806318160ddd1461028f57806323b872dd146102ad5780632f745c59146102c95780633644e515146102f9576101f0565b806301ffc9a7146101f557806306fdde0314610225578063081812fc14610243578063095ea7b314610273575b600080fd5b61020f600480360381019061020a9190613fb7565b61064f565b60405161021c9190613fff565b60405180910390f35b61022d610661565b60405161023a91906140aa565b60405180910390f35b61025d60048036038101906102589190614102565b6106f3565b60405161026a9190614170565b60405180910390f35b61028d600480360381019061028891906141b7565b610739565b005b610297610850565b6040516102a49190614206565b60405180910390f35b6102c760048036038101906102c29190614221565b61085d565b005b6102e360048036038101906102de91906141b7565b6108bd565b6040516102f09190614206565b60405180910390f35b610301610962565b60405161030e919061428d565b60405180910390f35b610331600480360381019061032c91906141b7565b610971565b60405161033e9190614206565b60405180910390f35b61034f6109cc565b005b61036b60048036038101906103669190614221565b6109de565b005b61038760048036038101906103829190614102565b6109fe565b005b6103a3600480360381019061039e9190614102565b610a5a565b6040516103b09190614206565b60405180910390f35b6103d360048036038101906103ce91906142a8565b610acb565b6040516103e09190614170565b60405180910390f35b61040360048036038101906103fe91906142a8565b610b34565b005b61040d610b4e565b60405161041a9190613fff565b60405180910390f35b61043d60048036038101906104389190614102565b610b65565b60405161044a9190614170565b60405180910390f35b61046d600480360381019061046891906142a8565b610beb565b60405161047a9190614206565b60405180910390f35b61048b610ca2565b005b6104a760048036038101906104a291906142a8565b610cb6565b6040516104b49190614206565b60405180910390f35b6104c5610d06565b005b6104cf610d18565b6040516104dc9190614170565b60405180910390f35b6104ff60048036038101906104fa9190614102565b610d42565b60405161050c9190614206565b60405180910390f35b61051d610da1565b60405161052a91906140aa565b60405180910390f35b61054d600480360381019061054891906142a8565b610e33565b60405161055a9190614206565b60405180910390f35b61057d60048036038101906105789190614301565b610ea1565b005b61059960048036038101906105949190614476565b610eb7565b005b6105b560048036038101906105b0919061455e565b610f19565b005b6105d160048036038101906105cc9190614102565b61101d565b6040516105de91906140aa565b60405180910390f35b61060160048036038101906105fc919061468c565b61102f565b005b61061d600480360381019061061891906146e8565b611068565b60405161062a9190613fff565b60405180910390f35b61064d600480360381019061064891906142a8565b6110fc565b005b600061065a8261117f565b9050919050565b60606000805461067090614757565b80601f016020809104026020016040519081016040528092919081815260200182805461069c90614757565b80156106e95780601f106106be576101008083540402835291602001916106e9565b820191906000526020600020905b8154815290600101906020018083116106cc57829003601f168201915b5050505050905090565b60006106fe826111f9565b6004600083815260200190815260200160002060009054906101000a900473ffffffffffffffffffffffffffffffffffffffff169050919050565b600061074482610b65565b90508073ffffffffffffffffffffffffffffffffffffffff168373ffffffffffffffffffffffffffffffffffffffff16036107b4576040517f08c379a00000000000000000000000000000000000000000000000000000000081526004016107ab906147fa565b60405180910390fd5b8073ffffffffffffffffffffffffffffffffffffffff166107d3611244565b73ffffffffffffffffffffffffffffffffffffffff1614806108025750610801816107fc611244565b611068565b5b610841576040517f08c379a00000000000000000000000000000000000000000000000000000000081526004016108389061488c565b60405180910390fd5b61084b838361124c565b505050565b6000600880549050905090565b61086e610868611244565b82611305565b6108ad576040517f08c379a00000000000000000000000000000000000000000000000000000000081526004016108a49061491e565b60405180910390fd5b6108b883838361139a565b505050565b60006108c883610beb565b8210610909576040517f08c379a0000000000000000000000000000000000000000000000000000000008152600401610900906149b0565b60405180910390fd5b600660008473ffffffffffffffffffffffffffffffffffffffff1673ffffffffffffffffffffffffffffffffffffffff168152602001908152602001600020600083815260200190815260200160002054905092915050565b600061096c611693565b905090565b60006109c482600d60008673ffffffffffffffffffffffffffffffffffffffff1673ffffffffffffffffffffffffffffffffffffffff1681526020019081526020016000206117ad90919063ffffffff16565b905092915050565b6109d4611912565b6109dc611990565b565b6109f983838360405180602001604052806000815250610eb7565b505050565b610a0f610a09611244565b82611305565b610a4e576040517f08c379a0000000000000000000000000000000000000000000000000000000008152600401610a459061491e565b60405180910390fd5b610a57816119f3565b50565b6000610a64610850565b8210610aa5576040517f08c379a0000000000000000000000000000000000000000000000000000000008152600401610a9c90614a42565b60405180910390fd5b60088281548110610ab957610ab8614a62565b5b90600052602060002001549050919050565b6000600c60008373ffffffffffffffffffffffffffffffffffffffff1673ffffffffffffffffffffffffffffffffffffffff16815260200190815260200160002060009054906101000a900473ffffffffffffffffffffffffffffffffffffffff169050919050565b6000610b3e611244565b9050610b4a81836119ff565b5050565b6000600b60009054906101000a900460ff16905090565b600080610b7183611b13565b9050600073ffffffffffffffffffffffffffffffffffffffff168173ffffffffffffffffffffffffffffffffffffffff1603610be2576040517f08c379a0000000000000000000000000000000000000000000000000000000008152600401610bd990614add565b60405180910390fd5b80915050919050565b60008073ffffffffffffffffffffffffffffffffffffffff168273ffffffffffffffffffffffffffffffffffffffff1603610c5b576040517f08c379a0000000000000000000000000000000000000000000000000000000008152600401610c5290614b6f565b60405180910390fd5b600360008373ffffffffffffffffffffffffffffffffffffffff1673ffffffffffffffffffffffffffffffffffffffff168152602001908152602001600020549050919050565b610caa611912565b610cb46000611b50565b565b6000610cff600f60008473ffffffffffffffffffffffffffffffffffffffff1673ffffffffffffffffffffffffffffffffffffffff168152602001908152602001600020611c16565b9050919050565b610d0e611912565b610d16611c24565b565b6000600b60019054906101000a900473ffffffffffffffffffffffffffffffffffffffff16905090565b6000438210610d86576040517f08c379a0000000000000000000000000000000000000000000000000000000008152600401610d7d90614bdb565b60405180910390fd5b610d9a82600e6117ad90919063ffffffff16565b9050919050565b606060018054610db090614757565b80601f0160208091040260200160405190810160405280929190818152602001828054610ddc90614757565b8015610e295780601f10610dfe57610100808354040283529160200191610e29565b820191906000526020600020905b815481529060010190602001808311610e0c57829003601f168201915b5050505050905090565b6000610e7c600d60008473ffffffffffffffffffffffffffffffffffffffff1673ffffffffffffffffffffffffffffffffffffffff168152602001908152602001600020611c87565b7bffffffffffffffffffffffffffffffffffffffffffffffffffffffff169050919050565b610eb3610eac611244565b8383611cf1565b5050565b610ec8610ec2611244565b83611305565b610f07576040517f08c379a0000000000000000000000000000000000000000000000000000000008152600401610efe9061491e565b60405180910390fd5b610f1384848484611e5d565b50505050565b83421115610f5c576040517f08c379a0000000000000000000000000000000000000000000000000000000008152600401610f5390614c47565b60405180910390fd5b6000610fbe610fb67fe48329057bfd03d55e49b547132e39cffd9c1820ad7b9d4c5307691425d15adf898989604051602001610f9b9493929190614c67565b60405160208183030381529060405280519060200120611eb9565b858585611ed3565b9050610fc981611efe565b861461100a576040517f08c379a000000000000000000000000000000000000000000000000000000000815260040161100190614cf8565b60405180910390fd5b61101481886119ff565b50505050505050565b606061102882611f5c565b9050919050565b611037611912565b60006110436010611c16565b905061104f601061206e565b6110598382612084565b61106381836120a2565b505050565b6000600560008473ffffffffffffffffffffffffffffffffffffffff1673ffffffffffffffffffffffffffffffffffffffff16815260200190815260200160002060008373ffffffffffffffffffffffffffffffffffffffff1673ffffffffffffffffffffffffffffffffffffffff16815260200190815260200160002060009054906101000a900460ff16905092915050565b611104611912565b600073ffffffffffffffffffffffffffffffffffffffff168173ffffffffffffffffffffffffffffffffffffffff1603611173576040517f08c379a000000000000000000000000000000000000000000000000000000000815260040161116a90614d8a565b60405180910390fd5b61117c81611b50565b50565b60007f780e9d63000000000000000000000000000000000000000000000000000000007bffffffffffffffffffffffffffffffffffffffffffffffffffffffff1916827bffffffffffffffffffffffffffffffffffffffffffffffffffffffff191614806111f257506111f18261210f565b5b9050919050565b611202816121f1565b611241576040517f08c379a000000000000000000000000000000000000000000000000000000000815260040161123890614add565b60405180910390fd5b50565b600033905090565b816004600083815260200190815260200160002060006101000a81548173ffffffffffffffffffffffffffffffffffffffff021916908373ffffffffffffffffffffffffffffffffffffffff160217905550808273ffffffffffffffffffffffffffffffffffffffff166112bf83610b65565b73ffffffffffffffffffffffffffffffffffffffff167f8c5be1e5ebec7d5bd14f71427d1e84f3dd0314c0f7b2291e5b200ac8c7c3b92560405160405180910390a45050565b60008061131183610b65565b90508073ffffffffffffffffffffffffffffffffffffffff168473ffffffffffffffffffffffffffffffffffffffff16148061135357506113528185611068565b5b8061139157508373ffffffffffffffffffffffffffffffffffffffff16611379846106f3565b73ffffffffffffffffffffffffffffffffffffffff16145b91505092915050565b8273ffffffffffffffffffffffffffffffffffffffff166113ba82610b65565b73ffffffffffffffffffffffffffffffffffffffff1614611410576040517f08c379a000000000000000000000000000000000000000000000000000000000815260040161140790614e1c565b60405180910390fd5b600073ffffffffffffffffffffffffffffffffffffffff168273ffffffffffffffffffffffffffffffffffffffff160361147f576040517f08c379a000000000000000000000000000000000000000000000000000000000815260040161147690614eae565b60405180910390fd5b61148c8383836001612232565b8273ffffffffffffffffffffffffffffffffffffffff166114ac82610b65565b73ffffffffffffffffffffffffffffffffffffffff1614611502576040517f08c379a00000000000000000000000000000000000000000000000000000000081526004016114f990614e1c565b60405180910390fd5b6004600082815260200190815260200160002060006101000a81549073ffffffffffffffffffffffffffffffffffffffff02191690556001600360008573ffffffffffffffffffffffffffffffffffffffff1673ffffffffffffffffffffffffffffffffffffffff168152602001908152602001600020600082825403925050819055506001600360008473ffffffffffffffffffffffffffffffffffffffff1673ffffffffffffffffffffffffffffffffffffffff16815260200190815260200160002060008282540192505081905550816002600083815260200190815260200160002060006101000a81548173ffffffffffffffffffffffffffffffffffffffff021916908373ffffffffffffffffffffffffffffffffffffffff160217905550808273ffffffffffffffffffffffffffffffffffffffff168473ffffffffffffffffffffffffffffffffffffffff167fddf252ad1be2c89b69c2b068fc378daa952ba7f163c4a11628f55a4df523b3ef60405160405180910390a461168e838383600161224c565b505050565b60007f000000000000000000000000000000000000000000000000000000000000000073ffffffffffffffffffffffffffffffffffffffff163073ffffffffffffffffffffffffffffffffffffffff1614801561170f57507f000000000000000000000000000000000000000000000000000000000000000046145b1561173c577f000000000000000000000000000000000000000000000000000000000000000090506117aa565b6117a77f00000000000000000000000000000000000000000000000000000000000000007f00000000000000000000000000000000000000000000000000000000000000007f000000000000000000000000000000000000000000000000000000000000000061225e565b90505b90565b60004382106117f1576040517f08c379a00000000000000000000000000000000000000000000000000000000081526004016117e890614f1a565b60405180910390fd5b60006117fc83612298565b9050600084600001805490509050600080829050600583111561187f576000611824846122eb565b8461182f9190614f69565b905061183e88600001826123e4565b60000160009054906101000a900463ffffffff1663ffffffff168563ffffffff16101561186d5780915061187d565b60018161187a9190614f9d565b92505b505b6000611890886000018685856123f9565b9050600081146118e4576118b3886000016001836118ae9190614f69565b6123e4565b60000160049054906101000a90047bffffffffffffffffffffffffffffffffffffffffffffffffffffffff166118e7565b60005b7bffffffffffffffffffffffffffffffffffffffffffffffffffffffff169550505050505092915050565b61191a611244565b73ffffffffffffffffffffffffffffffffffffffff16611938610d18565b73ffffffffffffffffffffffffffffffffffffffff161461198e576040517f08c379a00000000000000000000000000000000000000000000000000000000081526004016119859061501d565b60405180910390fd5b565b61199861246c565b6000600b60006101000a81548160ff0219169083151502179055507f5db9ee0a495bf2e6ff9c91a7834c1ba4fdd244a5e8aa4e537bd38aeae4b073aa6119dc611244565b6040516119e99190614170565b60405180910390a1565b6119fc816124b5565b50565b6000611a0a83610acb565b905081600c60008573ffffffffffffffffffffffffffffffffffffffff1673ffffffffffffffffffffffffffffffffffffffff16815260200190815260200160002060006101000a81548173ffffffffffffffffffffffffffffffffffffffff021916908373ffffffffffffffffffffffffffffffffffffffff1602179055508173ffffffffffffffffffffffffffffffffffffffff168173ffffffffffffffffffffffffffffffffffffffff168473ffffffffffffffffffffffffffffffffffffffff167f3134e8a2e6d97e929a7e54011ea5485d7d196dd5f0ba4d4ef95803e8e3fc257f60405160405180910390a4611b0e8183611b0986612508565b61251a565b505050565b60006002600083815260200190815260200160002060009054906101000a900473ffffffffffffffffffffffffffffffffffffffff169050919050565b6000600b60019054906101000a900473ffffffffffffffffffffffffffffffffffffffff16905081600b60016101000a81548173ffffffffffffffffffffffffffffffffffffffff021916908373ffffffffffffffffffffffffffffffffffffffff1602179055508173ffffffffffffffffffffffffffffffffffffffff168173ffffffffffffffffffffffffffffffffffffffff167f8be0079c531659141344cd1fd0a4f28419497f9722a3daafe3b4186f6b6457e060405160405180910390a35050565b600081600001549050919050565b611c2c612727565b6001600b60006101000a81548160ff0219169083151502179055507f62e78cea01bee320cd4e420270b5ea74000d11b0c9f74754ebdbfc544b05a258611c70611244565b604051611c7d9190614170565b60405180910390a1565b6000808260000180549050905060008114611ce657611cb583600001600183611cb09190614f69565b6123e4565b60000160049054906101000a90047bffffffffffffffffffffffffffffffffffffffffffffffffffffffff16611ce9565b60005b915050919050565b8173ffffffffffffffffffffffffffffffffffffffff168373ffffffffffffffffffffffffffffffffffffffff1603611d5f576040517f08c379a0000000000000000000000000000000000000000000000000000000008152600401611d5690615089565b60405180910390fd5b80600560008573ffffffffffffffffffffffffffffffffffffffff1673ffffffffffffffffffffffffffffffffffffffff16815260200190815260200160002060008473ffffffffffffffffffffffffffffffffffffffff1673ffffffffffffffffffffffffffffffffffffffff16815260200190815260200160002060006101000a81548160ff0219169083151502179055508173ffffffffffffffffffffffffffffffffffffffff168373ffffffffffffffffffffffffffffffffffffffff167f17307eab39ab6107e8899845ad3d59bd9653f200f220920489ca2b5937696c3183604051611e509190613fff565b60405180910390a3505050565b611e6884848461139a565b611e7484848484612771565b611eb3576040517f08c379a0000000000000000000000000000000000000000000000000000000008152600401611eaa9061511b565b60405180910390fd5b50505050565b6000611ecc611ec6611693565b836128f8565b9050919050565b6000806000611ee48787878761292b565b91509150611ef181612a0d565b8192505050949350505050565b600080600f60008473ffffffffffffffffffffffffffffffffffffffff1673ffffffffffffffffffffffffffffffffffffffff1681526020019081526020016000209050611f4b81611c16565b9150611f568161206e565b50919050565b6060611f67826111f9565b6000600a60008481526020019081526020016000208054611f8790614757565b80601f0160208091040260200160405190810160405280929190818152602001828054611fb390614757565b80156120005780601f10611fd557610100808354040283529160200191612000565b820191906000526020600020905b815481529060010190602001808311611fe357829003601f168201915b505050505090506000612011612b73565b90506000815103612026578192505050612069565b60008251111561205b578082604051602001612043929190615177565b60405160208183030381529060405292505050612069565b61206484612bb0565b925050505b919050565b6001816000016000828254019250508190555050565b61209e828260405180602001604052806000815250612c18565b5050565b6120ab826121f1565b6120ea576040517f08c379a00000000000000000000000000000000000000000000000000000000081526004016120e19061520d565b60405180910390fd5b80600a6000848152602001908152602001600020908161210a91906153d9565b505050565b60007f80ac58cd000000000000000000000000000000000000000000000000000000007bffffffffffffffffffffffffffffffffffffffffffffffffffffffff1916827bffffffffffffffffffffffffffffffffffffffffffffffffffffffff191614806121da57507f5b5e139f000000000000000000000000000000000000000000000000000000007bffffffffffffffffffffffffffffffffffffffffffffffffffffffff1916827bffffffffffffffffffffffffffffffffffffffffffffffffffffffff1916145b806121ea57506121e982612c73565b5b9050919050565b60008073ffffffffffffffffffffffffffffffffffffffff1661221383611b13565b73ffffffffffffffffffffffffffffffffffffffff1614159050919050565b61223a612727565b61224684848484612cdd565b50505050565b61225884848484612e3b565b50505050565b600083838346306040516020016122799594939291906154ab565b6040516020818303038152906040528051906020012090509392505050565b600063ffffffff80168211156122e3576040517f08c379a00000000000000000000000000000000000000000000000000000000081526004016122da90615570565b60405180910390fd5b819050919050565b60008082036122fd57600090506123df565b6000600161230a84612e58565b901c6001901b9050600181848161232457612323615590565b5b048201901c9050600181848161233d5761233c615590565b5b048201901c9050600181848161235657612355615590565b5b048201901c9050600181848161236f5761236e615590565b5b048201901c9050600181848161238857612387615590565b5b048201901c905060018184816123a1576123a0615590565b5b048201901c905060018184816123ba576123b9615590565b5b048201901c90506123db818285816123d5576123d4615590565b5b04612f39565b9150505b919050565b60008260005281602060002001905092915050565b60005b818310156124615760006124108484612f52565b90508463ffffffff1661242387836123e4565b60000160009054906101000a900463ffffffff1663ffffffff16111561244b5780925061245b565b6001816124589190614f9d565b93505b506123fc565b819050949350505050565b612474610b4e565b6124b3576040517f08c379a00000000000000000000000000000000000000000000000000000000081526004016124aa9061560b565b60405180910390fd5b565b6124be81612f78565b6000600a600083815260200190815260200160002080546124de90614757565b90501461250557600a600082815260200190815260200160002060006125049190613eee565b5b50565b600061251382610beb565b9050919050565b8173ffffffffffffffffffffffffffffffffffffffff168373ffffffffffffffffffffffffffffffffffffffff16141580156125565750600081115b1561272257600073ffffffffffffffffffffffffffffffffffffffff168373ffffffffffffffffffffffffffffffffffffffff161461263e576000806125e76130c684600d60008973ffffffffffffffffffffffffffffffffffffffff1673ffffffffffffffffffffffffffffffffffffffff1681526020019081526020016000206130dc9092919063ffffffff16565b915091508473ffffffffffffffffffffffffffffffffffffffff167fdec2bacdd2f05b59de34da9b523dff8be42e5e38e818c82fdb0bae774387a724838360405161263392919061562b565b60405180910390a250505b600073ffffffffffffffffffffffffffffffffffffffff168273ffffffffffffffffffffffffffffffffffffffff1614612721576000806126ca61312884600d60008873ffffffffffffffffffffffffffffffffffffffff1673ffffffffffffffffffffffffffffffffffffffff1681526020019081526020016000206130dc9092919063ffffffff16565b915091508373ffffffffffffffffffffffffffffffffffffffff167fdec2bacdd2f05b59de34da9b523dff8be42e5e38e818c82fdb0bae774387a724838360405161271692919061562b565b60405180910390a250505b5b505050565b61272f610b4e565b1561276f576040517f08c379a0000000000000000000000000000000000000000000000000000000008152600401612766906156a0565b60405180910390fd5b565b60006127928473ffffffffffffffffffffffffffffffffffffffff1661313e565b156128eb578373ffffffffffffffffffffffffffffffffffffffff1663150b7a026127bb611244565b8786866040518563ffffffff1660e01b81526004016127dd9493929190615715565b6020604051808303816000875af192505050801561281957506040513d601f19601f820116820180604052508101906128169190615776565b60015b61289b573d8060008114612849576040519150601f19603f3d011682016040523d82523d6000602084013e61284e565b606091505b506000815103612893576040517f08c379a000000000000000000000000000000000000000000000000000000000815260040161288a9061511b565b60405180910390fd5b805181602001fd5b63150b7a0260e01b7bffffffffffffffffffffffffffffffffffffffffffffffffffffffff1916817bffffffffffffffffffffffffffffffffffffffffffffffffffffffff1916149150506128f0565b600190505b949350505050565b6000828260405160200161290d929190615810565b60405160208183030381529060405280519060200120905092915050565b6000807f7fffffffffffffffffffffffffffffff5d576e7357a4501ddfe92f46681b20a08360001c1115612966576000600391509150612a04565b60006001878787876040516000815260200160405260405161298b9493929190615856565b6020604051602081039080840390855afa1580156129ad573d6000803e3d6000fd5b505050602060405103519050600073ffffffffffffffffffffffffffffffffffffffff168173ffffffffffffffffffffffffffffffffffffffff16036129fb57600060019250925050612a04565b80600092509250505b94509492505050565b60006004811115612a2157612a2061589b565b5b816004811115612a3457612a3361589b565b5b0315612b705760016004811115612a4e57612a4d61589b565b5b816004811115612a6157612a6061589b565b5b03612aa1576040517f08c379a0000000000000000000000000000000000000000000000000000000008152600401612a9890615916565b60405180910390fd5b60026004811115612ab557612ab461589b565b5b816004811115612ac857612ac761589b565b5b03612b08576040517f08c379a0000000000000000000000000000000000000000000000000000000008152600401612aff90615982565b60405180910390fd5b60036004811115612b1c57612b1b61589b565b5b816004811115612b2f57612b2e61589b565b5b03612b6f576040517f08c379a0000000000000000000000000000000000000000000000000000000008152600401612b6690615a14565b60405180910390fd5b5b50565b60606040518060400160405280601581526020017f687474703a2f2f6c6f63616c686f73743a383038300000000000000000000000815250905090565b6060612bbb826111f9565b6000612bc5612b73565b90506000815111612be55760405180602001604052806000815250612c10565b80612bef84613161565b604051602001612c00929190615177565b6040516020818303038152906040525b915050919050565b612c22838361322f565b612c2f6000848484612771565b612c6e576040517f08c379a0000000000000000000000000000000000000000000000000000000008152600401612c659061511b565b60405180910390fd5b505050565b60007f01ffc9a7000000000000000000000000000000000000000000000000000000007bffffffffffffffffffffffffffffffffffffffffffffffffffffffff1916827bffffffffffffffffffffffffffffffffffffffffffffffffffffffff1916149050919050565b612ce98484848461344c565b6001811115612d2d576040517f08c379a0000000000000000000000000000000000000000000000000000000008152600401612d2490615aa6565b60405180910390fd5b6000829050600073ffffffffffffffffffffffffffffffffffffffff168573ffffffffffffffffffffffffffffffffffffffff1603612d7457612d6f81613572565b612db3565b8373ffffffffffffffffffffffffffffffffffffffff168573ffffffffffffffffffffffffffffffffffffffff1614612db257612db185826135bb565b5b5b600073ffffffffffffffffffffffffffffffffffffffff168473ffffffffffffffffffffffffffffffffffffffff1603612df557612df081613728565b612e34565b8473ffffffffffffffffffffffffffffffffffffffff168473ffffffffffffffffffffffffffffffffffffffff1614612e3357612e3284826137f9565b5b5b5050505050565b612e46848483613878565b612e5284848484613936565b50505050565b600080600090506000608084901c1115612e7a57608083901c92506080810190505b6000604084901c1115612e9557604083901c92506040810190505b6000602084901c1115612eb057602083901c92506020810190505b6000601084901c1115612ecb57601083901c92506010810190505b6000600884901c1115612ee657600883901c92506008810190505b6000600484901c1115612f0157600483901c92506004810190505b6000600284901c1115612f1c57600283901c92506002810190505b6000600184901c1115612f30576001810190505b80915050919050565b6000818310612f485781612f4a565b825b905092915050565b60006002828418612f639190615ac6565b828416612f709190614f9d565b905092915050565b6000612f8382610b65565b9050612f93816000846001612232565b612f9c82610b65565b90506004600083815260200190815260200160002060006101000a81549073ffffffffffffffffffffffffffffffffffffffff02191690556001600360008373ffffffffffffffffffffffffffffffffffffffff1673ffffffffffffffffffffffffffffffffffffffff168152602001908152602001600020600082825403925050819055506002600083815260200190815260200160002060006101000a81549073ffffffffffffffffffffffffffffffffffffffff021916905581600073ffffffffffffffffffffffffffffffffffffffff168273ffffffffffffffffffffffffffffffffffffffff167fddf252ad1be2c89b69c2b068fc378daa952ba7f163c4a11628f55a4df523b3ef60405160405180910390a46130c281600084600161224c565b5050565b600081836130d49190614f69565b905092915050565b60008061311c856131176130ef88611c87565b7bffffffffffffffffffffffffffffffffffffffffffffffffffffffff16868863ffffffff16565b61393c565b91509150935093915050565b600081836131369190614f9d565b905092915050565b6000808273ffffffffffffffffffffffffffffffffffffffff163b119050919050565b606060006001613170846139aa565b01905060008167ffffffffffffffff81111561318f5761318e61434b565b5b6040519080825280601f01601f1916602001820160405280156131c15781602001600182028036833780820191505090505b509050600082602001820190505b600115613224578080600190039150507f3031323334353637383961626364656600000000000000000000000000000000600a86061a8153600a858161321857613217615590565b5b049450600085036131cf575b819350505050919050565b600073ffffffffffffffffffffffffffffffffffffffff168273ffffffffffffffffffffffffffffffffffffffff160361329e576040517f08c379a000000000000000000000000000000000000000000000000000000000815260040161329590615b43565b60405180910390fd5b6132a7816121f1565b156132e7576040517f08c379a00000000000000000000000000000000000000000000000000000000081526004016132de90615baf565b60405180910390fd5b6132f5600083836001612232565b6132fe816121f1565b1561333e576040517f08c379a000000000000000000000000000000000000000000000000000000000815260040161333590615baf565b60405180910390fd5b6001600360008473ffffffffffffffffffffffffffffffffffffffff1673ffffffffffffffffffffffffffffffffffffffff16815260200190815260200160002060008282540192505081905550816002600083815260200190815260200160002060006101000a81548173ffffffffffffffffffffffffffffffffffffffff021916908373ffffffffffffffffffffffffffffffffffffffff160217905550808273ffffffffffffffffffffffffffffffffffffffff16600073ffffffffffffffffffffffffffffffffffffffff167fddf252ad1be2c89b69c2b068fc378daa952ba7f163c4a11628f55a4df523b3ef60405160405180910390a461344860008383600161224c565b5050565b600181111561356c57600073ffffffffffffffffffffffffffffffffffffffff168473ffffffffffffffffffffffffffffffffffffffff16146134e05780600360008673ffffffffffffffffffffffffffffffffffffffff1673ffffffffffffffffffffffffffffffffffffffff16815260200190815260200160002060008282546134d89190614f69565b925050819055505b600073ffffffffffffffffffffffffffffffffffffffff168373ffffffffffffffffffffffffffffffffffffffff161461356b5780600360008573ffffffffffffffffffffffffffffffffffffffff1673ffffffffffffffffffffffffffffffffffffffff16815260200190815260200160002060008282546135639190614f9d565b925050819055505b5b50505050565b6008805490506009600083815260200190815260200160002081905550600881908060018154018082558091505060019003906000526020600020016000909190919091505550565b600060016135c884610beb565b6135d29190614f69565b90506000600760008481526020019081526020016000205490508181146136b7576000600660008673ffffffffffffffffffffffffffffffffffffffff1673ffffffffffffffffffffffffffffffffffffffff168152602001908152602001600020600084815260200190815260200160002054905080600660008773ffffffffffffffffffffffffffffffffffffffff1673ffffffffffffffffffffffffffffffffffffffff168152602001908152602001600020600084815260200190815260200160002081905550816007600083815260200190815260200160002081905550505b6007600084815260200190815260200160002060009055600660008573ffffffffffffffffffffffffffffffffffffffff1673ffffffffffffffffffffffffffffffffffffffff16815260200190815260200160002060008381526020019081526020016000206000905550505050565b6000600160088054905061373c9190614f69565b905060006009600084815260200190815260200160002054905060006008838154811061376c5761376b614a62565b5b90600052602060002001549050806008838154811061378e5761378d614a62565b5b9060005260206000200181905550816009600083815260200190815260200160002081905550600960008581526020019081526020016000206000905560088054806137dd576137dc615bcf565b5b6001900381819060005260206000200160009055905550505050565b600061380483610beb565b905081600660008573ffffffffffffffffffffffffffffffffffffffff1673ffffffffffffffffffffffffffffffffffffffff168152602001908152602001600020600083815260200190815260200160002081905550806007600084815260200190815260200160002081905550505050565b600073ffffffffffffffffffffffffffffffffffffffff168373ffffffffffffffffffffffffffffffffffffffff16036138c7576138c461312882600e6130dc9092919063ffffffff16565b50505b600073ffffffffffffffffffffffffffffffffffffffff168273ffffffffffffffffffffffffffffffffffffffff1603613916576139136130c682600e6130dc9092919063ffffffff16565b50505b61393161392284610acb565b61392b84610acb565b8361251a565b505050565b50505050565b60008061395d8460000161394f43612298565b61395886613afd565b613b68565b817bffffffffffffffffffffffffffffffffffffffffffffffffffffffff169150807bffffffffffffffffffffffffffffffffffffffffffffffffffffffff169050915091509250929050565b600080600090507a184f03e93ff9f4daa797ed6e38ed64bf6a1f0100000000000000008310613a08577a184f03e93ff9f4daa797ed6e38ed64bf6a1f01000000000000000083816139fe576139fd615590565b5b0492506040810190505b6d04ee2d6d415b85acef81000000008310613a45576d04ee2d6d415b85acef81000000008381613a3b57613a3a615590565b5b0492506020810190505b662386f26fc100008310613a7457662386f26fc100008381613a6a57613a69615590565b5b0492506010810190505b6305f5e1008310613a9d576305f5e1008381613a9357613a92615590565b5b0492506008810190505b6127108310613ac2576127108381613ab857613ab7615590565b5b0492506004810190505b60648310613ae55760648381613adb57613ada615590565b5b0492506002810190505b600a8310613af4576001810190505b80915050919050565b60007bffffffffffffffffffffffffffffffffffffffffffffffffffffffff8016821115613b60576040517f08c379a0000000000000000000000000000000000000000000000000000000008152600401613b5790615c70565b60405180910390fd5b819050919050565b6000806000858054905090506000811115613dfe576000613b9587600184613b909190614f69565b6123e4565b6040518060400160405290816000820160009054906101000a900463ffffffff1663ffffffff1663ffffffff1681526020016000820160049054906101000a90047bffffffffffffffffffffffffffffffffffffffffffffffffffffffff167bffffffffffffffffffffffffffffffffffffffffffffffffffffffff167bffffffffffffffffffffffffffffffffffffffffffffffffffffffff168152505090508563ffffffff16816000015163ffffffff161115613c89576040517f08c379a0000000000000000000000000000000000000000000000000000000008152600401613c8090615cdc565b60405180910390fd5b8563ffffffff16816000015163ffffffff1603613d0d5784613cb788600185613cb29190614f69565b6123e4565b60000160046101000a8154817bffffffffffffffffffffffffffffffffffffffffffffffffffffffff02191690837bffffffffffffffffffffffffffffffffffffffffffffffffffffffff160217905550613ded565b8660405180604001604052808863ffffffff168152602001877bffffffffffffffffffffffffffffffffffffffffffffffffffffffff168152509080600181540180825580915050600190039060005260206000200160009091909190915060008201518160000160006101000a81548163ffffffff021916908363ffffffff16021790555060208201518160000160046101000a8154817bffffffffffffffffffffffffffffffffffffffffffffffffffffffff02191690837bffffffffffffffffffffffffffffffffffffffffffffffffffffffff16021790555050505b806020015185935093505050613ee6565b8560405180604001604052808763ffffffff168152602001867bffffffffffffffffffffffffffffffffffffffffffffffffffffffff168152509080600181540180825580915050600190039060005260206000200160009091909190915060008201518160000160006101000a81548163ffffffff021916908363ffffffff16021790555060208201518160000160046101000a8154817bffffffffffffffffffffffffffffffffffffffffffffffffffffffff02191690837bffffffffffffffffffffffffffffffffffffffffffffffffffffffff160217905550505060008492509250505b935093915050565b508054613efa90614757565b6000825580601f10613f0c5750613f2b565b601f016020900490600052602060002090810190613f2a9190613f2e565b5b50565b5b80821115613f47576000816000905550600101613f2f565b5090565b6000604051905090565b600080fd5b600080fd5b60007fffffffff0000000000000000000000000000000000000000000000000000000082169050919050565b613f9481613f5f565b8114613f9f57600080fd5b50565b600081359050613fb181613f8b565b92915050565b600060208284031215613fcd57613fcc613f55565b5b6000613fdb84828501613fa2565b91505092915050565b60008115159050919050565b613ff981613fe4565b82525050565b60006020820190506140146000830184613ff0565b92915050565b600081519050919050565b600082825260208201905092915050565b60005b83811015614054578082015181840152602081019050614039565b60008484015250505050565b6000601f19601f8301169050919050565b600061407c8261401a565b6140868185614025565b9350614096818560208601614036565b61409f81614060565b840191505092915050565b600060208201905081810360008301526140c48184614071565b905092915050565b6000819050919050565b6140df816140cc565b81146140ea57600080fd5b50565b6000813590506140fc816140d6565b92915050565b60006020828403121561411857614117613f55565b5b6000614126848285016140ed565b91505092915050565b600073ffffffffffffffffffffffffffffffffffffffff82169050919050565b600061415a8261412f565b9050919050565b61416a8161414f565b82525050565b60006020820190506141856000830184614161565b92915050565b6141948161414f565b811461419f57600080fd5b50565b6000813590506141b18161418b565b92915050565b600080604083850312156141ce576141cd613f55565b5b60006141dc858286016141a2565b92505060206141ed858286016140ed565b9150509250929050565b614200816140cc565b82525050565b600060208201905061421b60008301846141f7565b92915050565b60008060006060848603121561423a57614239613f55565b5b6000614248868287016141a2565b9350506020614259868287016141a2565b925050604061426a868287016140ed565b9150509250925092565b6000819050919050565b61428781614274565b82525050565b60006020820190506142a2600083018461427e565b92915050565b6000602082840312156142be576142bd613f55565b5b60006142cc848285016141a2565b91505092915050565b6142de81613fe4565b81146142e957600080fd5b50565b6000813590506142fb816142d5565b92915050565b6000806040838503121561431857614317613f55565b5b6000614326858286016141a2565b9250506020614337858286016142ec565b9150509250929050565b600080fd5b600080fd5b7f4e487b7100000000000000000000000000000000000000000000000000000000600052604160045260246000fd5b61438382614060565b810181811067ffffffffffffffff821117156143a2576143a161434b565b5b80604052505050565b60006143b5613f4b565b90506143c1828261437a565b919050565b600067ffffffffffffffff8211156143e1576143e061434b565b5b6143ea82614060565b9050602081019050919050565b82818337600083830152505050565b6000614419614414846143c6565b6143ab565b90508281526020810184848401111561443557614434614346565b5b6144408482856143f7565b509392505050565b600082601f83011261445d5761445c614341565b5b813561446d848260208601614406565b91505092915050565b600080600080608085870312156144905761448f613f55565b5b600061449e878288016141a2565b94505060206144af878288016141a2565b93505060406144c0878288016140ed565b925050606085013567ffffffffffffffff8111156144e1576144e0613f5a565b5b6144ed87828801614448565b91505092959194509250565b600060ff82169050919050565b61450f816144f9565b811461451a57600080fd5b50565b60008135905061452c81614506565b92915050565b61453b81614274565b811461454657600080fd5b50565b60008135905061455881614532565b92915050565b60008060008060008060c0878903121561457b5761457a613f55565b5b600061458989828a016141a2565b965050602061459a89828a016140ed565b95505060406145ab89828a016140ed565b94505060606145bc89828a0161451d565b93505060806145cd89828a01614549565b92505060a06145de89828a01614549565b9150509295509295509295565b600067ffffffffffffffff8211156146065761460561434b565b5b61460f82614060565b9050602081019050919050565b600061462f61462a846145eb565b6143ab565b90508281526020810184848401111561464b5761464a614346565b5b6146568482856143f7565b509392505050565b600082601f83011261467357614672614341565b5b813561468384826020860161461c565b91505092915050565b600080604083850312156146a3576146a2613f55565b5b60006146b1858286016141a2565b925050602083013567ffffffffffffffff8111156146d2576146d1613f5a565b5b6146de8582860161465e565b9150509250929050565b600080604083850312156146ff576146fe613f55565b5b600061470d858286016141a2565b925050602061471e858286016141a2565b9150509250929050565b7f4e487b7100000000000000000000000000000000000000000000000000000000600052602260045260246000fd5b6000600282049050600182168061476f57607f821691505b60208210810361478257614781614728565b5b50919050565b7f4552433732313a20617070726f76616c20746f2063757272656e74206f776e6560008201527f7200000000000000000000000000000000000000000000000000000000000000602082015250565b60006147e4602183614025565b91506147ef82614788565b604082019050919050565b60006020820190508181036000830152614813816147d7565b9050919050565b7f4552433732313a20617070726f76652063616c6c6572206973206e6f7420746f60008201527f6b656e206f776e6572206f7220617070726f76656420666f7220616c6c000000602082015250565b6000614876603d83614025565b91506148818261481a565b604082019050919050565b600060208201905081810360008301526148a581614869565b9050919050565b7f4552433732313a2063616c6c6572206973206e6f7420746f6b656e206f776e6560008201527f72206f7220617070726f76656400000000000000000000000000000000000000602082015250565b6000614908602d83614025565b9150614913826148ac565b604082019050919050565b60006020820190508181036000830152614937816148fb565b9050919050565b7f455243373231456e756d657261626c653a206f776e657220696e646578206f7560008201527f74206f6620626f756e6473000000000000000000000000000000000000000000602082015250565b600061499a602b83614025565b91506149a58261493e565b604082019050919050565b600060208201905081810360008301526149c98161498d565b9050919050565b7f455243373231456e756d657261626c653a20676c6f62616c20696e646578206f60008201527f7574206f6620626f756e64730000000000000000000000000000000000000000602082015250565b6000614a2c602c83614025565b9150614a37826149d0565b604082019050919050565b60006020820190508181036000830152614a5b81614a1f565b9050919050565b7f4e487b7100000000000000000000000000000000000000000000000000000000600052603260045260246000fd5b7f4552433732313a20696e76616c696420746f6b656e2049440000000000000000600082015250565b6000614ac7601883614025565b9150614ad282614a91565b602082019050919050565b60006020820190508181036000830152614af681614aba565b9050919050565b7f4552433732313a2061646472657373207a65726f206973206e6f74206120766160008201527f6c6964206f776e65720000000000000000000000000000000000000000000000602082015250565b6000614b59602983614025565b9150614b6482614afd565b604082019050919050565b60006020820190508181036000830152614b8881614b4c565b9050919050565b7f566f7465733a20626c6f636b206e6f7420796574206d696e6564000000000000600082015250565b6000614bc5601a83614025565b9150614bd082614b8f565b602082019050919050565b60006020820190508181036000830152614bf481614bb8565b9050919050565b7f566f7465733a207369676e617475726520657870697265640000000000000000600082015250565b6000614c31601883614025565b9150614c3c82614bfb565b602082019050919050565b60006020820190508181036000830152614c6081614c24565b9050919050565b6000608082019050614c7c600083018761427e565b614c896020830186614161565b614c9660408301856141f7565b614ca360608301846141f7565b95945050505050565b7f566f7465733a20696e76616c6964206e6f6e6365000000000000000000000000600082015250565b6000614ce2601483614025565b9150614ced82614cac565b602082019050919050565b60006020820190508181036000830152614d1181614cd5565b9050919050565b7f4f776e61626c653a206e6577206f776e657220697320746865207a65726f206160008201527f6464726573730000000000000000000000000000000000000000000000000000602082015250565b6000614d74602683614025565b9150614d7f82614d18565b604082019050919050565b60006020820190508181036000830152614da381614d67565b9050919050565b7f4552433732313a207472616e736665722066726f6d20696e636f72726563742060008201527f6f776e6572000000000000000000000000000000000000000000000000000000602082015250565b6000614e06602583614025565b9150614e1182614daa565b604082019050919050565b60006020820190508181036000830152614e3581614df9565b9050919050565b7f4552433732313a207472616e7366657220746f20746865207a65726f2061646460008201527f7265737300000000000000000000000000000000000000000000000000000000602082015250565b6000614e98602483614025565b9150614ea382614e3c565b604082019050919050565b60006020820190508181036000830152614ec781614e8b565b9050919050565b7f436865636b706f696e74733a20626c6f636b206e6f7420796574206d696e6564600082015250565b6000614f04602083614025565b9150614f0f82614ece565b602082019050919050565b60006020820190508181036000830152614f3381614ef7565b9050919050565b7f4e487b7100000000000000000000000000000000000000000000000000000000600052601160045260246000fd5b6000614f74826140cc565b9150614f7f836140cc565b9250828203905081811115614f9757614f96614f3a565b5b92915050565b6000614fa8826140cc565b9150614fb3836140cc565b9250828201905080821115614fcb57614fca614f3a565b5b92915050565b7f4f776e61626c653a2063616c6c6572206973206e6f7420746865206f776e6572600082015250565b6000615007602083614025565b915061501282614fd1565b602082019050919050565b6000602082019050818103600083015261503681614ffa565b9050919050565b7f4552433732313a20617070726f766520746f2063616c6c657200000000000000600082015250565b6000615073601983614025565b915061507e8261503d565b602082019050919050565b600060208201905081810360008301526150a281615066565b9050919050565b7f4552433732313a207472616e7366657220746f206e6f6e20455243373231526560008201527f63656976657220696d706c656d656e7465720000000000000000000000000000602082015250565b6000615105603283614025565b9150615110826150a9565b604082019050919050565b60006020820190508181036000830152615134816150f8565b9050919050565b600081905092915050565b60006151518261401a565b61515b818561513b565b935061516b818560208601614036565b80840191505092915050565b60006151838285615146565b915061518f8284615146565b91508190509392505050565b7f45524337323155524953746f726167653a2055524920736574206f66206e6f6e60008201527f6578697374656e7420746f6b656e000000000000000000000000000000000000602082015250565b60006151f7602e83614025565b91506152028261519b565b604082019050919050565b60006020820190508181036000830152615226816151ea565b9050919050565b60008190508160005260206000209050919050565b60006020601f8301049050919050565b600082821b905092915050565b60006008830261528f7fffffffffffffffffffffffffffffffffffffffffffffffffffffffffffffffff82615252565b6152998683615252565b95508019841693508086168417925050509392505050565b6000819050919050565b60006152d66152d16152cc846140cc565b6152b1565b6140cc565b9050919050565b6000819050919050565b6152f0836152bb565b6153046152fc826152dd565b84845461525f565b825550505050565b600090565b61531961530c565b6153248184846152e7565b505050565b5b818110156153485761533d600082615311565b60018101905061532a565b5050565b601f82111561538d5761535e8161522d565b61536784615242565b81016020851015615376578190505b61538a61538285615242565b830182615329565b50505b505050565b600082821c905092915050565b60006153b060001984600802615392565b1980831691505092915050565b60006153c9838361539f565b9150826002028217905092915050565b6153e28261401a565b67ffffffffffffffff8111156153fb576153fa61434b565b5b6154058254614757565b61541082828561534c565b600060209050601f8311600181146154435760008415615431578287015190505b61543b85826153bd565b8655506154a3565b601f1984166154518661522d565b60005b8281101561547957848901518255600182019150602085019450602081019050615454565b868310156154965784890151615492601f89168261539f565b8355505b6001600288020188555050505b505050505050565b600060a0820190506154c0600083018861427e565b6154cd602083018761427e565b6154da604083018661427e565b6154e760608301856141f7565b6154f46080830184614161565b9695505050505050565b7f53616665436173743a2076616c756520646f65736e27742066697420696e203360008201527f3220626974730000000000000000000000000000000000000000000000000000602082015250565b600061555a602683614025565b9150615565826154fe565b604082019050919050565b600060208201905081810360008301526155898161554d565b9050919050565b7f4e487b7100000000000000000000000000000000000000000000000000000000600052601260045260246000fd5b7f5061757361626c653a206e6f7420706175736564000000000000000000000000600082015250565b60006155f5601483614025565b9150615600826155bf565b602082019050919050565b60006020820190508181036000830152615624816155e8565b9050919050565b600060408201905061564060008301856141f7565b61564d60208301846141f7565b9392505050565b7f5061757361626c653a2070617573656400000000000000000000000000000000600082015250565b600061568a601083614025565b915061569582615654565b602082019050919050565b600060208201905081810360008301526156b98161567d565b9050919050565b600081519050919050565b600082825260208201905092915050565b60006156e7826156c0565b6156f181856156cb565b9350615701818560208601614036565b61570a81614060565b840191505092915050565b600060808201905061572a6000830187614161565b6157376020830186614161565b61574460408301856141f7565b818103606083015261575681846156dc565b905095945050505050565b60008151905061577081613f8b565b92915050565b60006020828403121561578c5761578b613f55565b5b600061579a84828501615761565b91505092915050565b7f1901000000000000000000000000000000000000000000000000000000000000600082015250565b60006157d960028361513b565b91506157e4826157a3565b600282019050919050565b6000819050919050565b61580a61580582614274565b6157ef565b82525050565b600061581b826157cc565b915061582782856157f9565b60208201915061583782846157f9565b6020820191508190509392505050565b615850816144f9565b82525050565b600060808201905061586b600083018761427e565b6158786020830186615847565b615885604083018561427e565b615892606083018461427e565b95945050505050565b7f4e487b7100000000000000000000000000000000000000000000000000000000600052602160045260246000fd5b7f45434453413a20696e76616c6964207369676e61747572650000000000000000600082015250565b6000615900601883614025565b915061590b826158ca565b602082019050919050565b6000602082019050818103600083015261592f816158f3565b9050919050565b7f45434453413a20696e76616c6964207369676e6174757265206c656e67746800600082015250565b600061596c601f83614025565b915061597782615936565b602082019050919050565b6000602082019050818103600083015261599b8161595f565b9050919050565b7f45434453413a20696e76616c6964207369676e6174757265202773272076616c60008201527f7565000000000000000000000000000000000000000000000000000000000000602082015250565b60006159fe602283614025565b9150615a09826159a2565b604082019050919050565b60006020820190508181036000830152615a2d816159f1565b9050919050565b7f455243373231456e756d657261626c653a20636f6e736563757469766520747260008201527f616e7366657273206e6f7420737570706f727465640000000000000000000000602082015250565b6000615a90603583614025565b9150615a9b82615a34565b604082019050919050565b60006020820190508181036000830152615abf81615a83565b9050919050565b6000615ad1826140cc565b9150615adc836140cc565b925082615aec57615aeb615590565b5b828204905092915050565b7f4552433732313a206d696e7420746f20746865207a65726f2061646472657373600082015250565b6000615b2d602083614025565b9150615b3882615af7565b602082019050919050565b60006020820190508181036000830152615b5c81615b20565b9050919050565b7f4552433732313a20746f6b656e20616c7265616479206d696e74656400000000600082015250565b6000615b99601c83614025565b9150615ba482615b63565b602082019050919050565b60006020820190508181036000830152615bc881615b8c565b9050919050565b7f4e487b7100000000000000000000000000000000000000000000000000000000600052603160045260246000fd5b7f53616665436173743a2076616c756520646f65736e27742066697420696e203260008201527f3234206269747300000000000000000000000000000000000000000000000000602082015250565b6000615c5a602783614025565b9150615c6582615bfe565b604082019050919050565b60006020820190508181036000830152615c8981615c4d565b9050919050565b7f436865636b706f696e743a20696e76616c6964206b6579000000000000000000600082015250565b6000615cc6601783614025565b9150615cd182615c90565b602082019050919050565b60006020820190508181036000830152615cf581615cb9565b905091905056fea2646970667358221220931df8c8d5364ff371768cb3fc59b792d32e954f5d3fed55d1a49ad4aa34830b64736f6c63430008110033",
  "immutableReferences": {
    "8389": [
      {
        "length": 32,
        "start": 5910
      }
    ],
    "8391": [
      {
        "length": 32,
        "start": 5869
      }
    ],
    "8393": [
      {
        "length": 32,
        "start": 5783
      }
    ],
    "8395": [
      {
        "length": 32,
        "start": 5986
      }
    ],
    "8397": [
      {
        "length": 32,
        "start": 6019
      }
    ],
    "8399": [
      {
        "length": 32,
        "start": 5953
      }
    ]
  },
  "source": "// SPDX-License-Identifier: MIT\npragma solidity >=0.8.0 <0.9.0;\n\nimport \"@openzeppelin/contracts/token/ERC721/ERC721.sol\";\nimport \"@openzeppelin/contracts/token/ERC721/extensions/ERC721Enumerable.sol\";\nimport \"@openzeppelin/contracts/token/ERC721/extensions/ERC721URIStorage.sol\";\nimport \"@openzeppelin/contracts/security/Pausable.sol\";\nimport \"@openzeppelin/contracts/access/Ownable.sol\";\nimport \"@openzeppelin/contracts/token/ERC721/extensions/ERC721Burnable.sol\";\nimport \"@openzeppelin/contracts/utils/cryptography/draft-EIP712.sol\";\nimport \"@openzeppelin/contracts/token/ERC721/extensions/draft-ERC721Votes.sol\";\nimport \"@openzeppelin/contracts/utils/Counters.sol\";\n\ncontract NonFungibleToken is\n    ERC721,\n    ERC721Enumerable,\n    ERC721URIStorage,\n    Pausable,\n    Ownable,\n    ERC721Burnable,\n    EIP712,\n    ERC721Votes\n{\n    using Counters for Counters.Counter;\n\n    Counters.Counter private _tokenIdCounter;\n\n    constructor() ERC721(\"NonFungibleToken\", \"NFT\") EIP712(\"NonFungibleToken\", \"1\") {}\n\n    function _baseURI() internal pure override returns (string memory) {\n        return \"http://localhost:8080\";\n    }\n\n    function pause() public onlyOwner {\n        _pause();\n    }\n\n    function unpause() public onlyOwner {\n        _unpause();\n    }\n\n    function safeMint(address to, string memory uri) public onlyOwner {\n        uint256 tokenId = _tokenIdCounter.current();\n        _tokenIdCounter.increment();\n        _safeMint(to, tokenId);\n        _setTokenURI(tokenId, uri);\n    }\n\n    function _beforeTokenTransfer(\n        address from,\n        address to,\n        uint256 tokenId,\n        uint256 batchSize\n    ) internal override(ERC721, ERC721Enumerable) whenNotPaused {\n        super._beforeTokenTransfer(from, to, tokenId, batchSize);\n    }\n\n    // The following functions are overrides required by Solidity.\n\n    function _afterTokenTransfer(\n        address from,\n        address to,\n        uint256 tokenId,\n        uint256 batchSize\n    ) internal override(ERC721, ERC721Votes) {\n        super._afterTokenTransfer(from, to, tokenId, batchSize);\n    }\n\n    function _burn(\n        uint256 tokenId\n    ) internal override(ERC721, ERC721URIStorage) {\n        super._burn(tokenId);\n    }\n\n    function tokenURI(\n        uint256 tokenId\n    ) public view override(ERC721, ERC721URIStorage) returns (string memory) {\n        return super.tokenURI(tokenId);\n    }\n\n    function supportsInterface(\n        bytes4 interfaceId\n    ) public view override(ERC721, ERC721Enumerable) returns (bool) {\n        return super.supportsInterface(interfaceId);\n    }\n}\n",
  "sourcePath": "/Users/security/Desktop/bccs/contracts/NonFungibleToken.sol",
  "compiler": {
    "name": "solc",
    "version": "0.8.17+commit.8df45f5f.Emscripten.clang"
  },
  "schemaVersion": "3.4.10",
  "updatedAt": "2023-03-09T03:24:27.612Z",
  "networkType": "ethereum",
  "devdoc": {
    "kind": "dev",
    "methods": {
      "DOMAIN_SEPARATOR()": {
        "details": "Returns the contract's {EIP712} domain separator."
      },
      "approve(address,uint256)": {
        "details": "See {IERC721-approve}."
      },
      "balanceOf(address)": {
        "details": "See {IERC721-balanceOf}."
      },
      "burn(uint256)": {
        "details": "Burns `tokenId`. See {ERC721-_burn}. Requirements: - The caller must own `tokenId` or be an approved operator."
      },
      "delegate(address)": {
        "details": "Delegates votes from the sender to `delegatee`."
      },
      "delegateBySig(address,uint256,uint256,uint8,bytes32,bytes32)": {
        "details": "Delegates votes from signer to `delegatee`."
      },
      "delegates(address)": {
        "details": "Returns the delegate that `account` has chosen."
      },
      "getApproved(uint256)": {
        "details": "See {IERC721-getApproved}."
      },
      "getPastTotalSupply(uint256)": {
        "details": "Returns the total supply of votes available at the end of a past block (`blockNumber`). NOTE: This value is the sum of all available votes, which is not necessarily the sum of all delegated votes. Votes that have not been delegated are still part of total supply, even though they would not participate in a vote. Requirements: - `blockNumber` must have been already mined"
      },
      "getPastVotes(address,uint256)": {
        "details": "Returns the amount of votes that `account` had at the end of a past block (`blockNumber`). Requirements: - `blockNumber` must have been already mined"
      },
      "getVotes(address)": {
        "details": "Returns the current amount of votes that `account` has."
      },
      "isApprovedForAll(address,address)": {
        "details": "See {IERC721-isApprovedForAll}."
      },
      "name()": {
        "details": "See {IERC721Metadata-name}."
      },
      "nonces(address)": {
        "details": "Returns an address nonce."
      },
      "owner()": {
        "details": "Returns the address of the current owner."
      },
      "ownerOf(uint256)": {
        "details": "See {IERC721-ownerOf}."
      },
      "paused()": {
        "details": "Returns true if the contract is paused, and false otherwise."
      },
      "renounceOwnership()": {
        "details": "Leaves the contract without owner. It will not be possible to call `onlyOwner` functions anymore. Can only be called by the current owner. NOTE: Renouncing ownership will leave the contract without an owner, thereby removing any functionality that is only available to the owner."
      },
      "safeTransferFrom(address,address,uint256)": {
        "details": "See {IERC721-safeTransferFrom}."
      },
      "safeTransferFrom(address,address,uint256,bytes)": {
        "details": "See {IERC721-safeTransferFrom}."
      },
      "setApprovalForAll(address,bool)": {
        "details": "See {IERC721-setApprovalForAll}."
      },
      "symbol()": {
        "details": "See {IERC721Metadata-symbol}."
      },
      "tokenByIndex(uint256)": {
        "details": "See {IERC721Enumerable-tokenByIndex}."
      },
      "tokenOfOwnerByIndex(address,uint256)": {
        "details": "See {IERC721Enumerable-tokenOfOwnerByIndex}."
      },
      "totalSupply()": {
        "details": "See {IERC721Enumerable-totalSupply}."
      },
      "transferFrom(address,address,uint256)": {
        "details": "See {IERC721-transferFrom}."
      },
      "transferOwnership(address)": {
        "details": "Transfers ownership of the contract to a new account (`newOwner`). Can only be called by the current owner."
      }
    },
    "version": 1
  },
  "userdoc": {
    "kind": "user",
    "methods": {},
    "version": 1
  }
}