{
  "contractName": "SaleDreamMT",
  "abi": [
    {
      "inputs": [
        {
          "internalType": "contract DreamMT",
          "name": "_dreamMTContract",
          "type": "address"
        }
      ],
      "stateMutability": "nonpayable",
      "type": "constructor"
    },
    {
      "anonymous": false,
      "inputs": [
        {
          "indexed": true,
          "internalType": "address",
          "name": "previousOwner",
          "type": "address"
        },
        {
          "indexed": true,
          "internalType": "address",
          "name": "newOwner",
          "type": "address"
        }
      ],
      "name": "OwnershipTransferred",
      "type": "event"
    },
    {
      "inputs": [],
      "name": "dreamMTContract",
      "outputs": [
        {
          "internalType": "contract DreamMT",
          "name": "",
          "type": "address"
        }
      ],
      "stateMutability": "view",
      "type": "function"
    },
    {
      "inputs": [],
      "name": "owner",
      "outputs": [
        {
          "internalType": "address",
          "name": "",
          "type": "address"
        }
      ],
      "stateMutability": "view",
      "type": "function"
    },
    {
      "inputs": [],
      "name": "renounceOwnership",
      "outputs": [],
      "stateMutability": "nonpayable",
      "type": "function"
    },
    {
      "inputs": [
        {
          "internalType": "address",
          "name": "newOwner",
          "type": "address"
        }
      ],
      "name": "transferOwnership",
      "outputs": [],
      "stateMutability": "nonpayable",
      "type": "function"
    },
    {
      "inputs": [
        {
          "internalType": "uint256",
          "name": "_tokenId",
          "type": "uint256"
        },
        {
          "internalType": "uint256",
          "name": "_amount",
          "type": "uint256"
        },
        {
          "internalType": "address",
          "name": "_from",
          "type": "address"
        }
      ],
      "name": "buyMT",
      "outputs": [],
      "stateMutability": "payable",
      "type": "function"
    },
    {
      "inputs": [
        {
          "internalType": "uint256",
          "name": "_tokenId",
          "type": "uint256"
        },
        {
          "internalType": "uint256",
          "name": "_amount",
          "type": "uint256"
        },
        {
          "internalType": "address",
          "name": "_to",
          "type": "address"
        }
      ],
      "name": "giftMT",
      "outputs": [],
      "stateMutability": "payable",
      "type": "function"
    }
  ],
  "bytecode": "0x608060405234801561001057600080fd5b506040516109f03803806109f0833981810160405281019061003291906101d6565b61004e61004361009560201b60201c565b61009d60201b60201c565b80600160006101000a81548173ffffffffffffffffffffffffffffffffffffffff021916908373ffffffffffffffffffffffffffffffffffffffff16021790555050610203565b600033905090565b60008060009054906101000a900473ffffffffffffffffffffffffffffffffffffffff169050816000806101000a81548173ffffffffffffffffffffffffffffffffffffffff021916908373ffffffffffffffffffffffffffffffffffffffff1602179055508173ffffffffffffffffffffffffffffffffffffffff168173ffffffffffffffffffffffffffffffffffffffff167f8be0079c531659141344cd1fd0a4f28419497f9722a3daafe3b4186f6b6457e060405160405180910390a35050565b600080fd5b600073ffffffffffffffffffffffffffffffffffffffff82169050919050565b600061019182610166565b9050919050565b60006101a382610186565b9050919050565b6101b381610198565b81146101be57600080fd5b50565b6000815190506101d0816101aa565b92915050565b6000602082840312156101ec576101eb610161565b5b60006101fa848285016101c1565b91505092915050565b6107de806102126000396000f3fe6080604052600436106100555760003560e01c806351e01c321461005a57806354a8e74c14610076578063715018a6146100925780638da5cb5b146100a9578063d8ee2fea146100d4578063f2fde38b146100ff575b600080fd5b610074600480360381019061006f9190610521565b610128565b005b610090600480360381019061008b9190610521565b6101c0565b005b34801561009e57600080fd5b506100a7610258565b005b3480156100b557600080fd5b506100be61026c565b6040516100cb9190610583565b60405180910390f35b3480156100e057600080fd5b506100e9610295565b6040516100f691906105fd565b60405180910390f35b34801561010b57600080fd5b5061012660048036038101906101219190610618565b6102bb565b005b600160009054906101000a900473ffffffffffffffffffffffffffffffffffffffff1673ffffffffffffffffffffffffffffffffffffffff1663909308b5848433856040518563ffffffff1660e01b81526004016101899493929190610654565b600060405180830381600087803b1580156101a357600080fd5b505af11580156101b7573d6000803e3d6000fd5b50505050505050565b600160009054906101000a900473ffffffffffffffffffffffffffffffffffffffff1673ffffffffffffffffffffffffffffffffffffffff1663909308b5848484336040518563ffffffff1660e01b81526004016102219493929190610654565b600060405180830381600087803b15801561023b57600080fd5b505af115801561024f573d6000803e3d6000fd5b50505050505050565b61026061033e565b61026a60006103bc565b565b60008060009054906101000a900473ffffffffffffffffffffffffffffffffffffffff16905090565b600160009054906101000a900473ffffffffffffffffffffffffffffffffffffffff1681565b6102c361033e565b600073ffffffffffffffffffffffffffffffffffffffff168173ffffffffffffffffffffffffffffffffffffffff1603610332576040517f08c379a00000000000000000000000000000000000000000000000000000000081526004016103299061071c565b60405180910390fd5b61033b816103bc565b50565b610346610480565b73ffffffffffffffffffffffffffffffffffffffff1661036461026c565b73ffffffffffffffffffffffffffffffffffffffff16146103ba576040517f08c379a00000000000000000000000000000000000000000000000000000000081526004016103b190610788565b60405180910390fd5b565b60008060009054906101000a900473ffffffffffffffffffffffffffffffffffffffff169050816000806101000a81548173ffffffffffffffffffffffffffffffffffffffff021916908373ffffffffffffffffffffffffffffffffffffffff1602179055508173ffffffffffffffffffffffffffffffffffffffff168173ffffffffffffffffffffffffffffffffffffffff167f8be0079c531659141344cd1fd0a4f28419497f9722a3daafe3b4186f6b6457e060405160405180910390a35050565b600033905090565b600080fd5b6000819050919050565b6104a08161048d565b81146104ab57600080fd5b50565b6000813590506104bd81610497565b92915050565b600073ffffffffffffffffffffffffffffffffffffffff82169050919050565b60006104ee826104c3565b9050919050565b6104fe816104e3565b811461050957600080fd5b50565b60008135905061051b816104f5565b92915050565b60008060006060848603121561053a57610539610488565b5b6000610548868287016104ae565b9350506020610559868287016104ae565b925050604061056a8682870161050c565b9150509250925092565b61057d816104e3565b82525050565b60006020820190506105986000830184610574565b92915050565b6000819050919050565b60006105c36105be6105b9846104c3565b61059e565b6104c3565b9050919050565b60006105d5826105a8565b9050919050565b60006105e7826105ca565b9050919050565b6105f7816105dc565b82525050565b600060208201905061061260008301846105ee565b92915050565b60006020828403121561062e5761062d610488565b5b600061063c8482850161050c565b91505092915050565b61064e8161048d565b82525050565b60006080820190506106696000830187610645565b6106766020830186610645565b6106836040830185610574565b6106906060830184610574565b95945050505050565b600082825260208201905092915050565b7f4f776e61626c653a206e6577206f776e657220697320746865207a65726f206160008201527f6464726573730000000000000000000000000000000000000000000000000000602082015250565b6000610706602683610699565b9150610711826106aa565b604082019050919050565b60006020820190508181036000830152610735816106f9565b9050919050565b7f4f776e61626c653a2063616c6c6572206973206e6f7420746865206f776e6572600082015250565b6000610772602083610699565b915061077d8261073c565b602082019050919050565b600060208201905081810360008301526107a181610765565b905091905056fea2646970667358221220a1e01806cb7c89089b940b7b7726156f513922f9c585c72f90688c6e92d89e1a64736f6c63430008110033",
  "immutableReferences": {},
  "source": "// SPDX-License-Identifier: MIT\npragma solidity >=0.8.0 <0.9.0;\n\nimport \"@openzeppelin/contracts/access/Ownable.sol\";\n\nimport \"./DreamMT.sol\";\nimport \"./Lib.sol\";\n\ncontract SaleDreamMT is Ownable {\n    DreamMT public dreamMTContract;\n\n    constructor(DreamMT _dreamMTContract) {\n        dreamMTContract = _dreamMTContract;\n    }\n\n    function buyMT(\n        uint256 _tokenId,\n        uint256 _amount,\n        address _from\n    ) public payable {\n        dreamMTContract.buyToken(_tokenId, _amount, _from, msg.sender);\n    }\n\n    function giftMT(\n        uint256 _tokenId,\n        uint256 _amount,\n        address _to\n    ) public payable {\n        dreamMTContract.buyToken(_tokenId, _amount, msg.sender, _to);\n    }\n}\n",
  "sourcePath": "/Users/security/Desktop/bccs/contracts/SaleDreamMT.sol",
  "compiler": {
    "name": "solc",
    "version": "0.8.17+commit.8df45f5f.Emscripten.clang"
  },
  "schemaVersion": "3.4.10",
  "updatedAt": "2023-03-09T03:24:18.555Z",
  "devdoc": {
    "kind": "dev",
    "methods": {
      "owner()": {
        "details": "Returns the address of the current owner."
      },
      "renounceOwnership()": {
        "details": "Leaves the contract without owner. It will not be possible to call `onlyOwner` functions anymore. Can only be called by the current owner. NOTE: Renouncing ownership will leave the contract without an owner, thereby removing any functionality that is only available to the owner."
      },
      "transferOwnership(address)": {
        "details": "Transfers ownership of the contract to a new account (`newOwner`). Can only be called by the current owner."
      }
    },
    "version": 1
  },
  "userdoc": {
    "kind": "user",
    "methods": {},
    "version": 1
  }
}