{
  "contractName": "DreamNFT",
  "abi": [
    {
      "inputs": [
        {
          "internalType": "address",
          "name": "_tokenAddress",
          "type": "address"
        }
      ],
      "stateMutability": "nonpayable",
      "type": "constructor"
    },
    {
      "anonymous": false,
      "inputs": [
        {
          "indexed": true,
          "internalType": "address",
          "name": "owner",
          "type": "address"
        },
        {
          "indexed": true,
          "internalType": "address",
          "name": "approved",
          "type": "address"
        },
        {
          "indexed": true,
          "internalType": "uint256",
          "name": "tokenId",
          "type": "uint256"
        }
      ],
      "name": "Approval",
      "type": "event"
    },
    {
      "anonymous": false,
      "inputs": [
        {
          "indexed": true,
          "internalType": "address",
          "name": "owner",
          "type": "address"
        },
        {
          "indexed": true,
          "internalType": "address",
          "name": "operator",
          "type": "address"
        },
        {
          "indexed": false,
          "internalType": "bool",
          "name": "approved",
          "type": "bool"
        }
      ],
      "name": "ApprovalForAll",
      "type": "event"
    },
    {
      "anonymous": false,
      "inputs": [
        {
          "indexed": true,
          "internalType": "address",
          "name": "previousOwner",
          "type": "address"
        },
        {
          "indexed": true,
          "internalType": "address",
          "name": "newOwner",
          "type": "address"
        }
      ],
      "name": "OwnershipTransferred",
      "type": "event"
    },
    {
      "anonymous": false,
      "inputs": [
        {
          "indexed": true,
          "internalType": "address",
          "name": "from",
          "type": "address"
        },
        {
          "indexed": true,
          "internalType": "address",
          "name": "to",
          "type": "address"
        },
        {
          "indexed": true,
          "internalType": "uint256",
          "name": "tokenId",
          "type": "uint256"
        }
      ],
      "name": "Transfer",
      "type": "event"
    },
    {
      "inputs": [],
      "name": "_tokenIds",
      "outputs": [
        {
          "internalType": "uint256",
          "name": "_value",
          "type": "uint256"
        }
      ],
      "stateMutability": "view",
      "type": "function",
      "constant": true
    },
    {
      "inputs": [
        {
          "internalType": "address",
          "name": "to",
          "type": "address"
        },
        {
          "internalType": "uint256",
          "name": "tokenId",
          "type": "uint256"
        }
      ],
      "name": "approve",
      "outputs": [],
      "stateMutability": "nonpayable",
      "type": "function"
    },
    {
      "inputs": [
        {
          "internalType": "address",
          "name": "owner",
          "type": "address"
        }
      ],
      "name": "balanceOf",
      "outputs": [
        {
          "internalType": "uint256",
          "name": "",
          "type": "uint256"
        }
      ],
      "stateMutability": "view",
      "type": "function",
      "constant": true
    },
    {
      "inputs": [
        {
          "internalType": "uint256",
          "name": "tokenId",
          "type": "uint256"
        }
      ],
      "name": "getApproved",
      "outputs": [
        {
          "internalType": "address",
          "name": "",
          "type": "address"
        }
      ],
      "stateMutability": "view",
      "type": "function",
      "constant": true
    },
    {
      "inputs": [
        {
          "internalType": "address",
          "name": "owner",
          "type": "address"
        },
        {
          "internalType": "address",
          "name": "operator",
          "type": "address"
        }
      ],
      "name": "isApprovedForAll",
      "outputs": [
        {
          "internalType": "bool",
          "name": "",
          "type": "bool"
        }
      ],
      "stateMutability": "view",
      "type": "function",
      "constant": true
    },
    {
      "inputs": [],
      "name": "name",
      "outputs": [
        {
          "internalType": "string",
          "name": "",
          "type": "string"
        }
      ],
      "stateMutability": "view",
      "type": "function",
      "constant": true
    },
    {
      "inputs": [],
      "name": "owner",
      "outputs": [
        {
          "internalType": "address",
          "name": "",
          "type": "address"
        }
      ],
      "stateMutability": "view",
      "type": "function",
      "constant": true
    },
    {
      "inputs": [
        {
          "internalType": "uint256",
          "name": "tokenId",
          "type": "uint256"
        }
      ],
      "name": "ownerOf",
      "outputs": [
        {
          "internalType": "address",
          "name": "",
          "type": "address"
        }
      ],
      "stateMutability": "view",
      "type": "function",
      "constant": true
    },
    {
      "inputs": [],
      "name": "renounceOwnership",
      "outputs": [],
      "stateMutability": "nonpayable",
      "type": "function"
    },
    {
      "inputs": [
        {
          "internalType": "address",
          "name": "from",
          "type": "address"
        },
        {
          "internalType": "address",
          "name": "to",
          "type": "address"
        },
        {
          "internalType": "uint256",
          "name": "tokenId",
          "type": "uint256"
        }
      ],
      "name": "safeTransferFrom",
      "outputs": [],
      "stateMutability": "nonpayable",
      "type": "function"
    },
    {
      "inputs": [
        {
          "internalType": "address",
          "name": "from",
          "type": "address"
        },
        {
          "internalType": "address",
          "name": "to",
          "type": "address"
        },
        {
          "internalType": "uint256",
          "name": "tokenId",
          "type": "uint256"
        },
        {
          "internalType": "bytes",
          "name": "data",
          "type": "bytes"
        }
      ],
      "name": "safeTransferFrom",
      "outputs": [],
      "stateMutability": "nonpayable",
      "type": "function"
    },
    {
      "inputs": [
        {
          "internalType": "address",
          "name": "operator",
          "type": "address"
        },
        {
          "internalType": "bool",
          "name": "approved",
          "type": "bool"
        }
      ],
      "name": "setApprovalForAll",
      "outputs": [],
      "stateMutability": "nonpayable",
      "type": "function"
    },
    {
      "inputs": [],
      "name": "symbol",
      "outputs": [
        {
          "internalType": "string",
          "name": "",
          "type": "string"
        }
      ],
      "stateMutability": "view",
      "type": "function",
      "constant": true
    },
    {
      "inputs": [
        {
          "internalType": "uint256",
          "name": "index",
          "type": "uint256"
        }
      ],
      "name": "tokenByIndex",
      "outputs": [
        {
          "internalType": "uint256",
          "name": "",
          "type": "uint256"
        }
      ],
      "stateMutability": "view",
      "type": "function",
      "constant": true
    },
    {
      "inputs": [
        {
          "internalType": "address",
          "name": "owner",
          "type": "address"
        },
        {
          "internalType": "uint256",
          "name": "index",
          "type": "uint256"
        }
      ],
      "name": "tokenOfOwnerByIndex",
      "outputs": [
        {
          "internalType": "uint256",
          "name": "",
          "type": "uint256"
        }
      ],
      "stateMutability": "view",
      "type": "function",
      "constant": true
    },
    {
      "inputs": [],
      "name": "totalSupply",
      "outputs": [
        {
          "internalType": "uint256",
          "name": "",
          "type": "uint256"
        }
      ],
      "stateMutability": "view",
      "type": "function",
      "constant": true
    },
    {
      "inputs": [
        {
          "internalType": "address",
          "name": "from",
          "type": "address"
        },
        {
          "internalType": "address",
          "name": "to",
          "type": "address"
        },
        {
          "internalType": "uint256",
          "name": "tokenId",
          "type": "uint256"
        }
      ],
      "name": "transferFrom",
      "outputs": [],
      "stateMutability": "nonpayable",
      "type": "function"
    },
    {
      "inputs": [
        {
          "internalType": "address",
          "name": "newOwner",
          "type": "address"
        }
      ],
      "name": "transferOwnership",
      "outputs": [],
      "stateMutability": "nonpayable",
      "type": "function"
    },
    {
      "inputs": [
        {
          "internalType": "bytes4",
          "name": "interfaceId",
          "type": "bytes4"
        }
      ],
      "name": "supportsInterface",
      "outputs": [
        {
          "internalType": "bool",
          "name": "",
          "type": "bool"
        }
      ],
      "stateMutability": "view",
      "type": "function",
      "constant": true
    },
    {
      "inputs": [
        {
          "internalType": "uint256",
          "name": "tokenId",
          "type": "uint256"
        }
      ],
      "name": "tokenURI",
      "outputs": [
        {
          "internalType": "string",
          "name": "",
          "type": "string"
        }
      ],
      "stateMutability": "view",
      "type": "function",
      "constant": true
    },
    {
      "inputs": [
        {
          "internalType": "address",
          "name": "_address",
          "type": "address"
        }
      ],
      "name": "setAuthority",
      "outputs": [],
      "stateMutability": "nonpayable",
      "type": "function"
    },
    {
      "inputs": [
        {
          "internalType": "address",
          "name": "_address",
          "type": "address"
        }
      ],
      "name": "banAuthority",
      "outputs": [],
      "stateMutability": "nonpayable",
      "type": "function"
    },
    {
      "inputs": [
        {
          "internalType": "address",
          "name": "_address",
          "type": "address"
        }
      ],
      "name": "getAuthority",
      "outputs": [
        {
          "internalType": "bool",
          "name": "",
          "type": "bool"
        }
      ],
      "stateMutability": "view",
      "type": "function",
      "constant": true
    },
    {
      "inputs": [
        {
          "internalType": "uint256",
          "name": "_tokenId",
          "type": "uint256"
        }
      ],
      "name": "getOwner",
      "outputs": [
        {
          "internalType": "address",
          "name": "",
          "type": "address"
        }
      ],
      "stateMutability": "view",
      "type": "function",
      "constant": true
    },
    {
      "inputs": [
        {
          "internalType": "string",
          "name": "_metaDataCID",
          "type": "string"
        }
      ],
      "name": "mintNFT",
      "outputs": [],
      "stateMutability": "nonpayable",
      "type": "function"
    },
    {
      "inputs": [
        {
          "internalType": "uint256",
          "name": "_tokenId",
          "type": "uint256"
        },
        {
          "internalType": "address",
          "name": "_to",
          "type": "address"
        }
      ],
      "name": "transferNFT",
      "outputs": [],
      "stateMutability": "nonpayable",
      "type": "function"
    },
    {
      "inputs": [
        {
          "internalType": "uint256",
          "name": "_tokenId",
          "type": "uint256"
        }
      ],
      "name": "burnNFT",
      "outputs": [],
      "stateMutability": "nonpayable",
      "type": "function"
    },
    {
      "inputs": [],
      "name": "myNFTLists",
      "outputs": [
        {
          "components": [
            {
              "internalType": "uint256",
              "name": "tokenId",
              "type": "uint256"
            },
            {
              "internalType": "string",
              "name": "tokenURI",
              "type": "string"
            },
            {
              "internalType": "address",
              "name": "owner",
              "type": "address"
            },
            {
              "internalType": "uint8",
              "name": "price",
              "type": "uint8"
            },
            {
              "internalType": "bool",
              "name": "sellState",
              "type": "bool"
            }
          ],
          "internalType": "struct Lib.NFT[]",
          "name": "",
          "type": "tuple[]"
        }
      ],
      "stateMutability": "view",
      "type": "function",
      "constant": true
    },
    {
      "inputs": [],
      "name": "totalNFTs",
      "outputs": [
        {
          "internalType": "uint256",
          "name": "",
          "type": "uint256"
        }
      ],
      "stateMutability": "view",
      "type": "function",
      "constant": true
    },
    {
      "inputs": [
        {
          "internalType": "address",
          "name": "_address",
          "type": "address"
        }
      ],
      "name": "getTokenIds",
      "outputs": [
        {
          "internalType": "uint256[]",
          "name": "",
          "type": "uint256[]"
        }
      ],
      "stateMutability": "view",
      "type": "function",
      "constant": true
    },
    {
      "inputs": [
        {
          "internalType": "uint256[]",
          "name": "tokenIds",
          "type": "uint256[]"
        }
      ],
      "name": "getNftsInfo",
      "outputs": [
        {
          "components": [
            {
              "internalType": "uint256",
              "name": "tokenId",
              "type": "uint256"
            },
            {
              "internalType": "string",
              "name": "tokenURI",
              "type": "string"
            },
            {
              "internalType": "address",
              "name": "owner",
              "type": "address"
            },
            {
              "internalType": "uint8",
              "name": "price",
              "type": "uint8"
            },
            {
              "internalType": "bool",
              "name": "sellState",
              "type": "bool"
            }
          ],
          "internalType": "struct Lib.NFT[]",
          "name": "",
          "type": "tuple[]"
        }
      ],
      "stateMutability": "view",
      "type": "function",
      "constant": true
    },
    {
      "inputs": [
        {
          "internalType": "string",
          "name": "_metaDataCID",
          "type": "string"
        },
        {
          "internalType": "uint8",
          "name": "_price",
          "type": "uint8"
        }
      ],
      "name": "mintNFTwithDreamToken",
      "outputs": [],
      "stateMutability": "nonpayable",
      "type": "function"
    }
  ],
  "bytecode": "0x60a06040523480156200001157600080fd5b5060405162005a3b38038062005a3b8339818101604052810190620000379190620002a5565b6040518060400160405280600881526020017f447265616d4e46540000000000000000000000000000000000000000000000008152506040518060400160405280600381526020017f444e5400000000000000000000000000000000000000000000000000000000008152508160009081620000b4919062000551565b508060019081620000c6919062000551565b5050506001600b81905550620000f1620000e56200016d60201b60201c565b6200017560201b60201c565b3373ffffffffffffffffffffffffffffffffffffffff1660808173ffffffffffffffffffffffffffffffffffffffff168152505080600e60006101000a81548173ffffffffffffffffffffffffffffffffffffffff021916908373ffffffffffffffffffffffffffffffffffffffff1602179055505062000638565b600033905090565b6000600c60009054906101000a900473ffffffffffffffffffffffffffffffffffffffff16905081600c60006101000a81548173ffffffffffffffffffffffffffffffffffffffff021916908373ffffffffffffffffffffffffffffffffffffffff1602179055508173ffffffffffffffffffffffffffffffffffffffff168173ffffffffffffffffffffffffffffffffffffffff167f8be0079c531659141344cd1fd0a4f28419497f9722a3daafe3b4186f6b6457e060405160405180910390a35050565b600080fd5b600073ffffffffffffffffffffffffffffffffffffffff82169050919050565b60006200026d8262000240565b9050919050565b6200027f8162000260565b81146200028b57600080fd5b50565b6000815190506200029f8162000274565b92915050565b600060208284031215620002be57620002bd6200023b565b5b6000620002ce848285016200028e565b91505092915050565b600081519050919050565b7f4e487b7100000000000000000000000000000000000000000000000000000000600052604160045260246000fd5b7f4e487b7100000000000000000000000000000000000000000000000000000000600052602260045260246000fd5b600060028204905060018216806200035957607f821691505b6020821081036200036f576200036e62000311565b5b50919050565b60008190508160005260206000209050919050565b60006020601f8301049050919050565b600082821b905092915050565b600060088302620003d97fffffffffffffffffffffffffffffffffffffffffffffffffffffffffffffffff826200039a565b620003e586836200039a565b95508019841693508086168417925050509392505050565b6000819050919050565b6000819050919050565b6000620004326200042c6200042684620003fd565b62000407565b620003fd565b9050919050565b6000819050919050565b6200044e8362000411565b620004666200045d8262000439565b848454620003a7565b825550505050565b600090565b6200047d6200046e565b6200048a81848462000443565b505050565b5b81811015620004b257620004a660008262000473565b60018101905062000490565b5050565b601f8211156200050157620004cb8162000375565b620004d6846200038a565b81016020851015620004e6578190505b620004fe620004f5856200038a565b8301826200048f565b50505b505050565b600082821c905092915050565b6000620005266000198460080262000506565b1980831691505092915050565b600062000541838362000513565b9150826002028217905092915050565b6200055c82620002d7565b67ffffffffffffffff811115620005785762000577620002e2565b5b62000584825462000340565b62000591828285620004b6565b600060209050601f831160018114620005c95760008415620005b4578287015190505b620005c0858262000533565b86555062000630565b601f198416620005d98662000375565b60005b828110156200060357848901518255600182019150602085019450602081019050620005dc565b868310156200062357848901516200061f601f89168262000513565b8355505b6001600288020188555050505b505050505050565b6080516153ea62000651600039600050506153ea6000f3fe608060405234801561001057600080fd5b50600436106101f05760003560e01c8063715018a61161010f578063c41a360a116100a2578063e985e9c511610071578063e985e9c5146105dd578063f2fde38b1461060d578063fb37e88314610629578063fdf925d814610645576101f0565b8063c41a360a14610531578063c87b56dd14610561578063d004b03614610591578063d979869d146105c1576101f0565b806395d89b41116100de57806395d89b41146104bd578063a22cb465146104db578063aa46a400146104f7578063b88d4fde14610515576101f0565b8063715018a61461045d5780637a9e5e4b146104675780638da5cb5b146104835780639036c050146104a1576101f0565b80632f745c5911610187578063590ca75511610156578063590ca755146103af5780635fabcaaf146103cd5780636352211e146103fd57806370a082311461042d576101f0565b80632f745c591461030357806342842e0e1461033357806348bed7c31461034f5780634f6ccce71461037f576101f0565b80630d0e96da116101c35780630d0e96da1461028f57806318160ddd146102ad57806323b872dd146102cb5780632890e0d7146102e7576101f0565b806301ffc9a7146101f557806306fdde0314610225578063081812fc14610243578063095ea7b314610273575b600080fd5b61020f600480360381019061020a91906137f3565b610661565b60405161021c919061383b565b60405180910390f35b61022d610673565b60405161023a91906138e6565b60405180910390f35b61025d6004803603810190610258919061393e565b610705565b60405161026a91906139ac565b60405180910390f35b61028d600480360381019061028891906139f3565b61074b565b005b610297610862565b6040516102a49190613a42565b60405180910390f35b6102b5610873565b6040516102c29190613a42565b60405180910390f35b6102e560048036038101906102e09190613a5d565b610880565b005b61030160048036038101906102fc919061393e565b6108e0565b005b61031d600480360381019061031891906139f3565b610971565b60405161032a9190613a42565b60405180910390f35b61034d60048036038101906103489190613a5d565b610a16565b005b61036960048036038101906103649190613bf8565b610a36565b6040516103769190613e0c565b60405180910390f35b6103996004803603810190610394919061393e565b610c3a565b6040516103a69190613a42565b60405180910390f35b6103b7610cab565b6040516103c49190613e0c565b60405180910390f35b6103e760048036038101906103e29190613e2e565b610fe6565b6040516103f4919061383b565b60405180910390f35b6104176004803603810190610412919061393e565b61103c565b60405161042491906139ac565b60405180910390f35b61044760048036038101906104429190613e2e565b6110c2565b6040516104549190613a42565b60405180910390f35b610465611179565b005b610481600480360381019061047c9190613e2e565b61118d565b005b61048b6111e8565b60405161049891906139ac565b60405180910390f35b6104bb60048036038101906104b69190613e5b565b611212565b005b6104c561135d565b6040516104d291906138e6565b60405180910390f35b6104f560048036038101906104f09190613ec7565b6113ef565b005b6104ff611405565b60405161050c9190613a42565b60405180910390f35b61052f600480360381019061052a9190613fbc565b611411565b005b61054b6004803603810190610546919061393e565b611473565b60405161055891906139ac565b60405180910390f35b61057b6004803603810190610576919061393e565b6114b3565b60405161058891906138e6565b60405180910390f35b6105ab60048036038101906105a69190613e2e565b6114e4565b6040516105b891906140ee565b60405180910390f35b6105db60048036038101906105d691906141dd565b611598565b005b6105f760048036038101906105f29190614239565b6118f6565b604051610604919061383b565b60405180910390f35b61062760048036038101906106229190613e2e565b61198a565b005b610643600480360381019061063e9190614279565b611a0d565b005b61065f600480360381019061065a9190613e2e565b611cc0565b005b600061066c82611d1b565b9050919050565b606060008054610682906142f1565b80601f01602080910402602001604051908101604052809291908181526020018280546106ae906142f1565b80156106fb5780601f106106d0576101008083540402835291602001916106fb565b820191906000526020600020905b8154815290600101906020018083116106de57829003601f168201915b5050505050905090565b600061071082611d95565b6004600083815260200190815260200160002060009054906101000a900473ffffffffffffffffffffffffffffffffffffffff169050919050565b60006107568261103c565b90508073ffffffffffffffffffffffffffffffffffffffff168373ffffffffffffffffffffffffffffffffffffffff16036107c6576040517f08c379a00000000000000000000000000000000000000000000000000000000081526004016107bd90614394565b60405180910390fd5b8073ffffffffffffffffffffffffffffffffffffffff166107e5611de0565b73ffffffffffffffffffffffffffffffffffffffff16148061081457506108138161080e611de0565b6118f6565b5b610853576040517f08c379a000000000000000000000000000000000000000000000000000000000815260040161084a90614426565b60405180910390fd5b61085d8383611de8565b505050565b600061086e600d611ea1565b905090565b6000600980549050905090565b61089161088b611de0565b82611eaf565b6108d0576040517f08c379a00000000000000000000000000000000000000000000000000000000081526004016108c7906144b8565b60405180910390fd5b6108db838383611f44565b505050565b6108e861223d565b6108f1816122bb565b6011600082815260200190815260200160002060008082016000905560018201600061091d91906136e0565b6002820160006101000a81549073ffffffffffffffffffffffffffffffffffffffff02191690556002820160146101000a81549060ff02191690556002820160156101000a81549060ff0219169055505050565b600061097c836110c2565b82106109bd576040517f08c379a00000000000000000000000000000000000000000000000000000000081526004016109b49061454a565b60405180910390fd5b600760008473ffffffffffffffffffffffffffffffffffffffff1673ffffffffffffffffffffffffffffffffffffffff168152602001908152602001600020600083815260200190815260200160002054905092915050565b610a3183838360405180602001604052806000815250611411565b505050565b60606000825167ffffffffffffffff811115610a5557610a54613ab5565b5b604051908082528060200260200182016040528015610a8e57816020015b610a7b613720565b815260200190600190039081610a735790505b50905060005b8351811015610c305760116000858381518110610ab457610ab361456a565b5b602002602001015181526020019081526020016000206040518060a001604052908160008201548152602001600182018054610aef906142f1565b80601f0160208091040260200160405190810160405280929190818152602001828054610b1b906142f1565b8015610b685780601f10610b3d57610100808354040283529160200191610b68565b820191906000526020600020905b815481529060010190602001808311610b4b57829003601f168201915b505050505081526020016002820160009054906101000a900473ffffffffffffffffffffffffffffffffffffffff1673ffffffffffffffffffffffffffffffffffffffff1673ffffffffffffffffffffffffffffffffffffffff1681526020016002820160149054906101000a900460ff1660ff1660ff1681526020016002820160159054906101000a900460ff161515151581525050828281518110610c1257610c1161456a565b5b60200260200101819052508080610c28906145c8565b915050610a94565b5080915050919050565b6000610c44610873565b8210610c85576040517f08c379a0000000000000000000000000000000000000000000000000000000008152600401610c7c90614682565b60405180910390fd5b60098281548110610c9957610c9861456a565b5b90600052602060002001549050919050565b60606000610cb9600d611ea1565b905060008060005b83811015610d61573373ffffffffffffffffffffffffffffffffffffffff1660116000600184610cf191906146a2565b815260200190815260200160002060020160009054906101000a900473ffffffffffffffffffffffffffffffffffffffff1673ffffffffffffffffffffffffffffffffffffffff1603610d4e57600183610d4b91906146a2565b92505b8080610d59906145c8565b915050610cc1565b5060008267ffffffffffffffff811115610d7e57610d7d613ab5565b5b604051908082528060200260200182016040528015610db757816020015b610da4613720565b815260200190600190039081610d9c5790505b50905060005b84811015610fdb573373ffffffffffffffffffffffffffffffffffffffff1660116000600184610ded91906146a2565b815260200190815260200160002060020160009054906101000a900473ffffffffffffffffffffffffffffffffffffffff1673ffffffffffffffffffffffffffffffffffffffff1603610fc8576000600182610e4991906146a2565b90506000601160008381526020019081526020016000209050806040518060a001604052908160008201548152602001600182018054610e88906142f1565b80601f0160208091040260200160405190810160405280929190818152602001828054610eb4906142f1565b8015610f015780601f10610ed657610100808354040283529160200191610f01565b820191906000526020600020905b815481529060010190602001808311610ee457829003601f168201915b505050505081526020016002820160009054906101000a900473ffffffffffffffffffffffffffffffffffffffff1673ffffffffffffffffffffffffffffffffffffffff1673ffffffffffffffffffffffffffffffffffffffff1681526020016002820160149054906101000a900460ff1660ff1660ff1681526020016002820160159054906101000a900460ff161515151581525050848681518110610fab57610faa61456a565b5b6020026020010181905250600185610fc391906146a2565b945050505b8080610fd3906145c8565b915050610dbd565b508094505050505090565b6000601060008373ffffffffffffffffffffffffffffffffffffffff1673ffffffffffffffffffffffffffffffffffffffff16815260200190815260200160002060009054906101000a900460ff169050919050565b600080611048836122c7565b9050600073ffffffffffffffffffffffffffffffffffffffff168173ffffffffffffffffffffffffffffffffffffffff16036110b9576040517f08c379a00000000000000000000000000000000000000000000000000000000081526004016110b090614722565b60405180910390fd5b80915050919050565b60008073ffffffffffffffffffffffffffffffffffffffff168273ffffffffffffffffffffffffffffffffffffffff1603611132576040517f08c379a0000000000000000000000000000000000000000000000000000000008152600401611129906147b4565b60405180910390fd5b600360008373ffffffffffffffffffffffffffffffffffffffff1673ffffffffffffffffffffffffffffffffffffffff168152602001908152602001600020549050919050565b61118161223d565b61118b6000612304565b565b6001601060008373ffffffffffffffffffffffffffffffffffffffff1673ffffffffffffffffffffffffffffffffffffffff16815260200190815260200160002060006101000a81548160ff02191690831515021790555050565b6000600c60009054906101000a900473ffffffffffffffffffffffffffffffffffffffff16905090565b60006011600084815260200190815260200160002060020160009054906101000a900473ffffffffffffffffffffffffffffffffffffffff1690506112556111e8565b73ffffffffffffffffffffffffffffffffffffffff163373ffffffffffffffffffffffffffffffffffffffff1614806112b957508073ffffffffffffffffffffffffffffffffffffffff163373ffffffffffffffffffffffffffffffffffffffff16145b6112f8576040517f08c379a00000000000000000000000000000000000000000000000000000000081526004016112ef90614820565b60405180910390fd5b611303818385610880565b816011600085815260200190815260200160002060020160006101000a81548173ffffffffffffffffffffffffffffffffffffffff021916908373ffffffffffffffffffffffffffffffffffffffff160217905550505050565b60606001805461136c906142f1565b80601f0160208091040260200160405190810160405280929190818152602001828054611398906142f1565b80156113e55780601f106113ba576101008083540402835291602001916113e5565b820191906000526020600020905b8154815290600101906020018083116113c857829003601f168201915b5050505050905090565b6114016113fa611de0565b83836123ca565b5050565b600d8060000154905081565b61142261141c611de0565b83611eaf565b611461576040517f08c379a0000000000000000000000000000000000000000000000000000000008152600401611458906144b8565b60405180910390fd5b61146d84848484612536565b50505050565b60006011600083815260200190815260200160002060020160009054906101000a900473ffffffffffffffffffffffffffffffffffffffff169050919050565b60606114be82612592565b6040516020016114ce919061487c565b6040516020818303038152906040529050919050565b606060006114f1836110c2565b905060008167ffffffffffffffff81111561150f5761150e613ab5565b5b60405190808252806020026020018201604052801561153d5781602001602082028036833780820191505090505b50905060005b8281101561158d5760006115578683610971565b90508083838151811061156d5761156c61456a565b5b602002602001018181525050508080611585906145c8565b915050611543565b508092505050919050565b336115a16111e8565b73ffffffffffffffffffffffffffffffffffffffff163373ffffffffffffffffffffffffffffffffffffffff16148061162a575060011515601060008373ffffffffffffffffffffffffffffffffffffffff1673ffffffffffffffffffffffffffffffffffffffff16815260200190815260200160002060009054906101000a900460ff161515145b611669576040517f08c379a0000000000000000000000000000000000000000000000000000000008152600401611660906148df565b60405180910390fd5b8160ff16600e60009054906101000a900473ffffffffffffffffffffffffffffffffffffffff1673ffffffffffffffffffffffffffffffffffffffff166370a08231336040518263ffffffff1660e01b81526004016116c891906139ac565b602060405180830381865afa1580156116e5573d6000803e3d6000fd5b505050506040513d601f19601f820116820180604052508101906117099190614914565b1161171357600080fd5b600e60009054906101000a900473ffffffffffffffffffffffffffffffffffffffff1673ffffffffffffffffffffffffffffffffffffffff166323b872dd3361175a6111e8565b856040518463ffffffff1660e01b81526004016117799392919061497c565b6020604051808303816000875af1158015611798573d6000803e3d6000fd5b505050506040513d601f19601f820116820180604052508101906117bc91906149c8565b506117c7600d6126a4565b60006117d3600d611ea1565b90506117df33826126ba565b6117e981856126d8565b60006040518060a001604052808381526020018681526020013373ffffffffffffffffffffffffffffffffffffffff1681526020018560ff16815260200160001515815250905080601160008481526020019081526020016000206000820151816000015560208201518160010190816118639190614b97565b5060408201518160020160006101000a81548173ffffffffffffffffffffffffffffffffffffffff021916908373ffffffffffffffffffffffffffffffffffffffff16021790555060608201518160020160146101000a81548160ff021916908360ff16021790555060808201518160020160156101000a81548160ff0219169083151502179055509050505050505050565b6000600560008473ffffffffffffffffffffffffffffffffffffffff1673ffffffffffffffffffffffffffffffffffffffff16815260200190815260200160002060008373ffffffffffffffffffffffffffffffffffffffff1673ffffffffffffffffffffffffffffffffffffffff16815260200190815260200160002060009054906101000a900460ff16905092915050565b61199261223d565b600073ffffffffffffffffffffffffffffffffffffffff168173ffffffffffffffffffffffffffffffffffffffff1603611a01576040517f08c379a00000000000000000000000000000000000000000000000000000000081526004016119f890614cdb565b60405180910390fd5b611a0a81612304565b50565b33611a166111e8565b73ffffffffffffffffffffffffffffffffffffffff163373ffffffffffffffffffffffffffffffffffffffff161480611a9f575060011515601060008373ffffffffffffffffffffffffffffffffffffffff1673ffffffffffffffffffffffffffffffffffffffff16815260200190815260200160002060009054906101000a900460ff161515145b611ade576040517f08c379a0000000000000000000000000000000000000000000000000000000008152600401611ad5906148df565b60405180910390fd5b60001515600f83604051611af2919061487c565b908152602001604051809103902060009054906101000a900460ff16151514611b50576040517f08c379a0000000000000000000000000000000000000000000000000000000008152600401611b4790614d47565b60405180910390fd5b611b5a600d6126a4565b6000611b66600d611ea1565b9050611b7233826126ba565b611b7c81846126d8565b6001600f84604051611b8e919061487c565b908152602001604051809103902060006101000a81548160ff02191690831515021790555060006040518060a001604052808381526020018581526020013373ffffffffffffffffffffffffffffffffffffffff168152602001600060ff1681526020016000151581525090508060116000848152602001908152602001600020600082015181600001556020820151816001019081611c2e9190614b97565b5060408201518160020160006101000a81548173ffffffffffffffffffffffffffffffffffffffff021916908373ffffffffffffffffffffffffffffffffffffffff16021790555060608201518160020160146101000a81548160ff021916908360ff16021790555060808201518160020160156101000a81548160ff02191690831515021790555090505050505050565b6000601060008373ffffffffffffffffffffffffffffffffffffffff1673ffffffffffffffffffffffffffffffffffffffff16815260200190815260200160002060006101000a81548160ff02191690831515021790555050565b60007f780e9d63000000000000000000000000000000000000000000000000000000007bffffffffffffffffffffffffffffffffffffffffffffffffffffffff1916827bffffffffffffffffffffffffffffffffffffffffffffffffffffffff19161480611d8e5750611d8d82612745565b5b9050919050565b611d9e81612827565b611ddd576040517f08c379a0000000000000000000000000000000000000000000000000000000008152600401611dd490614722565b60405180910390fd5b50565b600033905090565b816004600083815260200190815260200160002060006101000a81548173ffffffffffffffffffffffffffffffffffffffff021916908373ffffffffffffffffffffffffffffffffffffffff160217905550808273ffffffffffffffffffffffffffffffffffffffff16611e5b8361103c565b73ffffffffffffffffffffffffffffffffffffffff167f8c5be1e5ebec7d5bd14f71427d1e84f3dd0314c0f7b2291e5b200ac8c7c3b92560405160405180910390a45050565b600081600001549050919050565b600080611ebb8361103c565b90508073ffffffffffffffffffffffffffffffffffffffff168473ffffffffffffffffffffffffffffffffffffffff161480611efd5750611efc81856118f6565b5b80611f3b57508373ffffffffffffffffffffffffffffffffffffffff16611f2384610705565b73ffffffffffffffffffffffffffffffffffffffff16145b91505092915050565b8273ffffffffffffffffffffffffffffffffffffffff16611f648261103c565b73ffffffffffffffffffffffffffffffffffffffff1614611fba576040517f08c379a0000000000000000000000000000000000000000000000000000000008152600401611fb190614dd9565b60405180910390fd5b600073ffffffffffffffffffffffffffffffffffffffff168273ffffffffffffffffffffffffffffffffffffffff1603612029576040517f08c379a000000000000000000000000000000000000000000000000000000000815260040161202090614e6b565b60405180910390fd5b6120368383836001612868565b8273ffffffffffffffffffffffffffffffffffffffff166120568261103c565b73ffffffffffffffffffffffffffffffffffffffff16146120ac576040517f08c379a00000000000000000000000000000000000000000000000000000000081526004016120a390614dd9565b60405180910390fd5b6004600082815260200190815260200160002060006101000a81549073ffffffffffffffffffffffffffffffffffffffff02191690556001600360008573ffffffffffffffffffffffffffffffffffffffff1673ffffffffffffffffffffffffffffffffffffffff168152602001908152602001600020600082825403925050819055506001600360008473ffffffffffffffffffffffffffffffffffffffff1673ffffffffffffffffffffffffffffffffffffffff16815260200190815260200160002060008282540192505081905550816002600083815260200190815260200160002060006101000a81548173ffffffffffffffffffffffffffffffffffffffff021916908373ffffffffffffffffffffffffffffffffffffffff160217905550808273ffffffffffffffffffffffffffffffffffffffff168473ffffffffffffffffffffffffffffffffffffffff167fddf252ad1be2c89b69c2b068fc378daa952ba7f163c4a11628f55a4df523b3ef60405160405180910390a4612238838383600161287a565b505050565b612245611de0565b73ffffffffffffffffffffffffffffffffffffffff166122636111e8565b73ffffffffffffffffffffffffffffffffffffffff16146122b9576040517f08c379a00000000000000000000000000000000000000000000000000000000081526004016122b090614ed7565b60405180910390fd5b565b6122c481612880565b50565b60006002600083815260200190815260200160002060009054906101000a900473ffffffffffffffffffffffffffffffffffffffff169050919050565b6000600c60009054906101000a900473ffffffffffffffffffffffffffffffffffffffff16905081600c60006101000a81548173ffffffffffffffffffffffffffffffffffffffff021916908373ffffffffffffffffffffffffffffffffffffffff1602179055508173ffffffffffffffffffffffffffffffffffffffff168173ffffffffffffffffffffffffffffffffffffffff167f8be0079c531659141344cd1fd0a4f28419497f9722a3daafe3b4186f6b6457e060405160405180910390a35050565b8173ffffffffffffffffffffffffffffffffffffffff168373ffffffffffffffffffffffffffffffffffffffff1603612438576040517f08c379a000000000000000000000000000000000000000000000000000000000815260040161242f90614f43565b60405180910390fd5b80600560008573ffffffffffffffffffffffffffffffffffffffff1673ffffffffffffffffffffffffffffffffffffffff16815260200190815260200160002060008473ffffffffffffffffffffffffffffffffffffffff1673ffffffffffffffffffffffffffffffffffffffff16815260200190815260200160002060006101000a81548160ff0219169083151502179055508173ffffffffffffffffffffffffffffffffffffffff168373ffffffffffffffffffffffffffffffffffffffff167f17307eab39ab6107e8899845ad3d59bd9653f200f220920489ca2b5937696c3183604051612529919061383b565b60405180910390a3505050565b612541848484611f44565b61254d848484846128d3565b61258c576040517f08c379a000000000000000000000000000000000000000000000000000000000815260040161258390614fd5565b60405180910390fd5b50505050565b606061259d82611d95565b60006006600084815260200190815260200160002080546125bd906142f1565b80601f01602080910402602001604051908101604052809291908181526020018280546125e9906142f1565b80156126365780601f1061260b57610100808354040283529160200191612636565b820191906000526020600020905b81548152906001019060200180831161261957829003601f168201915b505050505090506000612647612a5a565b9050600081510361265c57819250505061269f565b600082511115612691578082604051602001612679929190614ff5565b6040516020818303038152906040529250505061269f565b61269a84612a7a565b925050505b919050565b6001816000016000828254019250508190555050565b6126d4828260405180602001604052806000815250612ae2565b5050565b6126e182612827565b612720576040517f08c379a00000000000000000000000000000000000000000000000000000000081526004016127179061508b565b60405180910390fd5b806006600084815260200190815260200160002090816127409190614b97565b505050565b60007f80ac58cd000000000000000000000000000000000000000000000000000000007bffffffffffffffffffffffffffffffffffffffffffffffffffffffff1916827bffffffffffffffffffffffffffffffffffffffffffffffffffffffff1916148061281057507f5b5e139f000000000000000000000000000000000000000000000000000000007bffffffffffffffffffffffffffffffffffffffffffffffffffffffff1916827bffffffffffffffffffffffffffffffffffffffffffffffffffffffff1916145b80612820575061281f82612b3d565b5b9050919050565b60008073ffffffffffffffffffffffffffffffffffffffff16612849836122c7565b73ffffffffffffffffffffffffffffffffffffffff1614159050919050565b61287484848484612ba7565b50505050565b50505050565b61288981612d05565b60006006600083815260200190815260200160002080546128a9906142f1565b9050146128d0576006600082815260200190815260200160002060006128cf91906136e0565b5b50565b60006128f48473ffffffffffffffffffffffffffffffffffffffff16612e53565b15612a4d578373ffffffffffffffffffffffffffffffffffffffff1663150b7a0261291d611de0565b8786866040518563ffffffff1660e01b815260040161293f9493929190615100565b6020604051808303816000875af192505050801561297b57506040513d601f19601f820116820180604052508101906129789190615161565b60015b6129fd573d80600081146129ab576040519150601f19603f3d011682016040523d82523d6000602084013e6129b0565b606091505b5060008151036129f5576040517f08c379a00000000000000000000000000000000000000000000000000000000081526004016129ec90614fd5565b60405180910390fd5b805181602001fd5b63150b7a0260e01b7bffffffffffffffffffffffffffffffffffffffffffffffffffffffff1916817bffffffffffffffffffffffffffffffffffffffffffffffffffffffff191614915050612a52565b600190505b949350505050565b60606040518060600160405280602a815260200161538b602a9139905090565b6060612a8582611d95565b6000612a8f612a5a565b90506000815111612aaf5760405180602001604052806000815250612ada565b80612ab984612e76565b604051602001612aca929190614ff5565b6040516020818303038152906040525b915050919050565b612aec8383612f44565b612af960008484846128d3565b612b38576040517f08c379a0000000000000000000000000000000000000000000000000000000008152600401612b2f90614fd5565b60405180910390fd5b505050565b60007f01ffc9a7000000000000000000000000000000000000000000000000000000007bffffffffffffffffffffffffffffffffffffffffffffffffffffffff1916827bffffffffffffffffffffffffffffffffffffffffffffffffffffffff1916149050919050565b612bb384848484613161565b6001811115612bf7576040517f08c379a0000000000000000000000000000000000000000000000000000000008152600401612bee90615200565b60405180910390fd5b6000829050600073ffffffffffffffffffffffffffffffffffffffff168573ffffffffffffffffffffffffffffffffffffffff1603612c3e57612c3981613287565b612c7d565b8373ffffffffffffffffffffffffffffffffffffffff168573ffffffffffffffffffffffffffffffffffffffff1614612c7c57612c7b85826132d0565b5b5b600073ffffffffffffffffffffffffffffffffffffffff168473ffffffffffffffffffffffffffffffffffffffff1603612cbf57612cba8161343d565b612cfe565b8473ffffffffffffffffffffffffffffffffffffffff168473ffffffffffffffffffffffffffffffffffffffff1614612cfd57612cfc848261350e565b5b5b5050505050565b6000612d108261103c565b9050612d20816000846001612868565b612d298261103c565b90506004600083815260200190815260200160002060006101000a81549073ffffffffffffffffffffffffffffffffffffffff02191690556001600360008373ffffffffffffffffffffffffffffffffffffffff1673ffffffffffffffffffffffffffffffffffffffff168152602001908152602001600020600082825403925050819055506002600083815260200190815260200160002060006101000a81549073ffffffffffffffffffffffffffffffffffffffff021916905581600073ffffffffffffffffffffffffffffffffffffffff168273ffffffffffffffffffffffffffffffffffffffff167fddf252ad1be2c89b69c2b068fc378daa952ba7f163c4a11628f55a4df523b3ef60405160405180910390a4612e4f81600084600161287a565b5050565b6000808273ffffffffffffffffffffffffffffffffffffffff163b119050919050565b606060006001612e858461358d565b01905060008167ffffffffffffffff811115612ea457612ea3613ab5565b5b6040519080825280601f01601f191660200182016040528015612ed65781602001600182028036833780820191505090505b509050600082602001820190505b600115612f39578080600190039150507f3031323334353637383961626364656600000000000000000000000000000000600a86061a8153600a8581612f2d57612f2c615220565b5b04945060008503612ee4575b819350505050919050565b600073ffffffffffffffffffffffffffffffffffffffff168273ffffffffffffffffffffffffffffffffffffffff1603612fb3576040517f08c379a0000000000000000000000000000000000000000000000000000000008152600401612faa9061529b565b60405180910390fd5b612fbc81612827565b15612ffc576040517f08c379a0000000000000000000000000000000000000000000000000000000008152600401612ff390615307565b60405180910390fd5b61300a600083836001612868565b61301381612827565b15613053576040517f08c379a000000000000000000000000000000000000000000000000000000000815260040161304a90615307565b60405180910390fd5b6001600360008473ffffffffffffffffffffffffffffffffffffffff1673ffffffffffffffffffffffffffffffffffffffff16815260200190815260200160002060008282540192505081905550816002600083815260200190815260200160002060006101000a81548173ffffffffffffffffffffffffffffffffffffffff021916908373ffffffffffffffffffffffffffffffffffffffff160217905550808273ffffffffffffffffffffffffffffffffffffffff16600073ffffffffffffffffffffffffffffffffffffffff167fddf252ad1be2c89b69c2b068fc378daa952ba7f163c4a11628f55a4df523b3ef60405160405180910390a461315d60008383600161287a565b5050565b600181111561328157600073ffffffffffffffffffffffffffffffffffffffff168473ffffffffffffffffffffffffffffffffffffffff16146131f55780600360008673ffffffffffffffffffffffffffffffffffffffff1673ffffffffffffffffffffffffffffffffffffffff16815260200190815260200160002060008282546131ed9190615327565b925050819055505b600073ffffffffffffffffffffffffffffffffffffffff168373ffffffffffffffffffffffffffffffffffffffff16146132805780600360008573ffffffffffffffffffffffffffffffffffffffff1673ffffffffffffffffffffffffffffffffffffffff168152602001908152602001600020600082825461327891906146a2565b925050819055505b5b50505050565b600980549050600a600083815260200190815260200160002081905550600981908060018154018082558091505060019003906000526020600020016000909190919091505550565b600060016132dd846110c2565b6132e79190615327565b90506000600860008481526020019081526020016000205490508181146133cc576000600760008673ffffffffffffffffffffffffffffffffffffffff1673ffffffffffffffffffffffffffffffffffffffff168152602001908152602001600020600084815260200190815260200160002054905080600760008773ffffffffffffffffffffffffffffffffffffffff1673ffffffffffffffffffffffffffffffffffffffff168152602001908152602001600020600084815260200190815260200160002081905550816008600083815260200190815260200160002081905550505b6008600084815260200190815260200160002060009055600760008573ffffffffffffffffffffffffffffffffffffffff1673ffffffffffffffffffffffffffffffffffffffff16815260200190815260200160002060008381526020019081526020016000206000905550505050565b600060016009805490506134519190615327565b90506000600a60008481526020019081526020016000205490506000600983815481106134815761348061456a565b5b9060005260206000200154905080600983815481106134a3576134a261456a565b5b906000526020600020018190555081600a600083815260200190815260200160002081905550600a60008581526020019081526020016000206000905560098054806134f2576134f161535b565b5b6001900381819060005260206000200160009055905550505050565b6000613519836110c2565b905081600760008573ffffffffffffffffffffffffffffffffffffffff1673ffffffffffffffffffffffffffffffffffffffff168152602001908152602001600020600083815260200190815260200160002081905550806008600084815260200190815260200160002081905550505050565b600080600090507a184f03e93ff9f4daa797ed6e38ed64bf6a1f01000000000000000083106135eb577a184f03e93ff9f4daa797ed6e38ed64bf6a1f01000000000000000083816135e1576135e0615220565b5b0492506040810190505b6d04ee2d6d415b85acef81000000008310613628576d04ee2d6d415b85acef8100000000838161361e5761361d615220565b5b0492506020810190505b662386f26fc10000831061365757662386f26fc10000838161364d5761364c615220565b5b0492506010810190505b6305f5e1008310613680576305f5e100838161367657613675615220565b5b0492506008810190505b61271083106136a557612710838161369b5761369a615220565b5b0492506004810190505b606483106136c857606483816136be576136bd615220565b5b0492506002810190505b600a83106136d7576001810190505b80915050919050565b5080546136ec906142f1565b6000825580601f106136fe575061371d565b601f01602090049060005260206000209081019061371c919061376a565b5b50565b6040518060a001604052806000815260200160608152602001600073ffffffffffffffffffffffffffffffffffffffff168152602001600060ff1681526020016000151581525090565b5b8082111561378357600081600090555060010161376b565b5090565b6000604051905090565b600080fd5b600080fd5b60007fffffffff0000000000000000000000000000000000000000000000000000000082169050919050565b6137d08161379b565b81146137db57600080fd5b50565b6000813590506137ed816137c7565b92915050565b60006020828403121561380957613808613791565b5b6000613817848285016137de565b91505092915050565b60008115159050919050565b61383581613820565b82525050565b6000602082019050613850600083018461382c565b92915050565b600081519050919050565b600082825260208201905092915050565b60005b83811015613890578082015181840152602081019050613875565b60008484015250505050565b6000601f19601f8301169050919050565b60006138b882613856565b6138c28185613861565b93506138d2818560208601613872565b6138db8161389c565b840191505092915050565b6000602082019050818103600083015261390081846138ad565b905092915050565b6000819050919050565b61391b81613908565b811461392657600080fd5b50565b60008135905061393881613912565b92915050565b60006020828403121561395457613953613791565b5b600061396284828501613929565b91505092915050565b600073ffffffffffffffffffffffffffffffffffffffff82169050919050565b60006139968261396b565b9050919050565b6139a68161398b565b82525050565b60006020820190506139c1600083018461399d565b92915050565b6139d08161398b565b81146139db57600080fd5b50565b6000813590506139ed816139c7565b92915050565b60008060408385031215613a0a57613a09613791565b5b6000613a18858286016139de565b9250506020613a2985828601613929565b9150509250929050565b613a3c81613908565b82525050565b6000602082019050613a576000830184613a33565b92915050565b600080600060608486031215613a7657613a75613791565b5b6000613a84868287016139de565b9350506020613a95868287016139de565b9250506040613aa686828701613929565b9150509250925092565b600080fd5b7f4e487b7100000000000000000000000000000000000000000000000000000000600052604160045260246000fd5b613aed8261389c565b810181811067ffffffffffffffff82111715613b0c57613b0b613ab5565b5b80604052505050565b6000613b1f613787565b9050613b2b8282613ae4565b919050565b600067ffffffffffffffff821115613b4b57613b4a613ab5565b5b602082029050602081019050919050565b600080fd5b6000613b74613b6f84613b30565b613b15565b90508083825260208201905060208402830185811115613b9757613b96613b5c565b5b835b81811015613bc05780613bac8882613929565b845260208401935050602081019050613b99565b5050509392505050565b600082601f830112613bdf57613bde613ab0565b5b8135613bef848260208601613b61565b91505092915050565b600060208284031215613c0e57613c0d613791565b5b600082013567ffffffffffffffff811115613c2c57613c2b613796565b5b613c3884828501613bca565b91505092915050565b600081519050919050565b600082825260208201905092915050565b6000819050602082019050919050565b613c7681613908565b82525050565b600082825260208201905092915050565b6000613c9882613856565b613ca28185613c7c565b9350613cb2818560208601613872565b613cbb8161389c565b840191505092915050565b613ccf8161398b565b82525050565b600060ff82169050919050565b613ceb81613cd5565b82525050565b613cfa81613820565b82525050565b600060a083016000830151613d186000860182613c6d565b5060208301518482036020860152613d308282613c8d565b9150506040830151613d456040860182613cc6565b506060830151613d586060860182613ce2565b506080830151613d6b6080860182613cf1565b508091505092915050565b6000613d828383613d00565b905092915050565b6000602082019050919050565b6000613da282613c41565b613dac8185613c4c565b935083602082028501613dbe85613c5d565b8060005b85811015613dfa5784840389528151613ddb8582613d76565b9450613de683613d8a565b925060208a01995050600181019050613dc2565b50829750879550505050505092915050565b60006020820190508181036000830152613e268184613d97565b905092915050565b600060208284031215613e4457613e43613791565b5b6000613e52848285016139de565b91505092915050565b60008060408385031215613e7257613e71613791565b5b6000613e8085828601613929565b9250506020613e91858286016139de565b9150509250929050565b613ea481613820565b8114613eaf57600080fd5b50565b600081359050613ec181613e9b565b92915050565b60008060408385031215613ede57613edd613791565b5b6000613eec858286016139de565b9250506020613efd85828601613eb2565b9150509250929050565b600080fd5b600067ffffffffffffffff821115613f2757613f26613ab5565b5b613f308261389c565b9050602081019050919050565b82818337600083830152505050565b6000613f5f613f5a84613f0c565b613b15565b905082815260208101848484011115613f7b57613f7a613f07565b5b613f86848285613f3d565b509392505050565b600082601f830112613fa357613fa2613ab0565b5b8135613fb3848260208601613f4c565b91505092915050565b60008060008060808587031215613fd657613fd5613791565b5b6000613fe4878288016139de565b9450506020613ff5878288016139de565b935050604061400687828801613929565b925050606085013567ffffffffffffffff81111561402757614026613796565b5b61403387828801613f8e565b91505092959194509250565b600081519050919050565b600082825260208201905092915050565b6000819050602082019050919050565b60006140778383613c6d565b60208301905092915050565b6000602082019050919050565b600061409b8261403f565b6140a5818561404a565b93506140b08361405b565b8060005b838110156140e15781516140c8888261406b565b97506140d383614083565b9250506001810190506140b4565b5085935050505092915050565b600060208201905081810360008301526141088184614090565b905092915050565b600067ffffffffffffffff82111561412b5761412a613ab5565b5b6141348261389c565b9050602081019050919050565b600061415461414f84614110565b613b15565b9050828152602081018484840111156141705761416f613f07565b5b61417b848285613f3d565b509392505050565b600082601f83011261419857614197613ab0565b5b81356141a8848260208601614141565b91505092915050565b6141ba81613cd5565b81146141c557600080fd5b50565b6000813590506141d7816141b1565b92915050565b600080604083850312156141f4576141f3613791565b5b600083013567ffffffffffffffff81111561421257614211613796565b5b61421e85828601614183565b925050602061422f858286016141c8565b9150509250929050565b600080604083850312156142505761424f613791565b5b600061425e858286016139de565b925050602061426f858286016139de565b9150509250929050565b60006020828403121561428f5761428e613791565b5b600082013567ffffffffffffffff8111156142ad576142ac613796565b5b6142b984828501614183565b91505092915050565b7f4e487b7100000000000000000000000000000000000000000000000000000000600052602260045260246000fd5b6000600282049050600182168061430957607f821691505b60208210810361431c5761431b6142c2565b5b50919050565b7f4552433732313a20617070726f76616c20746f2063757272656e74206f776e6560008201527f7200000000000000000000000000000000000000000000000000000000000000602082015250565b600061437e602183613861565b915061438982614322565b604082019050919050565b600060208201905081810360008301526143ad81614371565b9050919050565b7f4552433732313a20617070726f76652063616c6c6572206973206e6f7420746f60008201527f6b656e206f776e6572206f7220617070726f76656420666f7220616c6c000000602082015250565b6000614410603d83613861565b915061441b826143b4565b604082019050919050565b6000602082019050818103600083015261443f81614403565b9050919050565b7f4552433732313a2063616c6c6572206973206e6f7420746f6b656e206f776e6560008201527f72206f7220617070726f76656400000000000000000000000000000000000000602082015250565b60006144a2602d83613861565b91506144ad82614446565b604082019050919050565b600060208201905081810360008301526144d181614495565b9050919050565b7f455243373231456e756d657261626c653a206f776e657220696e646578206f7560008201527f74206f6620626f756e6473000000000000000000000000000000000000000000602082015250565b6000614534602b83613861565b915061453f826144d8565b604082019050919050565b6000602082019050818103600083015261456381614527565b9050919050565b7f4e487b7100000000000000000000000000000000000000000000000000000000600052603260045260246000fd5b7f4e487b7100000000000000000000000000000000000000000000000000000000600052601160045260246000fd5b60006145d382613908565b91507fffffffffffffffffffffffffffffffffffffffffffffffffffffffffffffffff820361460557614604614599565b5b600182019050919050565b7f455243373231456e756d657261626c653a20676c6f62616c20696e646578206f60008201527f7574206f6620626f756e64730000000000000000000000000000000000000000602082015250565b600061466c602c83613861565b915061467782614610565b604082019050919050565b6000602082019050818103600083015261469b8161465f565b9050919050565b60006146ad82613908565b91506146b883613908565b92508282019050808211156146d0576146cf614599565b5b92915050565b7f4552433732313a20696e76616c696420746f6b656e2049440000000000000000600082015250565b600061470c601883613861565b9150614717826146d6565b602082019050919050565b6000602082019050818103600083015261473b816146ff565b9050919050565b7f4552433732313a2061646472657373207a65726f206973206e6f74206120766160008201527f6c6964206f776e65720000000000000000000000000000000000000000000000602082015250565b600061479e602983613861565b91506147a982614742565b604082019050919050565b600060208201905081810360008301526147cd81614791565b9050919050565b7f796f7520646f6e27742068617665207472616e73666572206e66740000000000600082015250565b600061480a601b83613861565b9150614815826147d4565b602082019050919050565b60006020820190508181036000830152614839816147fd565b9050919050565b600081905092915050565b600061485682613856565b6148608185614840565b9350614870818560208601613872565b80840191505092915050565b6000614888828461484b565b915081905092915050565b7f796f7520646f6e27742068617665206d696e7420617574686f72697479000000600082015250565b60006148c9601d83613861565b91506148d482614893565b602082019050919050565b600060208201905081810360008301526148f8816148bc565b9050919050565b60008151905061490e81613912565b92915050565b60006020828403121561492a57614929613791565b5b6000614938848285016148ff565b91505092915050565b6000819050919050565b600061496661496161495c84613cd5565b614941565b613908565b9050919050565b6149768161494b565b82525050565b6000606082019050614991600083018661399d565b61499e602083018561399d565b6149ab604083018461496d565b949350505050565b6000815190506149c281613e9b565b92915050565b6000602082840312156149de576149dd613791565b5b60006149ec848285016149b3565b91505092915050565b60008190508160005260206000209050919050565b60006020601f8301049050919050565b600082821b905092915050565b600060088302614a577fffffffffffffffffffffffffffffffffffffffffffffffffffffffffffffffff82614a1a565b614a618683614a1a565b95508019841693508086168417925050509392505050565b6000614a94614a8f614a8a84613908565b614941565b613908565b9050919050565b6000819050919050565b614aae83614a79565b614ac2614aba82614a9b565b848454614a27565b825550505050565b600090565b614ad7614aca565b614ae2818484614aa5565b505050565b5b81811015614b0657614afb600082614acf565b600181019050614ae8565b5050565b601f821115614b4b57614b1c816149f5565b614b2584614a0a565b81016020851015614b34578190505b614b48614b4085614a0a565b830182614ae7565b50505b505050565b600082821c905092915050565b6000614b6e60001984600802614b50565b1980831691505092915050565b6000614b878383614b5d565b9150826002028217905092915050565b614ba082613856565b67ffffffffffffffff811115614bb957614bb8613ab5565b5b614bc382546142f1565b614bce828285614b0a565b600060209050601f831160018114614c015760008415614bef578287015190505b614bf98582614b7b565b865550614c61565b601f198416614c0f866149f5565b60005b82811015614c3757848901518255600182019150602085019450602081019050614c12565b86831015614c545784890151614c50601f891682614b5d565b8355505b6001600288020188555050505b505050505050565b7f4f776e61626c653a206e6577206f776e657220697320746865207a65726f206160008201527f6464726573730000000000000000000000000000000000000000000000000000602082015250565b6000614cc5602683613861565b9150614cd082614c69565b604082019050919050565b60006020820190508181036000830152614cf481614cb8565b9050919050565b7f6d65746144617461434944206973207265706561746564000000000000000000600082015250565b6000614d31601783613861565b9150614d3c82614cfb565b602082019050919050565b60006020820190508181036000830152614d6081614d24565b9050919050565b7f4552433732313a207472616e736665722066726f6d20696e636f72726563742060008201527f6f776e6572000000000000000000000000000000000000000000000000000000602082015250565b6000614dc3602583613861565b9150614dce82614d67565b604082019050919050565b60006020820190508181036000830152614df281614db6565b9050919050565b7f4552433732313a207472616e7366657220746f20746865207a65726f2061646460008201527f7265737300000000000000000000000000000000000000000000000000000000602082015250565b6000614e55602483613861565b9150614e6082614df9565b604082019050919050565b60006020820190508181036000830152614e8481614e48565b9050919050565b7f4f776e61626c653a2063616c6c6572206973206e6f7420746865206f776e6572600082015250565b6000614ec1602083613861565b9150614ecc82614e8b565b602082019050919050565b60006020820190508181036000830152614ef081614eb4565b9050919050565b7f4552433732313a20617070726f766520746f2063616c6c657200000000000000600082015250565b6000614f2d601983613861565b9150614f3882614ef7565b602082019050919050565b60006020820190508181036000830152614f5c81614f20565b9050919050565b7f4552433732313a207472616e7366657220746f206e6f6e20455243373231526560008201527f63656976657220696d706c656d656e7465720000000000000000000000000000602082015250565b6000614fbf603283613861565b9150614fca82614f63565b604082019050919050565b60006020820190508181036000830152614fee81614fb2565b9050919050565b6000615001828561484b565b915061500d828461484b565b91508190509392505050565b7f45524337323155524953746f726167653a2055524920736574206f66206e6f6e60008201527f6578697374656e7420746f6b656e000000000000000000000000000000000000602082015250565b6000615075602e83613861565b915061508082615019565b604082019050919050565b600060208201905081810360008301526150a481615068565b9050919050565b600081519050919050565b600082825260208201905092915050565b60006150d2826150ab565b6150dc81856150b6565b93506150ec818560208601613872565b6150f58161389c565b840191505092915050565b6000608082019050615115600083018761399d565b615122602083018661399d565b61512f6040830185613a33565b818103606083015261514181846150c7565b905095945050505050565b60008151905061515b816137c7565b92915050565b60006020828403121561517757615176613791565b5b60006151858482850161514c565b91505092915050565b7f455243373231456e756d657261626c653a20636f6e736563757469766520747260008201527f616e7366657273206e6f7420737570706f727465640000000000000000000000602082015250565b60006151ea603583613861565b91506151f58261518e565b604082019050919050565b60006020820190508181036000830152615219816151dd565b9050919050565b7f4e487b7100000000000000000000000000000000000000000000000000000000600052601260045260246000fd5b7f4552433732313a206d696e7420746f20746865207a65726f2061646472657373600082015250565b6000615285602083613861565b91506152908261524f565b602082019050919050565b600060208201905081810360008301526152b481615278565b9050919050565b7f4552433732313a20746f6b656e20616c7265616479206d696e74656400000000600082015250565b60006152f1601c83613861565b91506152fc826152bb565b602082019050919050565b60006020820190508181036000830152615320816152e4565b9050919050565b600061533282613908565b915061533d83613908565b925082820390508181111561535557615354614599565b5b92915050565b7f4e487b7100000000000000000000000000000000000000000000000000000000600052603160045260246000fdfe68747470733a2f2f647265616d73656375726974792e696e667572612d697066732e696f2f697066732fa26469706673582212204116e89d4e98b455edf26974b4c182386089124a55a381dfd90126b304f292a864736f6c63430008110033",
  "immutableReferences": {},
  "source": "// SPDX-License-Identifier: MIT\npragma solidity >=0.8.0 <0.9.0;\n\nimport \"@openzeppelin/contracts/token/ERC721/extensions/ERC721Enumerable.sol\";\nimport \"@openzeppelin/contracts/token/ERC721/extensions/ERC721URIStorage.sol\";\nimport \"@openzeppelin/contracts/security/ReentrancyGuard.sol\";\nimport \"@openzeppelin/contracts/token/ERC721/ERC721.sol\";\nimport \"@openzeppelin/contracts/utils/Counters.sol\";\nimport \"@openzeppelin/contracts/access/Ownable.sol\";\n\nimport \"./Lib.sol\";\nimport \"./DreamToken.sol\";\n\ncontract DreamNFT is\n    ERC721URIStorage,\n    ERC721Enumerable,\n    ReentrancyGuard,\n    Ownable\n{\n    using Counters for Counters.Counter;\n    Counters.Counter public _tokenIds;\n\n    address payable private immutable _owner;\n\n    DreamToken private dreamToken;\n\n    constructor(address _tokenAddress) ERC721(\"DreamNFT\", \"DNT\") {\n        _owner = payable(msg.sender);\n        dreamToken = DreamToken(_tokenAddress);\n    }\n\n    mapping(string => bool) private existCID;\n    mapping(address => bool) private mintAuthority;\n    mapping(uint256 => Lib.NFT) private nftStorage;\n\n    /* URIStorage & Enumerable  override */\n    function _burn(\n        uint256 _tokenId\n    ) internal override(ERC721, ERC721URIStorage) {\n        super._burn(_tokenId);\n    }\n\n    function supportsInterface(\n        bytes4 interfaceId\n    ) public view override(ERC721, ERC721Enumerable) returns (bool) {\n        return super.supportsInterface(interfaceId);\n    }\n\n    function _beforeTokenTransfer(\n        address from,\n        address to,\n        uint256 tokenId,\n        uint256 batchSize\n    ) internal override(ERC721, ERC721Enumerable) {\n        super._beforeTokenTransfer(from, to, tokenId, batchSize);\n    }\n\n    function _baseURI() internal pure override(ERC721) returns (string memory) {\n        return \"https://dreamsecurity.infura-ipfs.io/ipfs/\";\n    }\n\n    function tokenURI(\n        uint256 tokenId\n    ) public view override(ERC721, ERC721URIStorage) returns (string memory) {\n        return string(abi.encodePacked(super.tokenURI(tokenId)));\n    }\n\n    /* URIStorage & Enumerable  override */\n\n    modifier mintAuth(address _address) {\n        require(\n            msg.sender == owner() || mintAuthority[_address] == true,\n            \"you don't have mint authority\"\n        );\n        _;\n    }\n\n    //   \n    function setAuthority(address _address) public {\n        mintAuthority[_address] = true;\n    }\n\n    //   \n    function banAuthority(address _address) public {\n        mintAuthority[_address] = false;\n    }\n\n    //    \n    function getAuthority(address _address) external view returns (bool) {\n        return mintAuthority[_address];\n    }\n\n    // tokenOwner \n    function getOwner(uint256 _tokenId) public view returns (address) {\n        return nftStorage[_tokenId].owner;\n    }\n\n    // NFT mint\n    function mintNFT(string memory _metaDataCID) external mintAuth(msg.sender) {\n        require(existCID[_metaDataCID] == false, \"metaDataCID is repeated\");\n\n        _tokenIds.increment();\n        uint256 newTokenId = _tokenIds.current();\n\n        _safeMint(msg.sender, newTokenId);\n        _setTokenURI(newTokenId, _metaDataCID);\n        existCID[_metaDataCID] = true;\n\n        Lib.NFT memory newNFT = Lib.NFT(\n            newTokenId,\n            _metaDataCID,\n            msg.sender,\n            0,\n            false\n        );\n\n        nftStorage[newTokenId] = newNFT;\n    }\n\n    // NFT transfer\n    function transferNFT(uint256 _tokenId, address _to) external {\n        address _nftOwner = nftStorage[_tokenId].owner;\n        require(\n            msg.sender == owner() || msg.sender == _nftOwner,\n            \"you don't have transfer nft\"\n        );\n        transferFrom(_nftOwner, _to, _tokenId);\n        nftStorage[_tokenId].owner = _to;\n    }\n\n    // burn NFT\n    function burnNFT(uint256 _tokenId) external onlyOwner {\n        _burn(_tokenId);\n\n        delete nftStorage[_tokenId];\n    }\n\n    //    \n    function myNFTLists() public view returns (Lib.NFT[] memory) {\n        uint256 totalItemCount = _tokenIds.current();\n        uint256 itemCount = 0;\n        uint256 currentIndex = 0;\n\n        for (uint256 i = 0; i < totalItemCount; i++) {\n            if (nftStorage[i + 1].owner == msg.sender) {\n                itemCount += 1;\n            }\n        }\n\n        Lib.NFT[] memory items = new Lib.NFT[](itemCount);\n        for (uint256 i = 0; i < totalItemCount; i++) {\n            if (nftStorage[i + 1].owner == msg.sender) {\n                uint256 currentId = i + 1;\n                Lib.NFT storage currentItem = nftStorage[currentId];\n                items[currentIndex] = currentItem;\n                currentIndex += 1;\n            }\n        }\n\n        return items;\n    }\n\n    //   NFT  \n    function totalNFTs() public view returns (uint256) {\n        return _tokenIds.current();\n    }\n\n    //   tokenIds \n    function getTokenIds(\n        address _address\n    ) external view returns (uint256[] memory) {\n        uint256 balanceLength = balanceOf(_address);\n        uint256[] memory tokenIds = new uint256[](balanceLength);\n\n        for (uint256 i = 0; i < balanceLength; i++) {\n            uint256 tokenId = tokenOfOwnerByIndex(_address, i);\n            tokenIds[i] = tokenId;\n        }\n\n        return tokenIds;\n    }\n\n    // tokenIds NFT  \n    function getNftsInfo(\n        uint256[] memory tokenIds\n    ) external view returns (Lib.NFT[] memory) {\n        Lib.NFT[] memory nfts = new Lib.NFT[](tokenIds.length);\n\n        for (uint256 i = 0; i < tokenIds.length; i++) {\n            nfts[i] = nftStorage[tokenIds[i]];\n        }\n\n        return nfts;\n    }\n\n    // dreamToken NFT \n    function mintNFTwithDreamToken(\n        string memory _metaDataCID,\n        uint8 _price\n    ) external mintAuth(msg.sender) {\n        require(dreamToken.balanceOf(msg.sender) > _price);\n\n        dreamToken.transferFrom(msg.sender, owner(), _price);\n\n        _tokenIds.increment();\n        uint256 newTokenId = _tokenIds.current();\n\n        _safeMint(msg.sender, newTokenId);\n        _setTokenURI(newTokenId, _metaDataCID);\n\n        Lib.NFT memory newNFT = Lib.NFT(\n            newTokenId,\n            _metaDataCID,\n            payable(msg.sender),\n            _price,\n            false\n        );\n\n        nftStorage[newTokenId] = newNFT;\n    }\n}\n",
  "sourcePath": "/Users/security/Desktop/klaytn/bccs/contracts/DreamNFT.sol",
  "compiler": {
    "name": "solc",
    "version": "0.8.17+commit.8df45f5f.Emscripten.clang"
  },
  "schemaVersion": "3.4.10",
  "updatedAt": "2023-02-01T00:49:41.054Z",
  "networkType": "ethereum",
  "devdoc": {
    "kind": "dev",
    "methods": {
      "approve(address,uint256)": {
        "details": "See {IERC721-approve}."
      },
      "balanceOf(address)": {
        "details": "See {IERC721-balanceOf}."
      },
      "getApproved(uint256)": {
        "details": "See {IERC721-getApproved}."
      },
      "isApprovedForAll(address,address)": {
        "details": "See {IERC721-isApprovedForAll}."
      },
      "name()": {
        "details": "See {IERC721Metadata-name}."
      },
      "owner()": {
        "details": "Returns the address of the current owner."
      },
      "ownerOf(uint256)": {
        "details": "See {IERC721-ownerOf}."
      },
      "renounceOwnership()": {
        "details": "Leaves the contract without owner. It will not be possible to call `onlyOwner` functions anymore. Can only be called by the current owner. NOTE: Renouncing ownership will leave the contract without an owner, thereby removing any functionality that is only available to the owner."
      },
      "safeTransferFrom(address,address,uint256)": {
        "details": "See {IERC721-safeTransferFrom}."
      },
      "safeTransferFrom(address,address,uint256,bytes)": {
        "details": "See {IERC721-safeTransferFrom}."
      },
      "setApprovalForAll(address,bool)": {
        "details": "See {IERC721-setApprovalForAll}."
      },
      "symbol()": {
        "details": "See {IERC721Metadata-symbol}."
      },
      "tokenByIndex(uint256)": {
        "details": "See {IERC721Enumerable-tokenByIndex}."
      },
      "tokenOfOwnerByIndex(address,uint256)": {
        "details": "See {IERC721Enumerable-tokenOfOwnerByIndex}."
      },
      "totalSupply()": {
        "details": "See {IERC721Enumerable-totalSupply}."
      },
      "transferFrom(address,address,uint256)": {
        "details": "See {IERC721-transferFrom}."
      },
      "transferOwnership(address)": {
        "details": "Transfers ownership of the contract to a new account (`newOwner`). Can only be called by the current owner."
      }
    },
    "version": 1
  },
  "userdoc": {
    "kind": "user",
    "methods": {},
    "version": 1
  }
}