{
  "contractName": "DreamMT",
  "abi": [
    {
      "inputs": [
        {
          "internalType": "string",
          "name": "_uri",
          "type": "string"
        }
      ],
      "stateMutability": "nonpayable",
      "type": "constructor"
    },
    {
      "anonymous": false,
      "inputs": [
        {
          "indexed": true,
          "internalType": "address",
          "name": "account",
          "type": "address"
        },
        {
          "indexed": true,
          "internalType": "address",
          "name": "operator",
          "type": "address"
        },
        {
          "indexed": false,
          "internalType": "bool",
          "name": "approved",
          "type": "bool"
        }
      ],
      "name": "ApprovalForAll",
      "type": "event"
    },
    {
      "anonymous": false,
      "inputs": [
        {
          "indexed": true,
          "internalType": "address",
          "name": "previousOwner",
          "type": "address"
        },
        {
          "indexed": true,
          "internalType": "address",
          "name": "newOwner",
          "type": "address"
        }
      ],
      "name": "OwnershipTransferred",
      "type": "event"
    },
    {
      "anonymous": false,
      "inputs": [
        {
          "indexed": true,
          "internalType": "address",
          "name": "operator",
          "type": "address"
        },
        {
          "indexed": true,
          "internalType": "address",
          "name": "from",
          "type": "address"
        },
        {
          "indexed": true,
          "internalType": "address",
          "name": "to",
          "type": "address"
        },
        {
          "indexed": false,
          "internalType": "uint256[]",
          "name": "ids",
          "type": "uint256[]"
        },
        {
          "indexed": false,
          "internalType": "uint256[]",
          "name": "values",
          "type": "uint256[]"
        }
      ],
      "name": "TransferBatch",
      "type": "event"
    },
    {
      "anonymous": false,
      "inputs": [
        {
          "indexed": true,
          "internalType": "address",
          "name": "operator",
          "type": "address"
        },
        {
          "indexed": true,
          "internalType": "address",
          "name": "from",
          "type": "address"
        },
        {
          "indexed": true,
          "internalType": "address",
          "name": "to",
          "type": "address"
        },
        {
          "indexed": false,
          "internalType": "uint256",
          "name": "id",
          "type": "uint256"
        },
        {
          "indexed": false,
          "internalType": "uint256",
          "name": "value",
          "type": "uint256"
        }
      ],
      "name": "TransferSingle",
      "type": "event"
    },
    {
      "anonymous": false,
      "inputs": [
        {
          "indexed": false,
          "internalType": "string",
          "name": "value",
          "type": "string"
        },
        {
          "indexed": true,
          "internalType": "uint256",
          "name": "id",
          "type": "uint256"
        }
      ],
      "name": "URI",
      "type": "event"
    },
    {
      "inputs": [
        {
          "internalType": "address",
          "name": "account",
          "type": "address"
        },
        {
          "internalType": "uint256",
          "name": "id",
          "type": "uint256"
        }
      ],
      "name": "balanceOf",
      "outputs": [
        {
          "internalType": "uint256",
          "name": "",
          "type": "uint256"
        }
      ],
      "stateMutability": "view",
      "type": "function"
    },
    {
      "inputs": [
        {
          "internalType": "address[]",
          "name": "accounts",
          "type": "address[]"
        },
        {
          "internalType": "uint256[]",
          "name": "ids",
          "type": "uint256[]"
        }
      ],
      "name": "balanceOfBatch",
      "outputs": [
        {
          "internalType": "uint256[]",
          "name": "",
          "type": "uint256[]"
        }
      ],
      "stateMutability": "view",
      "type": "function"
    },
    {
      "inputs": [
        {
          "internalType": "uint256",
          "name": "",
          "type": "uint256"
        }
      ],
      "name": "creators",
      "outputs": [
        {
          "internalType": "address",
          "name": "",
          "type": "address"
        }
      ],
      "stateMutability": "view",
      "type": "function"
    },
    {
      "inputs": [
        {
          "internalType": "address",
          "name": "account",
          "type": "address"
        },
        {
          "internalType": "address",
          "name": "operator",
          "type": "address"
        }
      ],
      "name": "isApprovedForAll",
      "outputs": [
        {
          "internalType": "bool",
          "name": "",
          "type": "bool"
        }
      ],
      "stateMutability": "view",
      "type": "function"
    },
    {
      "inputs": [],
      "name": "mtCounter",
      "outputs": [
        {
          "internalType": "uint256",
          "name": "",
          "type": "uint256"
        }
      ],
      "stateMutability": "view",
      "type": "function"
    },
    {
      "inputs": [
        {
          "internalType": "uint256",
          "name": "",
          "type": "uint256"
        }
      ],
      "name": "mtStorage",
      "outputs": [
        {
          "internalType": "uint256",
          "name": "tokenId",
          "type": "uint256"
        },
        {
          "internalType": "string",
          "name": "tokenName",
          "type": "string"
        },
        {
          "internalType": "string",
          "name": "tokenURI",
          "type": "string"
        }
      ],
      "stateMutability": "view",
      "type": "function"
    },
    {
      "inputs": [],
      "name": "name",
      "outputs": [
        {
          "internalType": "string",
          "name": "",
          "type": "string"
        }
      ],
      "stateMutability": "view",
      "type": "function"
    },
    {
      "inputs": [],
      "name": "owner",
      "outputs": [
        {
          "internalType": "address",
          "name": "",
          "type": "address"
        }
      ],
      "stateMutability": "view",
      "type": "function"
    },
    {
      "inputs": [],
      "name": "renounceOwnership",
      "outputs": [],
      "stateMutability": "nonpayable",
      "type": "function"
    },
    {
      "inputs": [
        {
          "internalType": "address",
          "name": "",
          "type": "address"
        }
      ],
      "name": "rewards",
      "outputs": [
        {
          "internalType": "uint256",
          "name": "",
          "type": "uint256"
        }
      ],
      "stateMutability": "view",
      "type": "function"
    },
    {
      "inputs": [
        {
          "internalType": "address",
          "name": "from",
          "type": "address"
        },
        {
          "internalType": "address",
          "name": "to",
          "type": "address"
        },
        {
          "internalType": "uint256[]",
          "name": "ids",
          "type": "uint256[]"
        },
        {
          "internalType": "uint256[]",
          "name": "amounts",
          "type": "uint256[]"
        },
        {
          "internalType": "bytes",
          "name": "data",
          "type": "bytes"
        }
      ],
      "name": "safeBatchTransferFrom",
      "outputs": [],
      "stateMutability": "nonpayable",
      "type": "function"
    },
    {
      "inputs": [
        {
          "internalType": "address",
          "name": "from",
          "type": "address"
        },
        {
          "internalType": "address",
          "name": "to",
          "type": "address"
        },
        {
          "internalType": "uint256",
          "name": "id",
          "type": "uint256"
        },
        {
          "internalType": "uint256",
          "name": "amount",
          "type": "uint256"
        },
        {
          "internalType": "bytes",
          "name": "data",
          "type": "bytes"
        }
      ],
      "name": "safeTransferFrom",
      "outputs": [],
      "stateMutability": "nonpayable",
      "type": "function"
    },
    {
      "inputs": [
        {
          "internalType": "address",
          "name": "operator",
          "type": "address"
        },
        {
          "internalType": "bool",
          "name": "approved",
          "type": "bool"
        }
      ],
      "name": "setApprovalForAll",
      "outputs": [],
      "stateMutability": "nonpayable",
      "type": "function"
    },
    {
      "inputs": [
        {
          "internalType": "bytes4",
          "name": "interfaceId",
          "type": "bytes4"
        }
      ],
      "name": "supportsInterface",
      "outputs": [
        {
          "internalType": "bool",
          "name": "",
          "type": "bool"
        }
      ],
      "stateMutability": "view",
      "type": "function"
    },
    {
      "inputs": [],
      "name": "symbol",
      "outputs": [
        {
          "internalType": "string",
          "name": "",
          "type": "string"
        }
      ],
      "stateMutability": "view",
      "type": "function"
    },
    {
      "inputs": [
        {
          "internalType": "address",
          "name": "",
          "type": "address"
        }
      ],
      "name": "timestamps",
      "outputs": [
        {
          "internalType": "uint256",
          "name": "",
          "type": "uint256"
        }
      ],
      "stateMutability": "view",
      "type": "function"
    },
    {
      "inputs": [
        {
          "internalType": "string",
          "name": "",
          "type": "string"
        }
      ],
      "name": "tokenNameExists",
      "outputs": [
        {
          "internalType": "bool",
          "name": "",
          "type": "bool"
        }
      ],
      "stateMutability": "view",
      "type": "function"
    },
    {
      "inputs": [
        {
          "internalType": "uint256",
          "name": "",
          "type": "uint256"
        }
      ],
      "name": "tokenSupply",
      "outputs": [
        {
          "internalType": "uint256",
          "name": "",
          "type": "uint256"
        }
      ],
      "stateMutability": "view",
      "type": "function"
    },
    {
      "inputs": [
        {
          "internalType": "string",
          "name": "",
          "type": "string"
        }
      ],
      "name": "tokenURIExists",
      "outputs": [
        {
          "internalType": "bool",
          "name": "",
          "type": "bool"
        }
      ],
      "stateMutability": "view",
      "type": "function"
    },
    {
      "inputs": [
        {
          "internalType": "address",
          "name": "newOwner",
          "type": "address"
        }
      ],
      "name": "transferOwnership",
      "outputs": [],
      "stateMutability": "nonpayable",
      "type": "function"
    },
    {
      "inputs": [],
      "name": "userCounter",
      "outputs": [
        {
          "internalType": "uint256",
          "name": "",
          "type": "uint256"
        }
      ],
      "stateMutability": "view",
      "type": "function"
    },
    {
      "inputs": [
        {
          "internalType": "address",
          "name": "",
          "type": "address"
        }
      ],
      "name": "userExists",
      "outputs": [
        {
          "internalType": "bool",
          "name": "",
          "type": "bool"
        }
      ],
      "stateMutability": "view",
      "type": "function"
    },
    {
      "inputs": [
        {
          "internalType": "uint256",
          "name": "",
          "type": "uint256"
        }
      ],
      "name": "userStorage",
      "outputs": [
        {
          "internalType": "address",
          "name": "userAddress",
          "type": "address"
        }
      ],
      "stateMutability": "view",
      "type": "function"
    },
    {
      "inputs": [
        {
          "internalType": "uint256",
          "name": "_id",
          "type": "uint256"
        }
      ],
      "name": "_exist",
      "outputs": [
        {
          "internalType": "bool",
          "name": "",
          "type": "bool"
        }
      ],
      "stateMutability": "view",
      "type": "function"
    },
    {
      "inputs": [
        {
          "internalType": "address",
          "name": "_to",
          "type": "address"
        },
        {
          "internalType": "uint256",
          "name": "_id",
          "type": "uint256"
        }
      ],
      "name": "setCreator",
      "outputs": [],
      "stateMutability": "nonpayable",
      "type": "function"
    },
    {
      "inputs": [
        {
          "internalType": "address",
          "name": "_user",
          "type": "address"
        }
      ],
      "name": "createUser",
      "outputs": [],
      "stateMutability": "nonpayable",
      "type": "function"
    },
    {
      "inputs": [
        {
          "internalType": "string",
          "name": "_newURI",
          "type": "string"
        }
      ],
      "name": "setURI",
      "outputs": [],
      "stateMutability": "nonpayable",
      "type": "function"
    },
    {
      "inputs": [
        {
          "internalType": "uint256",
          "name": "_tokenId",
          "type": "uint256"
        },
        {
          "internalType": "string",
          "name": "_newURI",
          "type": "string"
        }
      ],
      "name": "setCustomURI",
      "outputs": [],
      "stateMutability": "nonpayable",
      "type": "function"
    },
    {
      "inputs": [
        {
          "internalType": "uint256",
          "name": "_id",
          "type": "uint256"
        }
      ],
      "name": "uri",
      "outputs": [
        {
          "internalType": "string",
          "name": "",
          "type": "string"
        }
      ],
      "stateMutability": "view",
      "type": "function"
    },
    {
      "inputs": [
        {
          "internalType": "uint256",
          "name": "_id",
          "type": "uint256"
        },
        {
          "internalType": "uint256",
          "name": "_quantity",
          "type": "uint256"
        },
        {
          "internalType": "string",
          "name": "_name",
          "type": "string"
        },
        {
          "internalType": "string",
          "name": "_tokenURI",
          "type": "string"
        }
      ],
      "name": "singleMint",
      "outputs": [],
      "stateMutability": "nonpayable",
      "type": "function"
    },
    {
      "inputs": [
        {
          "internalType": "uint256[]",
          "name": "_ids",
          "type": "uint256[]"
        },
        {
          "internalType": "uint256[]",
          "name": "_quantities",
          "type": "uint256[]"
        },
        {
          "internalType": "string[]",
          "name": "_names",
          "type": "string[]"
        },
        {
          "internalType": "string[]",
          "name": "_tokenURIs",
          "type": "string[]"
        }
      ],
      "name": "batchMint",
      "outputs": [],
      "stateMutability": "nonpayable",
      "type": "function"
    },
    {
      "inputs": [
        {
          "internalType": "uint256",
          "name": "_id",
          "type": "uint256"
        },
        {
          "internalType": "uint256",
          "name": "_quantity",
          "type": "uint256"
        }
      ],
      "name": "singleBurn",
      "outputs": [],
      "stateMutability": "nonpayable",
      "type": "function"
    },
    {
      "inputs": [
        {
          "internalType": "uint256[]",
          "name": "_ids",
          "type": "uint256[]"
        },
        {
          "internalType": "uint256[]",
          "name": "_quantities",
          "type": "uint256[]"
        }
      ],
      "name": "batchBurn",
      "outputs": [],
      "stateMutability": "nonpayable",
      "type": "function"
    },
    {
      "inputs": [
        {
          "internalType": "address",
          "name": "_address",
          "type": "address"
        }
      ],
      "name": "getUserId",
      "outputs": [
        {
          "internalType": "uint256",
          "name": "",
          "type": "uint256"
        }
      ],
      "stateMutability": "view",
      "type": "function"
    },
    {
      "inputs": [
        {
          "internalType": "uint256",
          "name": "_tokenId",
          "type": "uint256"
        },
        {
          "internalType": "uint256",
          "name": "_amount",
          "type": "uint256"
        },
        {
          "internalType": "bool",
          "name": "_toggle",
          "type": "bool"
        },
        {
          "internalType": "address",
          "name": "_saleContAddress",
          "type": "address"
        }
      ],
      "name": "toggleForSale",
      "outputs": [],
      "stateMutability": "nonpayable",
      "type": "function"
    },
    {
      "inputs": [
        {
          "internalType": "address",
          "name": "_userAddress",
          "type": "address"
        },
        {
          "internalType": "uint256",
          "name": "_id",
          "type": "uint256"
        }
      ],
      "name": "getSales",
      "outputs": [
        {
          "internalType": "uint256",
          "name": "",
          "type": "uint256"
        }
      ],
      "stateMutability": "view",
      "type": "function"
    },
    {
      "inputs": [
        {
          "internalType": "address",
          "name": "_userAddress",
          "type": "address"
        },
        {
          "internalType": "uint256",
          "name": "_id",
          "type": "uint256"
        }
      ],
      "name": "getSalePrice",
      "outputs": [
        {
          "internalType": "uint256",
          "name": "",
          "type": "uint256"
        }
      ],
      "stateMutability": "view",
      "type": "function"
    },
    {
      "inputs": [
        {
          "internalType": "uint256",
          "name": "_tokenId",
          "type": "uint256"
        },
        {
          "internalType": "uint256",
          "name": "_price",
          "type": "uint256"
        }
      ],
      "name": "setPrice",
      "outputs": [],
      "stateMutability": "nonpayable",
      "type": "function"
    },
    {
      "inputs": [
        {
          "internalType": "uint256",
          "name": "_tokenId",
          "type": "uint256"
        },
        {
          "internalType": "uint256",
          "name": "_amount",
          "type": "uint256"
        },
        {
          "internalType": "address",
          "name": "_from",
          "type": "address"
        },
        {
          "internalType": "address",
          "name": "_to",
          "type": "address"
        }
      ],
      "name": "buyToken",
      "outputs": [],
      "stateMutability": "payable",
      "type": "function"
    }
  ],
  "bytecode": "0x60806040526040518060400160405280600781526020017f447265616d4d5400000000000000000000000000000000000000000000000000815250600490816200004a91906200045c565b506040518060400160405280600381526020017f444d540000000000000000000000000000000000000000000000000000000000815250600590816200009191906200045c565b503480156200009f57600080fd5b506040516200648d3803806200648d8339818101604052810190620000c59190620006a7565b80620000d781620000ff60201b60201c565b50620000f8620000ec6200011460201b60201c565b6200011c60201b60201c565b50620006f8565b80600290816200011091906200045c565b5050565b600033905090565b6000600360009054906101000a900473ffffffffffffffffffffffffffffffffffffffff16905081600360006101000a81548173ffffffffffffffffffffffffffffffffffffffff021916908373ffffffffffffffffffffffffffffffffffffffff1602179055508173ffffffffffffffffffffffffffffffffffffffff168173ffffffffffffffffffffffffffffffffffffffff167f8be0079c531659141344cd1fd0a4f28419497f9722a3daafe3b4186f6b6457e060405160405180910390a35050565b600081519050919050565b7f4e487b7100000000000000000000000000000000000000000000000000000000600052604160045260246000fd5b7f4e487b7100000000000000000000000000000000000000000000000000000000600052602260045260246000fd5b600060028204905060018216806200026457607f821691505b6020821081036200027a57620002796200021c565b5b50919050565b60008190508160005260206000209050919050565b60006020601f8301049050919050565b600082821b905092915050565b600060088302620002e47fffffffffffffffffffffffffffffffffffffffffffffffffffffffffffffffff82620002a5565b620002f08683620002a5565b95508019841693508086168417925050509392505050565b6000819050919050565b6000819050919050565b60006200033d62000337620003318462000308565b62000312565b62000308565b9050919050565b6000819050919050565b62000359836200031c565b62000371620003688262000344565b848454620002b2565b825550505050565b600090565b6200038862000379565b620003958184846200034e565b505050565b5b81811015620003bd57620003b16000826200037e565b6001810190506200039b565b5050565b601f8211156200040c57620003d68162000280565b620003e18462000295565b81016020851015620003f1578190505b62000409620004008562000295565b8301826200039a565b50505b505050565b600082821c905092915050565b6000620004316000198460080262000411565b1980831691505092915050565b60006200044c83836200041e565b9150826002028217905092915050565b6200046782620001e2565b67ffffffffffffffff811115620004835762000482620001ed565b5b6200048f82546200024b565b6200049c828285620003c1565b600060209050601f831160018114620004d45760008415620004bf578287015190505b620004cb85826200043e565b8655506200053b565b601f198416620004e48662000280565b60005b828110156200050e57848901518255600182019150602085019450602081019050620004e7565b868310156200052e57848901516200052a601f8916826200041e565b8355505b6001600288020188555050505b505050505050565b6000604051905090565b600080fd5b600080fd5b600080fd5b600080fd5b6000601f19601f8301169050919050565b6200057d8262000561565b810181811067ffffffffffffffff821117156200059f576200059e620001ed565b5b80604052505050565b6000620005b462000543565b9050620005c2828262000572565b919050565b600067ffffffffffffffff821115620005e557620005e4620001ed565b5b620005f08262000561565b9050602081019050919050565b60005b838110156200061d57808201518184015260208101905062000600565b60008484015250505050565b6000620006406200063a84620005c7565b620005a8565b9050828152602081018484840111156200065f576200065e6200055c565b5b6200066c848285620005fd565b509392505050565b600082601f8301126200068c576200068b62000557565b5b81516200069e84826020860162000629565b91505092915050565b600060208284031215620006c057620006bf6200054d565b5b600082015167ffffffffffffffff811115620006e157620006e062000552565b5b620006ef8482850162000674565b91505092915050565b615d8580620007086000396000f3fe60806040526004361061022f5760003560e01c806379d280931161012e578063cd53d08e116100ab578063ec45d7971161006f578063ec45d797146108e5578063f0c37a5914610922578063f242432a1461094d578063f2fde38b14610976578063f7d975771461099f5761022f565b8063cd53d08e146107c8578063cdd8761814610805578063d72bcdb91461082e578063e985e9c51461086b578063e9c98e68146108a85761022f565b8063a46b1fac116100f2578063a46b1fac146106bf578063a7745713146106fc578063b925ba3514610739578063c07cb63714610776578063c8cb8a751461079f5761022f565b806379d28093146105fb5780638da5cb5b14610624578063909308b51461064f57806395d89b411461066b578063a22cb465146106965761022f565b80632693ebf2116101bc57806343d32ae71161018057806343d32ae7146105165780634e1273f41461055357806359b98506146105905780636c24dc7d146105b9578063715018a6146105e45761022f565b80632693ebf2146104215780632b956ff71461045e5780632eb2c2d61461049b5780633adf80b4146104c45780633c0e9a68146104ed5761022f565b80630700037d116102035780630700037d146103025780630e666e491461033f5780630e89341c1461037c57806315d91d1c146103b957806320ec271b146103f85761022f565b8062fdd58e1461023457806301ffc9a71461027157806302fe5305146102ae57806306fdde03146102d7575b600080fd5b34801561024057600080fd5b5061025b600480360381019061025691906140d5565b6109c8565b6040516102689190614124565b60405180910390f35b34801561027d57600080fd5b5061029860048036038101906102939190614197565b610a90565b6040516102a591906141df565b60405180910390f35b3480156102ba57600080fd5b506102d560048036038101906102d09190614340565b610b72565b005b3480156102e357600080fd5b506102ec610b86565b6040516102f99190614408565b60405180910390f35b34801561030e57600080fd5b506103296004803603810190610324919061442a565b610c14565b6040516103369190614124565b60405180910390f35b34801561034b57600080fd5b506103666004803603810190610361919061442a565b610c2c565b60405161037391906141df565b60405180910390f35b34801561038857600080fd5b506103a3600480360381019061039e9190614457565b610c4c565b6040516103b09190614408565b60405180910390f35b3480156103c557600080fd5b506103e060048036038101906103db9190614457565b610dc0565b6040516103ef93929190614484565b60405180910390f35b34801561040457600080fd5b5061041f600480360381019061041a9190614591565b610efa565b005b34801561042d57600080fd5b5061044860048036038101906104439190614457565b611007565b6040516104559190614124565b60405180910390f35b34801561046a57600080fd5b506104856004803603810190610480919061442a565b61101f565b6040516104929190614124565b60405180910390f35b3480156104a757600080fd5b506104c260048036038101906104bd91906146aa565b6110bc565b005b3480156104d057600080fd5b506104eb60048036038101906104e69190614779565b61115d565b005b3480156104f957600080fd5b50610514600480360381019061050f9190614801565b611231565b005b34801561052257600080fd5b5061053d60048036038101906105389190614340565b611472565b60405161054a91906141df565b60405180910390f35b34801561055f57600080fd5b5061057a6004803603810190610575919061492b565b6114a8565b6040516105879190614a61565b60405180910390f35b34801561059c57600080fd5b506105b760048036038101906105b29190614a83565b6115c1565b005b3480156105c557600080fd5b506105ce611974565b6040516105db9190614124565b60405180910390f35b3480156105f057600080fd5b506105f961197a565b005b34801561060757600080fd5b50610622600480360381019061061d9190614c03565b61198e565b005b34801561063057600080fd5b50610639611ced565b6040516106469190614ce9565b60405180910390f35b61066960048036038101906106649190614d04565b611d17565b005b34801561067757600080fd5b50610680611f5b565b60405161068d9190614408565b60405180910390f35b3480156106a257600080fd5b506106bd60048036038101906106b89190614d6b565b611fe9565b005b3480156106cb57600080fd5b506106e660048036038101906106e19190614340565b611fff565b6040516106f391906141df565b60405180910390f35b34801561070857600080fd5b50610723600480360381019061071e91906140d5565b612035565b6040516107309190614124565b60405180910390f35b34801561074557600080fd5b50610760600480360381019061075b91906140d5565b6120ee565b60405161076d9190614124565b60405180910390f35b34801561078257600080fd5b5061079d60048036038101906107989190614dab565b6121a7565b005b3480156107ab57600080fd5b506107c660048036038101906107c191906140d5565b61228a565b005b3480156107d457600080fd5b506107ef60048036038101906107ea9190614457565b61239f565b6040516107fc9190614ce9565b60405180910390f35b34801561081157600080fd5b5061082c6004803603810190610827919061442a565b6123d2565b005b34801561083a57600080fd5b5061085560048036038101906108509190614457565b6125c7565b6040516108629190614ce9565b60405180910390f35b34801561087757600080fd5b50610892600480360381019061088d9190614deb565b612605565b60405161089f91906141df565b60405180910390f35b3480156108b457600080fd5b506108cf60048036038101906108ca919061442a565b612699565b6040516108dc9190614124565b60405180910390f35b3480156108f157600080fd5b5061090c60048036038101906109079190614457565b6126b1565b60405161091991906141df565b60405180910390f35b34801561092e57600080fd5b5061093761271d565b6040516109449190614124565b60405180910390f35b34801561095957600080fd5b50610974600480360381019061096f9190614e2b565b612723565b005b34801561098257600080fd5b5061099d6004803603810190610998919061442a565b6127c4565b005b3480156109ab57600080fd5b506109c660048036038101906109c19190614dab565b612847565b005b60008073ffffffffffffffffffffffffffffffffffffffff168373ffffffffffffffffffffffffffffffffffffffff1603610a38576040517f08c379a0000000000000000000000000000000000000000000000000000000008152600401610a2f90614f34565b60405180910390fd5b60008083815260200190815260200160002060008473ffffffffffffffffffffffffffffffffffffffff1673ffffffffffffffffffffffffffffffffffffffff16815260200190815260200160002054905092915050565b60007fd9b67a26000000000000000000000000000000000000000000000000000000007bffffffffffffffffffffffffffffffffffffffffffffffffffffffff1916827bffffffffffffffffffffffffffffffffffffffffffffffffffffffff19161480610b5b57507f0e89341c000000000000000000000000000000000000000000000000000000007bffffffffffffffffffffffffffffffffffffffffffffffffffffffff1916827bffffffffffffffffffffffffffffffffffffffffffffffffffffffff1916145b80610b6b5750610b6a82612931565b5b9050919050565b610b7a61299b565b610b8381612a19565b50565b60048054610b9390614f83565b80601f0160208091040260200160405190810160405280929190818152602001828054610bbf90614f83565b8015610c0c5780601f10610be157610100808354040283529160200191610c0c565b820191906000526020600020905b815481529060010190602001808311610bef57829003601f168201915b505050505081565b60106020528060005260406000206000915090505481565b600d6020528060005260406000206000915054906101000a900460ff1681565b6060610c57826126b1565b610c6057600080fd5b6000600a60008481526020019081526020016000208054610c8090614f83565b80601f0160208091040260200160405190810160405280929190818152602001828054610cac90614f83565b8015610cf95780601f10610cce57610100808354040283529160200191610cf9565b820191906000526020600020905b815481529060010190602001808311610cdc57829003601f168201915b50505050509050600081511115610dae57600a60008481526020019081526020016000208054610d2890614f83565b80601f0160208091040260200160405190810160405280929190818152602001828054610d5490614f83565b8015610da15780601f10610d7657610100808354040283529160200191610da1565b820191906000526020600020905b815481529060010190602001808311610d8457829003601f168201915b5050505050915050610dbb565b610db783612a2c565b9150505b919050565b6008602052806000526040600020600091509050806000015490806001018054610de990614f83565b80601f0160208091040260200160405190810160405280929190818152602001828054610e1590614f83565b8015610e625780601f10610e3757610100808354040283529160200191610e62565b820191906000526020600020905b815481529060010190602001808311610e4557829003601f168201915b505050505090806002018054610e7790614f83565b80601f0160208091040260200160405190810160405280929190818152602001828054610ea390614f83565b8015610ef05780601f10610ec557610100808354040283529160200191610ef0565b820191906000526020600020905b815481529060010190602001808311610ed357829003601f168201915b5050505050905083565b60005b8251811015610ff7576000838281518110610f1b57610f1a614fb4565b5b602002602001015190506000610f38610f32612ac0565b836109c8565b1180610f7d5750610f47612ac0565b73ffffffffffffffffffffffffffffffffffffffff16610f65611ced565b73ffffffffffffffffffffffffffffffffffffffff16145b610f8657600080fd5b6000838381518110610f9b57610f9a614fb4565b5b60200260200101519050610fcb81600c600085815260200190815260200160002054612ac890919063ffffffff16565b600c60008481526020019081526020016000208190555050508080610fef90615012565b915050610efd565b50611003338383612ade565b5050565b600c6020528060005260406000206000915090505481565b6000806000600190505b60065481116110b2578373ffffffffffffffffffffffffffffffffffffffff166009600083815260200190815260200160002060000160009054906101000a900473ffffffffffffffffffffffffffffffffffffffff1673ffffffffffffffffffffffffffffffffffffffff160361109f578091505b80806110aa90615012565b915050611029565b5080915050919050565b6110c4612ac0565b73ffffffffffffffffffffffffffffffffffffffff168573ffffffffffffffffffffffffffffffffffffffff16148061110a575061110985611104612ac0565b612605565b5b611149576040517f08c379a0000000000000000000000000000000000000000000000000000000008152600401611140906150cc565b60405180910390fd5b6111568585858585612dac565b5050505050565b81611166612ac0565b73ffffffffffffffffffffffffffffffffffffffff16600b600083815260200190815260200160002060009054906101000a900473ffffffffffffffffffffffffffffffffffffffff1673ffffffffffffffffffffffffffffffffffffffff16146111d057600080fd5b816008600085815260200190815260200160002060020190816111f39190615298565b50827f6bb7ff708619ba0610cba295a58592e0451dee2622938c8755667688daf3529b836040516112249190614408565b60405180910390a2505050565b600061123c3361101f565b90506000600960008381526020019081526020016000209050600061126133886109c8565b90508581101561127057600080fd5b841561135b578582600101600089815260200190815260200160002054611297919061536a565b826001016000898152602001908152602001600020819055506000600190505b60075481116113555782600101600082815260200190815260200160002054600960008681526020019081526020016000206001016000838152602001908152602001600020819055508260020160008281526020019081526020016000205460096000868152602001908152602001600020600201600083815260200190815260200160002081905550808061134d90615012565b9150506112b7565b5061145e565b8582600101600089815260200190815260200160002054101561137d57600080fd5b858260010160008981526020019081526020016000205461139e919061539e565b826001016000898152602001908152602001600020819055506000600190505b600754811161145c5782600101600082815260200190815260200160002054600960008681526020019081526020016000206001016000838152602001908152602001600020819055508260020160008281526020019081526020016000205460096000868152602001908152602001600020600201600083815260200190815260200160002081905550808061145490615012565b9150506113be565b505b611469846001611fe9565b50505050505050565b600e818051602081018201805184825260208301602085012081835280955050505050506000915054906101000a900460ff1681565b606081518351146114ee576040517f08c379a00000000000000000000000000000000000000000000000000000000081526004016114e590615444565b60405180910390fd5b6000835167ffffffffffffffff81111561150b5761150a614215565b5b6040519080825280602002602001820160405280156115395781602001602082028036833780820191505090505b50905060005b84518110156115b65761158685828151811061155e5761155d614fb4565b5b602002602001015185838151811061157957611578614fb4565b5b60200260200101516109c8565b82828151811061159957611598614fb4565b5b602002602001018181525050806115af90615012565b905061153f565b508091505092915050565b600d60003373ffffffffffffffffffffffffffffffffffffffff1673ffffffffffffffffffffffffffffffffffffffff16815260200190815260200160002060009054906101000a900460ff1661161c5761161b336123d2565b5b600073ffffffffffffffffffffffffffffffffffffffff16600b600086815260200190815260200160002060009054906101000a900473ffffffffffffffffffffffffffffffffffffffff1673ffffffffffffffffffffffffffffffffffffffff16036116e15761168b612ac0565b600b600086815260200190815260200160002060006101000a81548173ffffffffffffffffffffffffffffffffffffffff021916908373ffffffffffffffffffffffffffffffffffffffff160217905550611754565b6116e9612ac0565b73ffffffffffffffffffffffffffffffffffffffff16600b600086815260200190815260200160002060009054906101000a900473ffffffffffffffffffffffffffffffffffffffff1673ffffffffffffffffffffffffffffffffffffffff161461175357600080fd5b5b600f8260405161176491906154a0565b908152602001604051809103902060009054906101000a900460ff16156117f857836008600086815260200190815260200160002060000154146117a757600080fd5b60606117b5338686846130cd565b6117db84600c60008881526020019081526020016000205461327d90919063ffffffff16565b600c6000878152602001908152602001600020819055505061196e565b600f8260405161180891906154a0565b908152602001604051809103902060009054906101000a900460ff161561182e57600080fd5b6007600081548092919061184190615012565b91905055506060611854338686846130cd565b61187a84600c60008881526020019081526020016000205461327d90919063ffffffff16565b600c6000878152602001908152602001600020819055506001600e836040516118a391906154a0565b908152602001604051809103902060006101000a81548160ff0219169083151502179055506001600f846040516118da91906154a0565b908152602001604051809103902060006101000a81548160ff0219169083151502179055506000604051806060016040528087815260200185815260200184815250905080600860008881526020019081526020016000206000820151816000015560208201518160010190816119519190615298565b5060408201518160020190816119679190615298565b5090505050505b50505050565b60075481565b61198261299b565b61198c6000613293565b565b600d60003373ffffffffffffffffffffffffffffffffffffffff1673ffffffffffffffffffffffffffffffffffffffff16815260200190815260200160002060009054906101000a900460ff166119e9576119e8336123d2565b5b60005b8451811015611cd7576000858281518110611a0a57611a09614fb4565b5b602002602001015190506000848381518110611a2957611a28614fb4565b5b602002602001015190506000848481518110611a4857611a47614fb4565b5b60200260200101519050600073ffffffffffffffffffffffffffffffffffffffff16600b600085815260200190815260200160002060009054906101000a900473ffffffffffffffffffffffffffffffffffffffff1673ffffffffffffffffffffffffffffffffffffffff1603611b1757611ac1612ac0565b600b600085815260200190815260200160002060006101000a81548173ffffffffffffffffffffffffffffffffffffffff021916908373ffffffffffffffffffffffffffffffffffffffff160217905550611b8a565b611b1f612ac0565b73ffffffffffffffffffffffffffffffffffffffff16600b600085815260200190815260200160002060009054906101000a900473ffffffffffffffffffffffffffffffffffffffff1673ffffffffffffffffffffffffffffffffffffffff1614611b8957600080fd5b5b600f82604051611b9a91906154a0565b908152602001604051809103902060009054906101000a900460ff1615611bc057600080fd5b600e81604051611bd091906154a0565b908152602001604051809103902060009054906101000a900460ff1615611bf657600080fd5b6001600f83604051611c0891906154a0565b908152602001604051809103902060006101000a81548160ff0219169083151502179055506001600e82604051611c3f91906154a0565b908152602001604051809103902060006101000a81548160ff0219169083151502179055506000878581518110611c7957611c78614fb4565b5b60200260200101519050611ca981600c60008781526020019081526020016000205461327d90919063ffffffff16565b600c600086815260200190815260200160002081905550505050508080611ccf90615012565b9150506119ec565b506060611ce633868684613359565b5050505050565b6000600360009054906101000a900473ffffffffffffffffffffffffffffffffffffffff16905090565b600073ffffffffffffffffffffffffffffffffffffffff168273ffffffffffffffffffffffffffffffffffffffff1614158015611d815750600073ffffffffffffffffffffffffffffffffffffffff168173ffffffffffffffffffffffffffffffffffffffff1614155b8015611db957508073ffffffffffffffffffffffffffffffffffffffff168273ffffffffffffffffffffffffffffffffffffffff1614155b611dc257600080fd5b600d60008273ffffffffffffffffffffffffffffffffffffffff1673ffffffffffffffffffffffffffffffffffffffff16815260200190815260200160002060009054906101000a900460ff16611e1d57611e1c816123d2565b5b6000611e288361101f565b9050600060096000838152602001908152602001600020905084816001016000888152602001908152602001600020541015611e6357600080fd5b6060611e728585898985612723565b8582600101600089815260200190815260200160002054611e93919061539e565b826001016000898152602001908152602001600020819055506000600190505b6007548111611f5157826001016000828152602001908152602001600020546009600086815260200190815260200160002060010160008381526020019081526020016000208190555082600201600082815260200190815260200160002054600960008681526020019081526020016000206002016000838152602001908152602001600020819055508080611f4990615012565b915050611eb3565b5050505050505050565b60058054611f6890614f83565b80601f0160208091040260200160405190810160405280929190818152602001828054611f9490614f83565b8015611fe15780601f10611fb657610100808354040283529160200191611fe1565b820191906000526020600020905b815481529060010190602001808311611fc457829003601f168201915b505050505081565b611ffb611ff4612ac0565b8383613585565b5050565b600f818051602081018201805184825260208301602085012081835280955050505050506000915054906101000a900460ff1681565b6000806000600190505b60065481116120e35760006009600083815260200190815260200160002090508573ffffffffffffffffffffffffffffffffffffffff168160000160009054906101000a900473ffffffffffffffffffffffffffffffffffffffff1673ffffffffffffffffffffffffffffffffffffffff16036120cf578060010160008681526020019081526020016000205492505b5080806120db90615012565b91505061203f565b508091505092915050565b6000806000600190505b600654811161219c5760006009600083815260200190815260200160002090508573ffffffffffffffffffffffffffffffffffffffff168160000160009054906101000a900473ffffffffffffffffffffffffffffffffffffffff1673ffffffffffffffffffffffffffffffffffffffff1603612188578060020160008681526020019081526020016000205492505b50808061219490615012565b9150506120f8565b508091505092915050565b816121b0612ac0565b73ffffffffffffffffffffffffffffffffffffffff16600b600083815260200190815260200160002060009054906101000a900473ffffffffffffffffffffffffffffffffffffffff1673ffffffffffffffffffffffffffffffffffffffff1614801561222d5750600061222b612225612ac0565b836109c8565b115b61223657600080fd5b61225c82600c600086815260200190815260200160002054612ac890919063ffffffff16565b600c60008581526020019081526020016000208190555061228561227e612ac0565b84846136f1565b505050565b80612293612ac0565b73ffffffffffffffffffffffffffffffffffffffff16600b600083815260200190815260200160002060009054906101000a900473ffffffffffffffffffffffffffffffffffffffff1673ffffffffffffffffffffffffffffffffffffffff16146122fd57600080fd5b612306826126b1565b801561233f5750600073ffffffffffffffffffffffffffffffffffffffff168373ffffffffffffffffffffffffffffffffffffffff1614155b61234857600080fd5b82600b600084815260200190815260200160002060006101000a81548173ffffffffffffffffffffffffffffffffffffffff021916908373ffffffffffffffffffffffffffffffffffffffff160217905550505050565b600b6020528060005260406000206000915054906101000a900473ffffffffffffffffffffffffffffffffffffffff1681565b600660008154809291906123e590615012565b919050555060006009600060065481526020019081526020016000209050818160000160006101000a81548173ffffffffffffffffffffffffffffffffffffffff021916908373ffffffffffffffffffffffffffffffffffffffff1602179055508060000160009054906101000a900473ffffffffffffffffffffffffffffffffffffffff1660096000600654815260200190815260200160002060000160006101000a81548173ffffffffffffffffffffffffffffffffffffffff021916908373ffffffffffffffffffffffffffffffffffffffff1602179055506000600190505b600754811161256a578160010160008281526020019081526020016000205460096000600654815260200190815260200160002060010160008381526020019081526020016000208190555081600201600082815260200190815260200160002054600960006006548152602001908152602001600020600201600083815260200190815260200160002081905550808061256290615012565b9150506124c8565b506001600d60008473ffffffffffffffffffffffffffffffffffffffff1673ffffffffffffffffffffffffffffffffffffffff16815260200190815260200160002060006101000a81548160ff0219169083151502179055505050565b60096020528060005260406000206000915090508060000160009054906101000a900473ffffffffffffffffffffffffffffffffffffffff16905081565b6000600160008473ffffffffffffffffffffffffffffffffffffffff1673ffffffffffffffffffffffffffffffffffffffff16815260200190815260200160002060008373ffffffffffffffffffffffffffffffffffffffff1673ffffffffffffffffffffffffffffffffffffffff16815260200190815260200160002060009054906101000a900460ff16905092915050565b60116020528060005260406000206000915090505481565b60008073ffffffffffffffffffffffffffffffffffffffff16600b600084815260200190815260200160002060009054906101000a900473ffffffffffffffffffffffffffffffffffffffff1673ffffffffffffffffffffffffffffffffffffffff1614159050919050565b60065481565b61272b612ac0565b73ffffffffffffffffffffffffffffffffffffffff168573ffffffffffffffffffffffffffffffffffffffff16148061277157506127708561276b612ac0565b612605565b5b6127b0576040517f08c379a00000000000000000000000000000000000000000000000000000000081526004016127a7906150cc565b60405180910390fd5b6127bd8585858585613937565b5050505050565b6127cc61299b565b600073ffffffffffffffffffffffffffffffffffffffff168173ffffffffffffffffffffffffffffffffffffffff160361283b576040517f08c379a000000000000000000000000000000000000000000000000000000000815260040161283290615529565b60405180910390fd5b61284481613293565b50565b60006128523361101f565b9050600060096000838152602001908152602001600020905082816002016000868152602001908152602001600020819055506000600190505b600754811161292a5781600201600082815260200190815260200160002054600960008581526020019081526020016000206002016000838152602001908152602001600020819055508160010160008281526020019081526020016000205460096000858152602001908152602001600020600101600083815260200190815260200160002081905550808061292290615012565b91505061288c565b5050505050565b60007f01ffc9a7000000000000000000000000000000000000000000000000000000007bffffffffffffffffffffffffffffffffffffffffffffffffffffffff1916827bffffffffffffffffffffffffffffffffffffffffffffffffffffffff1916149050919050565b6129a3612ac0565b73ffffffffffffffffffffffffffffffffffffffff166129c1611ced565b73ffffffffffffffffffffffffffffffffffffffff1614612a17576040517f08c379a0000000000000000000000000000000000000000000000000000000008152600401612a0e90615595565b60405180910390fd5b565b8060029081612a289190615298565b5050565b606060028054612a3b90614f83565b80601f0160208091040260200160405190810160405280929190818152602001828054612a6790614f83565b8015612ab45780601f10612a8957610100808354040283529160200191612ab4565b820191906000526020600020905b815481529060010190602001808311612a9757829003601f168201915b50505050509050919050565b600033905090565b60008183612ad6919061539e565b905092915050565b600073ffffffffffffffffffffffffffffffffffffffff168373ffffffffffffffffffffffffffffffffffffffff1603612b4d576040517f08c379a0000000000000000000000000000000000000000000000000000000008152600401612b4490615627565b60405180910390fd5b8051825114612b91576040517f08c379a0000000000000000000000000000000000000000000000000000000008152600401612b88906156b9565b60405180910390fd5b6000612b9b612ac0565b9050612bbb81856000868660405180602001604052806000815250613bd2565b60005b8351811015612d08576000848281518110612bdc57612bdb614fb4565b5b602002602001015190506000848381518110612bfb57612bfa614fb4565b5b60200260200101519050600080600084815260200190815260200160002060008973ffffffffffffffffffffffffffffffffffffffff1673ffffffffffffffffffffffffffffffffffffffff16815260200190815260200160002054905081811015612c9c576040517f08c379a0000000000000000000000000000000000000000000000000000000008152600401612c939061574b565b60405180910390fd5b81810360008085815260200190815260200160002060008a73ffffffffffffffffffffffffffffffffffffffff1673ffffffffffffffffffffffffffffffffffffffff168152602001908152602001600020819055505050508080612d0090615012565b915050612bbe565b50600073ffffffffffffffffffffffffffffffffffffffff168473ffffffffffffffffffffffffffffffffffffffff168273ffffffffffffffffffffffffffffffffffffffff167f4a39dc06d4c0dbc64b70af90fd698a233a518aa5d07e595d983b8c0526c8f7fb8686604051612d8092919061576b565b60405180910390a4612da681856000868660405180602001604052806000815250613bda565b50505050565b8151835114612df0576040517f08c379a0000000000000000000000000000000000000000000000000000000008152600401612de7906156b9565b60405180910390fd5b600073ffffffffffffffffffffffffffffffffffffffff168473ffffffffffffffffffffffffffffffffffffffff1603612e5f576040517f08c379a0000000000000000000000000000000000000000000000000000000008152600401612e5690615814565b60405180910390fd5b6000612e69612ac0565b9050612e79818787878787613bd2565b60005b845181101561302a576000858281518110612e9a57612e99614fb4565b5b602002602001015190506000858381518110612eb957612eb8614fb4565b5b60200260200101519050600080600084815260200190815260200160002060008b73ffffffffffffffffffffffffffffffffffffffff1673ffffffffffffffffffffffffffffffffffffffff16815260200190815260200160002054905081811015612f5a576040517f08c379a0000000000000000000000000000000000000000000000000000000008152600401612f51906158a6565b60405180910390fd5b81810360008085815260200190815260200160002060008c73ffffffffffffffffffffffffffffffffffffffff1673ffffffffffffffffffffffffffffffffffffffff168152602001908152602001600020819055508160008085815260200190815260200160002060008b73ffffffffffffffffffffffffffffffffffffffff1673ffffffffffffffffffffffffffffffffffffffff168152602001908152602001600020600082825461300f919061536a565b925050819055505050508061302390615012565b9050612e7c565b508473ffffffffffffffffffffffffffffffffffffffff168673ffffffffffffffffffffffffffffffffffffffff168273ffffffffffffffffffffffffffffffffffffffff167f4a39dc06d4c0dbc64b70af90fd698a233a518aa5d07e595d983b8c0526c8f7fb87876040516130a192919061576b565b60405180910390a46130b7818787878787613bda565b6130c5818787878787613be2565b505050505050565b600073ffffffffffffffffffffffffffffffffffffffff168473ffffffffffffffffffffffffffffffffffffffff160361313c576040517f08c379a000000000000000000000000000000000000000000000000000000000815260040161313390615938565b60405180910390fd5b6000613146612ac0565b9050600061315385613db9565b9050600061316085613db9565b905061317183600089858589613bd2565b8460008088815260200190815260200160002060008973ffffffffffffffffffffffffffffffffffffffff1673ffffffffffffffffffffffffffffffffffffffff16815260200190815260200160002060008282546131d0919061536a565b925050819055508673ffffffffffffffffffffffffffffffffffffffff16600073ffffffffffffffffffffffffffffffffffffffff168473ffffffffffffffffffffffffffffffffffffffff167fc3d58168c5ae7397731d063d5bbf3d657854427343f4c083240f7aacaa2d0f62898960405161324e929190615958565b60405180910390a461326583600089858589613bda565b61327483600089898989613e33565b50505050505050565b6000818361328b919061536a565b905092915050565b6000600360009054906101000a900473ffffffffffffffffffffffffffffffffffffffff16905081600360006101000a81548173ffffffffffffffffffffffffffffffffffffffff021916908373ffffffffffffffffffffffffffffffffffffffff1602179055508173ffffffffffffffffffffffffffffffffffffffff168173ffffffffffffffffffffffffffffffffffffffff167f8be0079c531659141344cd1fd0a4f28419497f9722a3daafe3b4186f6b6457e060405160405180910390a35050565b600073ffffffffffffffffffffffffffffffffffffffff168473ffffffffffffffffffffffffffffffffffffffff16036133c8576040517f08c379a00000000000000000000000000000000000000000000000000000000081526004016133bf90615938565b60405180910390fd5b815183511461340c576040517f08c379a0000000000000000000000000000000000000000000000000000000008152600401613403906156b9565b60405180910390fd5b6000613416612ac0565b905061342781600087878787613bd2565b60005b84518110156134e05783818151811061344657613445614fb4565b5b602002602001015160008087848151811061346457613463614fb4565b5b6020026020010151815260200190815260200160002060008873ffffffffffffffffffffffffffffffffffffffff1673ffffffffffffffffffffffffffffffffffffffff16815260200190815260200160002060008282546134c6919061536a565b9250508190555080806134d890615012565b91505061342a565b508473ffffffffffffffffffffffffffffffffffffffff16600073ffffffffffffffffffffffffffffffffffffffff168273ffffffffffffffffffffffffffffffffffffffff167f4a39dc06d4c0dbc64b70af90fd698a233a518aa5d07e595d983b8c0526c8f7fb878760405161355892919061576b565b60405180910390a461356f81600087878787613bda565b61357e81600087878787613be2565b5050505050565b8173ffffffffffffffffffffffffffffffffffffffff168373ffffffffffffffffffffffffffffffffffffffff16036135f3576040517f08c379a00000000000000000000000000000000000000000000000000000000081526004016135ea906159f3565b60405180910390fd5b80600160008573ffffffffffffffffffffffffffffffffffffffff1673ffffffffffffffffffffffffffffffffffffffff16815260200190815260200160002060008473ffffffffffffffffffffffffffffffffffffffff1673ffffffffffffffffffffffffffffffffffffffff16815260200190815260200160002060006101000a81548160ff0219169083151502179055508173ffffffffffffffffffffffffffffffffffffffff168373ffffffffffffffffffffffffffffffffffffffff167f17307eab39ab6107e8899845ad3d59bd9653f200f220920489ca2b5937696c31836040516136e491906141df565b60405180910390a3505050565b600073ffffffffffffffffffffffffffffffffffffffff168373ffffffffffffffffffffffffffffffffffffffff1603613760576040517f08c379a000000000000000000000000000000000000000000000000000000000815260040161375790615627565b60405180910390fd5b600061376a612ac0565b9050600061377784613db9565b9050600061378484613db9565b90506137a483876000858560405180602001604052806000815250613bd2565b600080600087815260200190815260200160002060008873ffffffffffffffffffffffffffffffffffffffff1673ffffffffffffffffffffffffffffffffffffffff1681526020019081526020016000205490508481101561383b576040517f08c379a00000000000000000000000000000000000000000000000000000000081526004016138329061574b565b60405180910390fd5b84810360008088815260200190815260200160002060008973ffffffffffffffffffffffffffffffffffffffff1673ffffffffffffffffffffffffffffffffffffffff16815260200190815260200160002081905550600073ffffffffffffffffffffffffffffffffffffffff168773ffffffffffffffffffffffffffffffffffffffff168573ffffffffffffffffffffffffffffffffffffffff167fc3d58168c5ae7397731d063d5bbf3d657854427343f4c083240f7aacaa2d0f628989604051613908929190615958565b60405180910390a461392e84886000868660405180602001604052806000815250613bda565b50505050505050565b600073ffffffffffffffffffffffffffffffffffffffff168473ffffffffffffffffffffffffffffffffffffffff16036139a6576040517f08c379a000000000000000000000000000000000000000000000000000000000815260040161399d90615814565b60405180910390fd5b60006139b0612ac0565b905060006139bd85613db9565b905060006139ca85613db9565b90506139da838989858589613bd2565b600080600088815260200190815260200160002060008a73ffffffffffffffffffffffffffffffffffffffff1673ffffffffffffffffffffffffffffffffffffffff16815260200190815260200160002054905085811015613a71576040517f08c379a0000000000000000000000000000000000000000000000000000000008152600401613a68906158a6565b60405180910390fd5b85810360008089815260200190815260200160002060008b73ffffffffffffffffffffffffffffffffffffffff1673ffffffffffffffffffffffffffffffffffffffff168152602001908152602001600020819055508560008089815260200190815260200160002060008a73ffffffffffffffffffffffffffffffffffffffff1673ffffffffffffffffffffffffffffffffffffffff1681526020019081526020016000206000828254613b26919061536a565b925050819055508773ffffffffffffffffffffffffffffffffffffffff168973ffffffffffffffffffffffffffffffffffffffff168573ffffffffffffffffffffffffffffffffffffffff167fc3d58168c5ae7397731d063d5bbf3d657854427343f4c083240f7aacaa2d0f628a8a604051613ba3929190615958565b60405180910390a4613bb9848a8a86868a613bda565b613bc7848a8a8a8a8a613e33565b505050505050505050565b505050505050565b505050505050565b613c018473ffffffffffffffffffffffffffffffffffffffff1661400a565b15613db1578373ffffffffffffffffffffffffffffffffffffffff1663bc197c8187878686866040518663ffffffff1660e01b8152600401613c47959493929190615a68565b6020604051808303816000875af1925050508015613c8357506040513d601f19601f82011682018060405250810190613c809190615ae5565b60015b613d2857613c8f615b1f565b806308c379a003613ceb5750613ca3615b41565b80613cae5750613ced565b806040517f08c379a0000000000000000000000000000000000000000000000000000000008152600401613ce29190614408565b60405180910390fd5b505b6040517f08c379a0000000000000000000000000000000000000000000000000000000008152600401613d1f90615c43565b60405180910390fd5b63bc197c8160e01b7bffffffffffffffffffffffffffffffffffffffffffffffffffffffff1916817bffffffffffffffffffffffffffffffffffffffffffffffffffffffff191614613daf576040517f08c379a0000000000000000000000000000000000000000000000000000000008152600401613da690615cd5565b60405180910390fd5b505b505050505050565b60606000600167ffffffffffffffff811115613dd857613dd7614215565b5b604051908082528060200260200182016040528015613e065781602001602082028036833780820191505090505b5090508281600081518110613e1e57613e1d614fb4565b5b60200260200101818152505080915050919050565b613e528473ffffffffffffffffffffffffffffffffffffffff1661400a565b15614002578373ffffffffffffffffffffffffffffffffffffffff1663f23a6e6187878686866040518663ffffffff1660e01b8152600401613e98959493929190615cf5565b6020604051808303816000875af1925050508015613ed457506040513d601f19601f82011682018060405250810190613ed19190615ae5565b60015b613f7957613ee0615b1f565b806308c379a003613f3c5750613ef4615b41565b80613eff5750613f3e565b806040517f08c379a0000000000000000000000000000000000000000000000000000000008152600401613f339190614408565b60405180910390fd5b505b6040517f08c379a0000000000000000000000000000000000000000000000000000000008152600401613f7090615c43565b60405180910390fd5b63f23a6e6160e01b7bffffffffffffffffffffffffffffffffffffffffffffffffffffffff1916817bffffffffffffffffffffffffffffffffffffffffffffffffffffffff191614614000576040517f08c379a0000000000000000000000000000000000000000000000000000000008152600401613ff790615cd5565b60405180910390fd5b505b505050505050565b6000808273ffffffffffffffffffffffffffffffffffffffff163b119050919050565b6000604051905090565b600080fd5b600080fd5b600073ffffffffffffffffffffffffffffffffffffffff82169050919050565b600061406c82614041565b9050919050565b61407c81614061565b811461408757600080fd5b50565b60008135905061409981614073565b92915050565b6000819050919050565b6140b28161409f565b81146140bd57600080fd5b50565b6000813590506140cf816140a9565b92915050565b600080604083850312156140ec576140eb614037565b5b60006140fa8582860161408a565b925050602061410b858286016140c0565b9150509250929050565b61411e8161409f565b82525050565b60006020820190506141396000830184614115565b92915050565b60007fffffffff0000000000000000000000000000000000000000000000000000000082169050919050565b6141748161413f565b811461417f57600080fd5b50565b6000813590506141918161416b565b92915050565b6000602082840312156141ad576141ac614037565b5b60006141bb84828501614182565b91505092915050565b60008115159050919050565b6141d9816141c4565b82525050565b60006020820190506141f460008301846141d0565b92915050565b600080fd5b600080fd5b6000601f19601f8301169050919050565b7f4e487b7100000000000000000000000000000000000000000000000000000000600052604160045260246000fd5b61424d82614204565b810181811067ffffffffffffffff8211171561426c5761426b614215565b5b80604052505050565b600061427f61402d565b905061428b8282614244565b919050565b600067ffffffffffffffff8211156142ab576142aa614215565b5b6142b482614204565b9050602081019050919050565b82818337600083830152505050565b60006142e36142de84614290565b614275565b9050828152602081018484840111156142ff576142fe6141ff565b5b61430a8482856142c1565b509392505050565b600082601f830112614327576143266141fa565b5b81356143378482602086016142d0565b91505092915050565b60006020828403121561435657614355614037565b5b600082013567ffffffffffffffff8111156143745761437361403c565b5b61438084828501614312565b91505092915050565b600081519050919050565b600082825260208201905092915050565b60005b838110156143c35780820151818401526020810190506143a8565b60008484015250505050565b60006143da82614389565b6143e48185614394565b93506143f48185602086016143a5565b6143fd81614204565b840191505092915050565b6000602082019050818103600083015261442281846143cf565b905092915050565b6000602082840312156144405761443f614037565b5b600061444e8482850161408a565b91505092915050565b60006020828403121561446d5761446c614037565b5b600061447b848285016140c0565b91505092915050565b60006060820190506144996000830186614115565b81810360208301526144ab81856143cf565b905081810360408301526144bf81846143cf565b9050949350505050565b600067ffffffffffffffff8211156144e4576144e3614215565b5b602082029050602081019050919050565b600080fd5b600061450d614508846144c9565b614275565b905080838252602082019050602084028301858111156145305761452f6144f5565b5b835b81811015614559578061454588826140c0565b845260208401935050602081019050614532565b5050509392505050565b600082601f830112614578576145776141fa565b5b81356145888482602086016144fa565b91505092915050565b600080604083850312156145a8576145a7614037565b5b600083013567ffffffffffffffff8111156145c6576145c561403c565b5b6145d285828601614563565b925050602083013567ffffffffffffffff8111156145f3576145f261403c565b5b6145ff85828601614563565b9150509250929050565b600067ffffffffffffffff82111561462457614623614215565b5b61462d82614204565b9050602081019050919050565b600061464d61464884614609565b614275565b905082815260208101848484011115614669576146686141ff565b5b6146748482856142c1565b509392505050565b600082601f830112614691576146906141fa565b5b81356146a184826020860161463a565b91505092915050565b600080600080600060a086880312156146c6576146c5614037565b5b60006146d48882890161408a565b95505060206146e58882890161408a565b945050604086013567ffffffffffffffff8111156147065761470561403c565b5b61471288828901614563565b935050606086013567ffffffffffffffff8111156147335761473261403c565b5b61473f88828901614563565b925050608086013567ffffffffffffffff8111156147605761475f61403c565b5b61476c8882890161467c565b9150509295509295909350565b600080604083850312156147905761478f614037565b5b600061479e858286016140c0565b925050602083013567ffffffffffffffff8111156147bf576147be61403c565b5b6147cb85828601614312565b9150509250929050565b6147de816141c4565b81146147e957600080fd5b50565b6000813590506147fb816147d5565b92915050565b6000806000806080858703121561481b5761481a614037565b5b6000614829878288016140c0565b945050602061483a878288016140c0565b935050604061484b878288016147ec565b925050606061485c8782880161408a565b91505092959194509250565b600067ffffffffffffffff82111561488357614882614215565b5b602082029050602081019050919050565b60006148a76148a284614868565b614275565b905080838252602082019050602084028301858111156148ca576148c96144f5565b5b835b818110156148f357806148df888261408a565b8452602084019350506020810190506148cc565b5050509392505050565b600082601f830112614912576149116141fa565b5b8135614922848260208601614894565b91505092915050565b6000806040838503121561494257614941614037565b5b600083013567ffffffffffffffff8111156149605761495f61403c565b5b61496c858286016148fd565b925050602083013567ffffffffffffffff81111561498d5761498c61403c565b5b61499985828601614563565b9150509250929050565b600081519050919050565b600082825260208201905092915050565b6000819050602082019050919050565b6149d88161409f565b82525050565b60006149ea83836149cf565b60208301905092915050565b6000602082019050919050565b6000614a0e826149a3565b614a1881856149ae565b9350614a23836149bf565b8060005b83811015614a54578151614a3b88826149de565b9750614a46836149f6565b925050600181019050614a27565b5085935050505092915050565b60006020820190508181036000830152614a7b8184614a03565b905092915050565b60008060008060808587031215614a9d57614a9c614037565b5b6000614aab878288016140c0565b9450506020614abc878288016140c0565b935050604085013567ffffffffffffffff811115614add57614adc61403c565b5b614ae987828801614312565b925050606085013567ffffffffffffffff811115614b0a57614b0961403c565b5b614b1687828801614312565b91505092959194509250565b600067ffffffffffffffff821115614b3d57614b3c614215565b5b602082029050602081019050919050565b6000614b61614b5c84614b22565b614275565b90508083825260208201905060208402830185811115614b8457614b836144f5565b5b835b81811015614bcb57803567ffffffffffffffff811115614ba957614ba86141fa565b5b808601614bb68982614312565b85526020850194505050602081019050614b86565b5050509392505050565b600082601f830112614bea57614be96141fa565b5b8135614bfa848260208601614b4e565b91505092915050565b60008060008060808587031215614c1d57614c1c614037565b5b600085013567ffffffffffffffff811115614c3b57614c3a61403c565b5b614c4787828801614563565b945050602085013567ffffffffffffffff811115614c6857614c6761403c565b5b614c7487828801614563565b935050604085013567ffffffffffffffff811115614c9557614c9461403c565b5b614ca187828801614bd5565b925050606085013567ffffffffffffffff811115614cc257614cc161403c565b5b614cce87828801614bd5565b91505092959194509250565b614ce381614061565b82525050565b6000602082019050614cfe6000830184614cda565b92915050565b60008060008060808587031215614d1e57614d1d614037565b5b6000614d2c878288016140c0565b9450506020614d3d878288016140c0565b9350506040614d4e8782880161408a565b9250506060614d5f8782880161408a565b91505092959194509250565b60008060408385031215614d8257614d81614037565b5b6000614d908582860161408a565b9250506020614da1858286016147ec565b9150509250929050565b60008060408385031215614dc257614dc1614037565b5b6000614dd0858286016140c0565b9250506020614de1858286016140c0565b9150509250929050565b60008060408385031215614e0257614e01614037565b5b6000614e108582860161408a565b9250506020614e218582860161408a565b9150509250929050565b600080600080600060a08688031215614e4757614e46614037565b5b6000614e558882890161408a565b9550506020614e668882890161408a565b9450506040614e77888289016140c0565b9350506060614e88888289016140c0565b925050608086013567ffffffffffffffff811115614ea957614ea861403c565b5b614eb58882890161467c565b9150509295509295909350565b7f455243313135353a2061646472657373207a65726f206973206e6f742061207660008201527f616c6964206f776e657200000000000000000000000000000000000000000000602082015250565b6000614f1e602a83614394565b9150614f2982614ec2565b604082019050919050565b60006020820190508181036000830152614f4d81614f11565b9050919050565b7f4e487b7100000000000000000000000000000000000000000000000000000000600052602260045260246000fd5b60006002820490506001821680614f9b57607f821691505b602082108103614fae57614fad614f54565b5b50919050565b7f4e487b7100000000000000000000000000000000000000000000000000000000600052603260045260246000fd5b7f4e487b7100000000000000000000000000000000000000000000000000000000600052601160045260246000fd5b600061501d8261409f565b91507fffffffffffffffffffffffffffffffffffffffffffffffffffffffffffffffff820361504f5761504e614fe3565b5b600182019050919050565b7f455243313135353a2063616c6c6572206973206e6f7420746f6b656e206f776e60008201527f6572206f7220617070726f766564000000000000000000000000000000000000602082015250565b60006150b6602e83614394565b91506150c18261505a565b604082019050919050565b600060208201905081810360008301526150e5816150a9565b9050919050565b60008190508160005260206000209050919050565b60006020601f8301049050919050565b600082821b905092915050565b60006008830261514e7fffffffffffffffffffffffffffffffffffffffffffffffffffffffffffffffff82615111565b6151588683615111565b95508019841693508086168417925050509392505050565b6000819050919050565b600061519561519061518b8461409f565b615170565b61409f565b9050919050565b6000819050919050565b6151af8361517a565b6151c36151bb8261519c565b84845461511e565b825550505050565b600090565b6151d86151cb565b6151e38184846151a6565b505050565b5b81811015615207576151fc6000826151d0565b6001810190506151e9565b5050565b601f82111561524c5761521d816150ec565b61522684615101565b81016020851015615235578190505b61524961524185615101565b8301826151e8565b50505b505050565b600082821c905092915050565b600061526f60001984600802615251565b1980831691505092915050565b6000615288838361525e565b9150826002028217905092915050565b6152a182614389565b67ffffffffffffffff8111156152ba576152b9614215565b5b6152c48254614f83565b6152cf82828561520b565b600060209050601f83116001811461530257600084156152f0578287015190505b6152fa858261527c565b865550615362565b601f198416615310866150ec565b60005b8281101561533857848901518255600182019150602085019450602081019050615313565b868310156153555784890151615351601f89168261525e565b8355505b6001600288020188555050505b505050505050565b60006153758261409f565b91506153808361409f565b925082820190508082111561539857615397614fe3565b5b92915050565b60006153a98261409f565b91506153b48361409f565b92508282039050818111156153cc576153cb614fe3565b5b92915050565b7f455243313135353a206163636f756e747320616e6420696473206c656e67746860008201527f206d69736d617463680000000000000000000000000000000000000000000000602082015250565b600061542e602983614394565b9150615439826153d2565b604082019050919050565b6000602082019050818103600083015261545d81615421565b9050919050565b600081905092915050565b600061547a82614389565b6154848185615464565b93506154948185602086016143a5565b80840191505092915050565b60006154ac828461546f565b915081905092915050565b7f4f776e61626c653a206e6577206f776e657220697320746865207a65726f206160008201527f6464726573730000000000000000000000000000000000000000000000000000602082015250565b6000615513602683614394565b915061551e826154b7565b604082019050919050565b6000602082019050818103600083015261554281615506565b9050919050565b7f4f776e61626c653a2063616c6c6572206973206e6f7420746865206f776e6572600082015250565b600061557f602083614394565b915061558a82615549565b602082019050919050565b600060208201905081810360008301526155ae81615572565b9050919050565b7f455243313135353a206275726e2066726f6d20746865207a65726f206164647260008201527f6573730000000000000000000000000000000000000000000000000000000000602082015250565b6000615611602383614394565b915061561c826155b5565b604082019050919050565b6000602082019050818103600083015261564081615604565b9050919050565b7f455243313135353a2069647320616e6420616d6f756e7473206c656e6774682060008201527f6d69736d61746368000000000000000000000000000000000000000000000000602082015250565b60006156a3602883614394565b91506156ae82615647565b604082019050919050565b600060208201905081810360008301526156d281615696565b9050919050565b7f455243313135353a206275726e20616d6f756e7420657863656564732062616c60008201527f616e636500000000000000000000000000000000000000000000000000000000602082015250565b6000615735602483614394565b9150615740826156d9565b604082019050919050565b6000602082019050818103600083015261576481615728565b9050919050565b600060408201905081810360008301526157858185614a03565b905081810360208301526157998184614a03565b90509392505050565b7f455243313135353a207472616e7366657220746f20746865207a65726f20616460008201527f6472657373000000000000000000000000000000000000000000000000000000602082015250565b60006157fe602583614394565b9150615809826157a2565b604082019050919050565b6000602082019050818103600083015261582d816157f1565b9050919050565b7f455243313135353a20696e73756666696369656e742062616c616e636520666f60008201527f72207472616e7366657200000000000000000000000000000000000000000000602082015250565b6000615890602a83614394565b915061589b82615834565b604082019050919050565b600060208201905081810360008301526158bf81615883565b9050919050565b7f455243313135353a206d696e7420746f20746865207a65726f2061646472657360008201527f7300000000000000000000000000000000000000000000000000000000000000602082015250565b6000615922602183614394565b915061592d826158c6565b604082019050919050565b6000602082019050818103600083015261595181615915565b9050919050565b600060408201905061596d6000830185614115565b61597a6020830184614115565b9392505050565b7f455243313135353a2073657474696e6720617070726f76616c2073746174757360008201527f20666f722073656c660000000000000000000000000000000000000000000000602082015250565b60006159dd602983614394565b91506159e882615981565b604082019050919050565b60006020820190508181036000830152615a0c816159d0565b9050919050565b600081519050919050565b600082825260208201905092915050565b6000615a3a82615a13565b615a448185615a1e565b9350615a548185602086016143a5565b615a5d81614204565b840191505092915050565b600060a082019050615a7d6000830188614cda565b615a8a6020830187614cda565b8181036040830152615a9c8186614a03565b90508181036060830152615ab08185614a03565b90508181036080830152615ac48184615a2f565b90509695505050505050565b600081519050615adf8161416b565b92915050565b600060208284031215615afb57615afa614037565b5b6000615b0984828501615ad0565b91505092915050565b60008160e01c9050919050565b600060033d1115615b3e5760046000803e615b3b600051615b12565b90505b90565b600060443d10615bce57615b5361402d565b60043d036004823e80513d602482011167ffffffffffffffff82111715615b7b575050615bce565b808201805167ffffffffffffffff811115615b995750505050615bce565b80602083010160043d038501811115615bb6575050505050615bce565b615bc582602001850186614244565b82955050505050505b90565b7f455243313135353a207472616e7366657220746f206e6f6e2d4552433131353560008201527f526563656976657220696d706c656d656e746572000000000000000000000000602082015250565b6000615c2d603483614394565b9150615c3882615bd1565b604082019050919050565b60006020820190508181036000830152615c5c81615c20565b9050919050565b7f455243313135353a204552433131353552656365697665722072656a6563746560008201527f6420746f6b656e73000000000000000000000000000000000000000000000000602082015250565b6000615cbf602883614394565b9150615cca82615c63565b604082019050919050565b60006020820190508181036000830152615cee81615cb2565b9050919050565b600060a082019050615d0a6000830188614cda565b615d176020830187614cda565b615d246040830186614115565b615d316060830185614115565b8181036080830152615d438184615a2f565b9050969550505050505056fea26469706673582212207af39124b8f460fef39d66b97fe848b2a52d159769469b1b63240114d989890264736f6c63430008110033",
  "immutableReferences": {},
  "source": "// SPDX-License-Identifier: MIT\npragma solidity >=0.8.0 <0.9.0;\n\nimport \"@openzeppelin/contracts/token/ERC1155/ERC1155.sol\";\nimport \"@openzeppelin/contracts/utils/math/SafeMath.sol\";\nimport \"@openzeppelin/contracts/access/Ownable.sol\";\nimport \"@openzeppelin/contracts/utils/Counters.sol\";\n\nimport \"./Lib.sol\";\n\ncontract DreamMT is ERC1155, Ownable {\n    using SafeMath for uint256;\n\n    string public name = \"DreamMT\";\n    string public symbol = \"DMT\";\n    uint256 public userCounter;\n    uint256 public mtCounter;\n\n    mapping(uint256 => Lib.MT) public mtStorage;\n    mapping(uint256 => Lib.User) public userStorage;\n\n    mapping(uint256 => string) customUri;\n    mapping(uint256 => address) public creators;\n    mapping(uint256 => uint256) public tokenSupply;\n\n    mapping(address => bool) public userExists;\n    mapping(string => bool) public tokenURIExists;\n    mapping(string => bool) public tokenNameExists;\n\n    mapping(address => uint256) public rewards;\n    mapping(address => uint256) public timestamps;\n\n    constructor(string memory _uri) ERC1155(_uri) {}\n\n    modifier creatorOnly(uint256 _id) {\n        require(creators[_id] == _msgSender());\n        _;\n    }\n\n    modifier ownerOnly(uint256 _id) {\n        require(\n            (creators[_id] == _msgSender() && balanceOf(_msgSender(), _id) > 0)\n        );\n        _;\n    }\n\n    function _exist(uint256 _id) public view returns (bool) {\n        return creators[_id] != address(0);\n    }\n\n    function setCreator(address _to, uint256 _id) public creatorOnly(_id) {\n        require(_exist(_id) && _to != address(0));\n\n        creators[_id] = _to;\n    }\n\n    function createUser(address _user) public {\n        userCounter++;\n        Lib.User storage newUser = userStorage[userCounter];\n        newUser.userAddress = _user;\n\n        userStorage[userCounter].userAddress = newUser.userAddress;\n\n        for (uint256 i = 1; i <= mtCounter; i++) {\n            userStorage[userCounter].sales[i] = newUser.sales[i];\n            userStorage[userCounter].salePrice[i] = newUser.salePrice[i];\n        }\n\n        userExists[_user] = true;\n    }\n\n    function setURI(string memory _newURI) public onlyOwner {\n        _setURI(_newURI);\n    }\n\n    function setCustomURI(uint256 _tokenId, string memory _newURI)\n        public\n        creatorOnly(_tokenId)\n    {\n        mtStorage[_tokenId].tokenURI = _newURI;\n        emit URI(_newURI, _tokenId);\n    }\n\n    function uri(uint256 _id) public view override returns (string memory) {\n        require(_exist(_id));\n\n        bytes memory customUriBytes = bytes(customUri[_id]);\n        if (customUriBytes.length > 0) {\n            return customUri[_id];\n        } else {\n            return super.uri(_id);\n        }\n    }\n\n    function singleMint(\n        uint256 _id,\n        uint256 _quantity,\n        string memory _name,\n        string memory _tokenURI\n    ) public virtual {\n        if (!userExists[msg.sender]) {\n            createUser(msg.sender);\n        }\n\n        if (creators[_id] == address(0)) {\n            creators[_id] = _msgSender();\n        } else {\n            require(creators[_id] == _msgSender());\n        }\n\n        if (tokenNameExists[_name]) {\n            require(mtStorage[_id].tokenId == _id);\n            bytes memory _data;\n            _mint(msg.sender, _id, _quantity, _data);\n            tokenSupply[_id] = tokenSupply[_id].add(_quantity);\n        } else {\n            require(!tokenNameExists[_name]);\n            mtCounter++;\n            bytes memory _data;\n            _mint(msg.sender, _id, _quantity, _data);\n            tokenSupply[_id] = tokenSupply[_id].add(_quantity);\n\n            tokenURIExists[_tokenURI] = true;\n            tokenNameExists[_name] = true;\n\n            Lib.MT memory newMT = Lib.MT(_id, _name, _tokenURI);\n            mtStorage[_id] = newMT;\n        }\n    }\n\n    function batchMint(\n        uint256[] memory _ids,\n        uint256[] memory _quantities,\n        string[] memory _names,\n        string[] memory _tokenURIs\n    ) public virtual {\n        if (!userExists[msg.sender]) {\n            createUser(msg.sender);\n        }\n\n        for (uint256 i = 0; i < _ids.length; i++) {\n            uint256 _id = _ids[i];\n            string memory _name = _names[i];\n            string memory _tokenURI = _tokenURIs[i];\n\n            if (creators[_id] == address(0)) {\n                creators[_id] = _msgSender();\n            } else {\n                require(creators[_id] == _msgSender());\n            }\n\n            require(!tokenNameExists[_name]);\n            require(!tokenURIExists[_tokenURI]);\n\n            tokenNameExists[_name] = true;\n            tokenURIExists[_tokenURI] = true;\n\n            uint256 _quantity = _quantities[i];\n            tokenSupply[_id] = tokenSupply[_id].add(_quantity);\n        }\n\n        bytes memory _data;\n        _mintBatch(msg.sender, _ids, _quantities, _data);\n    }\n\n    function singleBurn(uint256 _id, uint256 _quantity) public ownerOnly(_id) {\n        tokenSupply[_id] = tokenSupply[_id].sub(_quantity);\n        _burn(_msgSender(), _id, _quantity);\n    }\n\n    function batchBurn(uint256[] memory _ids, uint256[] memory _quantities)\n        public\n    {\n        for (uint256 i = 0; i < _ids.length; i++) {\n            uint256 _id = _ids[i];\n            require(\n                balanceOf(_msgSender(), _id) > 0 || owner() == _msgSender()\n            );\n\n            uint256 _quantity = _quantities[i];\n            tokenSupply[_id] = tokenSupply[_id].sub(_quantity);\n        }\n        _burnBatch(msg.sender, _ids, _quantities);\n    }\n\n    function getUserId(address _address) public view returns (uint256) {\n        uint256 result;\n        for (uint256 i = 1; i <= userCounter; i++) {\n            if (userStorage[i].userAddress == _address) {\n                result = i;\n            }\n        }\n        return result;\n    }\n\n    function toggleForSale(\n        uint256 _tokenId,\n        uint256 _amount,\n        bool _toggle,\n        address _saleContAddress // SaleDreamMT Contract Address\n    ) public {\n        uint256 _userId = getUserId(msg.sender);\n        Lib.User storage user = userStorage[_userId];\n        uint256 bal = balanceOf(msg.sender, _tokenId);\n        require(bal >= _amount);\n        if (_toggle) {\n            user.sales[_tokenId] = user.sales[_tokenId] + _amount;\n            // userStorage[_userId].userAddress = user.userAddress;\n\n            for (uint256 i = 1; i <= mtCounter; i++) {\n                userStorage[_userId].sales[i] = user.sales[i];\n                userStorage[_userId].salePrice[i] = user.salePrice[i];\n            }\n        } else {\n            require(user.sales[_tokenId] >= _amount);\n            user.sales[_tokenId] = user.sales[_tokenId] - _amount;\n            // userStorage[_userId].userAddress = user.userAddress;\n\n            for (uint256 i = 1; i <= mtCounter; i++) {\n                userStorage[_userId].sales[i] = user.sales[i];\n                userStorage[_userId].salePrice[i] = user.salePrice[i];\n            }\n        }\n        setApprovalForAll(_saleContAddress, true);\n    }\n\n    function getSales(address _userAddress, uint256 _id)\n        public\n        view\n        returns (uint256)\n    {\n        uint256 result;\n        for (uint256 i = 1; i <= userCounter; i++) {\n            Lib.User storage user = userStorage[i];\n            if (user.userAddress == _userAddress) {\n                result = user.sales[_id];\n            }\n        }\n        return result;\n    }\n\n    function getSalePrice(address _userAddress, uint256 _id)\n        public\n        view\n        returns (uint256)\n    {\n        uint256 result;\n        for (uint256 i = 1; i <= userCounter; i++) {\n            Lib.User storage user = userStorage[i];\n            if (user.userAddress == _userAddress) {\n                result = user.salePrice[_id];\n            }\n        }\n        return result;\n    }\n\n    function setPrice(uint256 _tokenId, uint256 _price) public {\n        uint256 _userId = getUserId(msg.sender);\n        Lib.User storage user = userStorage[_userId];\n        user.salePrice[_tokenId] = _price;\n        // userStorage[_userId].userAddress = user.userAddress;\n\n        for (uint256 i = 1; i <= mtCounter; i++) {\n            userStorage[_userId].salePrice[i] = user.salePrice[i];\n            userStorage[_userId].sales[i] = user.sales[i];\n        }\n    }\n\n    function buyToken(\n        uint256 _tokenId,\n        uint256 _amount,\n        address _from,\n        address _to\n    ) public payable {\n        require(_from != address(0) && _to != address(0) && _from != _to);\n\n        if (!userExists[_to]) {\n            createUser(_to);\n        }\n\n        uint256 _userId = getUserId(_from);\n        Lib.User storage user = userStorage[_userId];\n        require(user.sales[_tokenId] >= _amount);\n\n        bytes memory data;\n        safeTransferFrom(_from, _to, _tokenId, _amount, data);\n        user.sales[_tokenId] = user.sales[_tokenId] - _amount;\n        // userStorage[_userId].userAddress = user.userAddress;\n\n        for (uint256 i = 1; i <= mtCounter; i++) {\n            userStorage[_userId].sales[i] = user.sales[i];\n            userStorage[_userId].salePrice[i] = user.salePrice[i];\n        }\n    }\n}\n",
  "sourcePath": "/Users/security/Desktop/bccs/contracts/DreamMT.sol",
  "compiler": {
    "name": "solc",
    "version": "0.8.17+commit.8df45f5f.Emscripten.clang"
  },
  "schemaVersion": "3.4.10",
  "updatedAt": "2023-02-25T02:41:41.209Z",
  "devdoc": {
    "kind": "dev",
    "methods": {
      "balanceOf(address,uint256)": {
        "details": "See {IERC1155-balanceOf}. Requirements: - `account` cannot be the zero address."
      },
      "balanceOfBatch(address[],uint256[])": {
        "details": "See {IERC1155-balanceOfBatch}. Requirements: - `accounts` and `ids` must have the same length."
      },
      "isApprovedForAll(address,address)": {
        "details": "See {IERC1155-isApprovedForAll}."
      },
      "owner()": {
        "details": "Returns the address of the current owner."
      },
      "renounceOwnership()": {
        "details": "Leaves the contract without owner. It will not be possible to call `onlyOwner` functions anymore. Can only be called by the current owner. NOTE: Renouncing ownership will leave the contract without an owner, thereby removing any functionality that is only available to the owner."
      },
      "safeBatchTransferFrom(address,address,uint256[],uint256[],bytes)": {
        "details": "See {IERC1155-safeBatchTransferFrom}."
      },
      "safeTransferFrom(address,address,uint256,uint256,bytes)": {
        "details": "See {IERC1155-safeTransferFrom}."
      },
      "setApprovalForAll(address,bool)": {
        "details": "See {IERC1155-setApprovalForAll}."
      },
      "supportsInterface(bytes4)": {
        "details": "See {IERC165-supportsInterface}."
      },
      "transferOwnership(address)": {
        "details": "Transfers ownership of the contract to a new account (`newOwner`). Can only be called by the current owner."
      }
    },
    "version": 1
  },
  "userdoc": {
    "kind": "user",
    "methods": {},
    "version": 1
  }
}